:108709004101720A4101A5004101B1004101A600E0
:108719004101AE004201A700004101B0064101B587
:10872900034101B4F241017102C10AC10BC10941FE
:03873900017000CC
:03000B0002B959DE
:10B95900C0E0C083C082900172E014F0E06401701D
:10B96900069001A5E004F09001A8E004F0700690AB
:0EB9790001A7E004F0C28DD082D083D0E0326E
:10BC3E00E58954F04401F589E4F58CF58AD28C221D
:05BCE400C28DD2A9226F
:03BCEE00C2A922C6
:0BBC7D0012BA2AEFF47002EEF460F53A
:01BC88002299
:05B4F0009000A7EFF041
:10B4F5009000A7E0FF12B6D6EF3395E04F6024E445
:10B505009000A8F0A3F0C39000A9E094E89000A8EB
:10B51500E0940350DBA3E004F070EB9000A8E00496
:08B52500F080E39000A7E0FFB5
:01B52D0022FB
:0EB1D300900027EBF0A3EAF0A3E9F0A3EDF063
:10B1E100E4A3F090002AE0FFA3E0C39F5029900060
:10B1F10027E0FBA3E0FAA3E0F9121B4CFF12B4F025
:10B2010090002CEFF0900028E475F001121BD8900B
:07B21100002BE004F080CCEB
:01B218002213
:10BC4E0012BCE912BCA612BC93C283D287C2972241
:10AEF0007D047C007FA812B5AD9001B2E4F0A3EF11
:10AF0000F07D067C007FA812B5AD9001ACE4F0A303
:10AF1000EFF07D087C007FA812B5AD9001AAEFF09C
:10AF20007D0A7C007FA812B5AD9001A9EFF07D0EDF
:0DAF30007C007FA812B5AD9001ABEFF022C0
:10A6D60012BC3E12BCE412B98712B3F012BC4ED2C1
:10A6E600AF12BB9A7F217E0012BBD212BC5E7F6185
:10A6F60012B025D28212BCAD20910312530F12AEB6
:10A70600F0126B38EF70FA9001727405F020800336
:10A7160012B74B900170E0FF1238C9900170EFF04C
:10A7260020B3292009267B017A017948129BF790EC
:10A736000000EFF0FD7B017A01794812B4717B01CC
:10A746007A017948900000E0FD12338C1294F7806C
:01A75600BC46
:10B660007072696D6172696F204243433D20000D25
:10B670000A0063616C63756C6F204243433D200098
:10B680005245454E56494152207472616D612048C1
:0BB690006F72613A20004C49564500E3
:0E338C00900001EBF0A3EAF0A3E9F0A3EDF04E
:10339A00E4A3F0ED641A60030234D2900001E0FB6A
:1033AA00A3E0FAA3E0F9121B4C640260030234D2D0
:1033BA00900002121B65644860030234D290000434
:1033CA00E07E0024FEF582EE34FFF583121B65646D
:1033DA000360030234D27BFF7AB6796012B0789028
:1033EA000001E0FBA3E0FAA3E0F9900019121B65C3
:1033FA00FF12B0FE7BFF7AB6796F12B078E4FC90C8
:10340A000004E014FEECC39E501F900001E0FBA3F1
:10341A00E0FAA3E0F9AF048F82758300121B65FE00
:10342A00900005E06EF00C80D67BFF7AB6797212B6
:10343A00B078900005E0FF12B0FE7BFF7AB6796F94
:10344A0012B078900001E0FBA3E0FAA3E0F9900043
:10345A0019121B65FF900005E0B50726E92403F958
:10346A00E43AFA1275C4EF60030238C8900001E02A
:10347A00FBA3E0FAA3E02403F9E43AFA1298E6027D
:10348A00A9589000067402F0A37405F0A37403F01F
:10349A00E4A3F07B017A0079067D041294457BFF50
:1034AA007AB6798012B078900006E0FF12B0FE90EA
:1034BA000007E0FF12B0FE900008E0FF12B0FE7BAA
:1034CA00FF7AB6796F02B078900001E0FBA3E0FAC8
:1034DA00A3E0F9121B4C64B170057F600236FB90C1
:1034EA000001E0FBA3E0FAA3E0F9121B4C64B270FE
:1034FA00057F5D0236FB900001E0FBA3E0FAA3E042
:10350A00F9121B4C64B370057F630236FB9000040A
:10351A00E064017017900001E0FBA3E0FAA3E0F970
:10352A00121B4C64B470057F5E0236FB900004E007
:10353A0064017017900001E0FBA3E0FAA3E0F9121E
:10354A001B4C64B570057F620236FB900001E0FBFC
:10355A00A3E0FAA3E0F9121B4C64B6702690021D90
:10356A00E004F0E0D394047480948050030238C8D5
:10357A007FAE122D60E49001A5F0C297C28390023B
:10358A001DF022900001E0FBA3E0FAA3E0F9121B70
:10359A004CFF64B76005EF64AA70519001A5E0C3BF
:1035AA009414748094804006E4F0C297C283900118
:1035BA00AAE060030238C89001A9E064016003022E
:1035CA0038C8C39001A8E094589001A7E09402502B
:1035DA00030238C8E4F0A3F09001AA04F07BFF7A52
:1035EA00B6799612B078E49001AAF022900004E02D
:1035FA0064017017900001E0FBA3E0FAA3E0F9125E
:10360A001B4C64B870057F9A0236FB900004E0FFF9
:10361A006403702A900001E0FBA3E0FAA3E0F990AA
:10362A000001121B6564557015FE74FF2FF582EEBA
:10363A0034FFF583121B65640370030238C89000D7
:10364A0004E064017017900001E0FBA3E0FAA3E034
:10365A00F9121B4C64A170057F5A0236FB900004D4
:10366A00E064017016900001E0FBA3E0FAA3E0F920
:10367A00121B4C640570047F9C8076900004E06401
:10368A00017016900001E0FBA3E0FAA3E0F9121B17
:10369A004C640670047F9E8058900004E0640170B8
:1036AA0016900001E0FBA3E0FAA3E0F9121B4C64B8
:1036BA000770047F5F803A900004E06401701690FE
:1036CA000001E0FBA3E0FAA3E0F9121B4C640870C6
:1036DA00047F61801C900004E0640170179000016F
:1036EA00E0FBA3E0FAA3E0F9121B4C640970057F22
:1036FA00AF022D60900004E0FF6413703C9000015B
:10370A00E0FBA3E0FAA3E0F9900001121B656456FE
:10371A007027EF24FFFFE434FFFE8F82F583121B2C
:10372A0065640370148F828E83E4121BA4E9240259
:10373A00F9E43AFA7F5B023889900004E0FF6413E7
:10374A00703C900001E0FBA3E0FAA3E0F9900001CD
:10375A00121B65644F7027EF24FFFFE434FFFE8FCE
:10376A0082F583121B65640370148F828E83E412C0
:10377A001BA4E92402F9E43AFA7F9B0238899000F3
:10378A0004E0FF64066003023840900001E0FBA3F6
:10379A00E0FAA3E0F9121B4C64026003023840907D
:1037AA000001121B6564576003023840FE74FF2F44
:1037BA00F582EE34FFF583121B656403707890007E
:1037CA0001A3A3900002121B65FD7B017A00790612
:1037DA0012ACD89000097420F0900001E0FBA3E03D
:1037EA00FAA3E0F9900003121B65FD900001A3A360
:1037FA00900004121B6590001CF07B017A00790A84
:10380A001245EA9001A9E06401702112B784EFF42D
:10381A0060077FAA122D6080097B017A007906125F
:10382A0089947B017A0079067F5C80537B017A0058
:10383A0079067F5C8049900004E0FF64077043903A
:10384A000001E0FBA3E0FAA3E0F9121B4C6402704A
:10385A0031900001121B6564637027EF24FFFFE4B7
:10386A0034FFFE8F82F583121B65640370148F8206
:10387A008E83E4121BA4E92402F9E43AFA7F9D023A
:10388A004B71900004E0FF640C7033900001E0FB80
:10389A00A3E0FAA3E0F9121B4C64027021FE74FF44
:1038AA002FF582EE34FFF583121B656403700F90C7
:0E38BA000001A3A3E02401F9E43AFA128B39CD
:0138C80022DD
:0EB36E00900033EBF0A3EAF0A3E9F0A3EDF0BA
:10B37C00E4A3F0900036E0FFA3E0C39F50249000BC
:10B38C0033E0FBA3E0FAA3E0F9121B4CFF12B0254B
:10B39C00900034E475F001121BD8900037E004F0F3
:02B3AC0080D14E
:01B3AE00227C
:0B899400900011EBF0A3EAF0A3E9F063
:10899F009000327403F090001414F012B2E99000BA
:1089AF0015EFF0A37453F09001AEE0900032601316
:1089BF00E0FF04F074142FF582E43400F583744D56
:1089CF00F08011E0FF04F074142FF582E43400F509
:1089DF00837443F09000327404F0900011E0FBA315
:1089EF00E0FAA3E0F9121B4CFF6021900032E02463
:1089FF0014F582E43400F583EFF0900012E475F083
:108A0F0001121BD8900032E004F080CE900032E0CB
:108A1F00FF04F074142FF582E43400F583743AF0F8
:108A2F00900032E02414F9E43400FA7B01126492CE
:108A3F00900032E0FF241EF582E43400F583743A8F
:108A4F00F0741F2FF582E43400F5837403F07B017B
:0B8A5F007A007914EF240CFD02B36EC6
:10BBAA0050524F4752414D414D4F5320484F5241F9
:04BBBA00000D0A0070
:08000300D29412BCF1C2942258
:05B4B1009000B4EFF073
:10B4B600E4A3F0A3F09000B4E0FFA2E713F030D7C6
:10B4C60004D2958002C2951200039000B6E004F003
:10B4D60070069000B5E004F0C39000B6E0940890C2
:09B4E60000B5E06480948040CCC4
:01B4EF00223A
:0A9E4A00EBF0A3EAF0A3E9F07F8D2E
:059E54009000B1EFF0E9
:109E5900D2967F037E0012BBD29000B1E0FF12B40C
:109E6900B1E49000B2F0A3F09000B2E0FCA3E0FDF1
:109E7900C39408EC64809480504F30951690021E6C
:109E8900E04480F0ED9406EC648094805005E0FF96
:109E9900C313F020952090021EE0547FF0D3900068
:109EA900B3E094069000B2E0648094805008900278
:109EB9001EE0FFC313F01200039000B3E004F0703A
:109EC900A79000B2E004F0809FC29690021EE0FFC6
:019ED9002266
:10B9DB00900014EFF0A3EDF0D2967F037E0012BB24
:10B9EB00D2900014E0FF12B4B1900015E0FF90006C
:08B9FB0014F012B4B1C296224F
:10B3AF00900012E475F001121BD8900012E475F0B2
:10B3BF0001121BD8900012E475F001121BD89000F7
:10B3CF0011E0FBA3E0FAA3E0F9121B4CFF90000180
:04B3DF00121B65FDDB
:0CB3E300EF540FC454F0FFED540F4FFF67
:01B3EF00223B
:1075C400E4FF121B4CFEC3943050030276D6EED374
:1075D400943940030276D6900001121B65FEC394D1
:1075E4003050030276D3EED3943940030276D3901D
:1075F4000003121B65FEC3943050030276D0EED311
:10760400943940030276D0900004121B65FEC394A3
:107614003050030276D8EED3943940030276D890E2
:107624000008121B65FEC3943050030276CDEED3DE
:10763400943940030276CD90000B121B65FEC3946F
:107644003050030276CAEED39439507A90000C126B
:107654001B65FEC39430406BEED3943950659000A3
:107664000E121B65FEC394304056EED3943950502D
:1076740090000F121B65FEC394304041EED3943941
:10768400503B900011121B65FEC39430402CEED386
:1076940094395026900012121B65FEC39430401793
:1076A400EED394395011900014121B65FEC394302C
:1076B4004022EED39439227F01227F01227F0122CE
:1076C4007F01227F01227F01227F01227F01227F0D
:0476D40001227F010F
:0176D800228F
:0B98E600900011EBF0A3EAF0A3E9F002
:1098F1007BFF7ABB79AA12B0787BFF7ABB79BB1266
:10990100B07812B3CDAD077F8612B9DB12B3AFAD1C
:10991100077F8812B9DB900012E475F001121BD8A1
:10992100900012E475F001121BD812B3AFAD077F9E
:109931008C12B9DB12B3AFAD077F8412B9DB12B35E
:10994100AFAD077F8212B9DB12B3AFAD077F8012D3
:10995100B9DB900012E475F001121BD8900012E4FB
:1099610075F001121BD8900012E475F001121BD89A
:10997100900011E0FBA3E0FAA3E0F9121B4C54079D
:06998100FD7F8A02B9DB44
:10BB1400AE07EEC4540F540FFE6012EF540FFFE44F
:0DBB2400FDEDC39E5007740A2FFF0D80F445
:01BB310022F1
:10B56C00121BA490005EE475F001121BD890005DD4
:0CB57C00E0FBA3E0FAA3E0F9121B4CFF77
:10B58800E4FEFDFCECC39F500B0DED640A7002FD58
:10B598000E0C80F0EEC454F054F0FEED540F4EFF44
:01B5A8002280
:0B9D280090005DEBF0A3EAF0A3E9F06F
:109D330012B579EF54F0C4540F4430FE900060E044
:109D4300FBA3E0FAA3E0F9EE121B92EF540F4430A9
:109D5300FF900060E0FBA3E0FAA3E0F9900001EFBD
:109D630012B56CEF54F0C4540F4430FE900060E021
:109D7300FBA3E0FAA3E0F9900002EE121BA4EF5458
:109D83000F443090000312B56CEF54F0C4540F44E9
:109D930030FE900060E0FBA3E0FAA3E0F99000043A
:109DA300EE121BA4EF540F4430900005121BA49035
:069DB3000006E4021BA4FF
:10ACD800E4FFFE900018EDF0900018E0C39464744F
:10ACE8008094804007E0249CF00F80ECEF44301201
:10ACF8001B92740129F9E43AFA900018E0C3940A07
:10AD0800748094804007E024F6F00E80ECEE443026
:10AD1800121B92740129F9E43AFA900018E04430C1
:0EAD2800121B92740129F9E43AFAE4021B921C
:0E45EA00900018EBF0A3EAF0A3E9F0A3EDF0C7
:1045F800E490001DF0A3F0900020F0A3F0A3F0A336
:10460800F090001FEDF054F0F0E0FFC4540FF0906C
:104618000028121C81404000007F007E007D807CC5
:1046280041126600C004C005C006C00790001FE024
:10463800FCE412165ED003D002D001D00012154E51
:10464800C004C005C006C00790001DE0FCA3E0FD43
:10465800E4121659D003D002D001D00012145D1212
:10466800169290001DEEF0A3EFF090001BE0900072
:104678001FF0540FF0900028121C81400000007FAA
:10468800007E007D807C41126600C004C005C00623
:10469800C00790001FE0FCE412165ED003D002D0E1
:1046A80001D00012154EC004C005C006C007900016
:1046B8001DE0FCA3E0FDE4121659D003D002D0019E
:1046C800D00012145D12169290001DEEF0A3EFF0C8
:1046D80090001CE090001FF054F0F0E0FFC4540F6D
:1046E800F0900028121C813F8000007F007E007D32
:1046F800807C41126600C004C005C006C007900057
:104708001FE0FCE412165ED003D002D001D00012E4
:10471800154EC004C005C006C00790001DE0FCA3EC
:10472800E0FDE4121659D003D002D001D0001214D3
:104738005D12169290001DEEF0A3EFF090001CE0C1
:1047480090001FF0540FF0900028121C8100000008
:10475800007F007E007D807C41126600C004C00599
:10476800C006C00790001FE0FCE412165ED003D01C
:1047780002D001D00012154EC004C005C006C00703
:1047880090001DE0FCA3E0FDE4121659D003D0020E
:10479800D001D00012145D12169290001DEEF0A305
:1047A800EFF0C3EF9410EE9427401074F02FFF74CD
:1047B800D83EFE900020E004F080E7900020E0441E
:1047C80030FD900018E0FBA3E0FAA3E0F9ED121B1E
:1047D80092900019E475F001121BD8C3EF94E8EE2B
:1047E8009403401074182FFF74FC3EFE900021E0E3
:1047F80004F080E7900021E04430FD900018E0FBD1
:10480800A3E0FAA3E0F9ED121B92900019E475F009
:1048180001121BD8C3EF9464EE94004010749C2FCF
:10482800FF74FF3EFE900022E004F080E790002233
:10483800E04430FD900018E0FBA3E0FAA3E0F9EDB6
:10484800121B92900019E475F001121BD8C3EF9463
:104858000AEE9400401074F62FFF74FF3EFE90009D
:1048680023E004F080E7900023E04430FD90001836
:10487800E0FBA3E0FAA3E0F9ED121B92900019E423
:1048880075F001121BD8EF4430FF900018E0FBA32D
:10489800E0FAA3E0F9EF121B92900019E475F00119
:1048A800121BD8900018E0FBA3E0FAA3E0F9E40299
:0248B8001B9251
:0364920090005126
:10649500129E4AEF54F0C4540F4430FE900051E070
:1064A500FBA3E0FAA3E0F9EE121B92900052E4750B
:1064B500F001121BD8EF540F4430FF900051E0FB60
:1064C500A3E0FAA3E0F9EF121B92900052E475F0F5
:1064D50001121BD87F89129E54EF54F0C4540F4407
:1064E50030FE900051E0FBA3E0FAA3E0F9EE121BA9
:1064F50092900052E475F001121BD8EF540F44300E
:10650500FF900051E0FBA3E0FAA3E0F9EF121B9224
:10651500900052E475F001121BD87F87129E54EF4C
:1065250054F0C4540F4430FE900051E0FBA3E0FA50
:10653500A3E0F9EE121B92900052E475F001121BD4
:10654500D8EF540F4430FF900051E0FBA3E0FAA3CD
:10655500E0F9EF121B92900052E475F001121BD87E
:106565007F85129E54EF54F0C4540F4430FE9000C2
:1065750051E0FBA3E0FAA3E0F9EE121B9290005262
:10658500E475F001121BD8EF540F4430FF90005111
:10659500E0FBA3E0FAA3E0F9EF121B92900052E4AE
:1065A50075F001121BD87F83129E54EF54F0C4542A
:1065B5000F4430FE900051E0FBA3E0FAA3E0F9EEB2
:1065C500121B92900052E475F001121BD8EF540F84
:1065D5004430FF900051E0FBA3E0FAA3E0F9EF128D
:1065E5001B92900052E475F001121BD8900051E007
:0B65F500FBA3E0FAA3E0F9E4021B9214
:0B61170090001EEBF0A3EAF0A3E9F0FB
:106122007F89129E54EF54F0C4540F4430FE900005
:106132001EE0FBA3E0FAA3E0F9EE121B9290001F0F
:10614200E475F001121BD8EF540F4430FF90001E8B
:10615200E0FBA3E0FAA3E0F9EF121B9290001FE428
:1061620075F001121BD87F87129E54EF54F0C4546D
:106172000F4430FE90001EE0FBA3E0FAA3E0F9EE2C
:10618200121B9290001FE475F001121BD8EF540FFE
:106192004430FF90001EE0FBA3E0FAA3E0F9EF1207
:1061A2001B9290001FE475F001121BD87F8D129E86
:1061B20054EF54F0C4540F4430FE90001EE0FBA391
:1061C200E0FAA3E0F9EE121B9290001FE475F001D1
:1061D200121BD8EF540F4430FF90001EE0FBA3E0E7
:1061E200FAA3E0F9EF121B9290001FE475F001127E
:1061F2001BD87F85129E54EF54F0C4540F4430FED6
:1062020090001EE0FBA3E0FAA3E0F9EE121B9290CD
:10621200001FE475F001121BD8EF540F4430FF90B9
:10622200001EE0FBA3E0FAA3E0F9EF121B9290003C
:106232001FE475F001121BD87F83129E54EF54F0B5
:10624200C4540F4430FE90001EE0FBA3E0FAA3E02A
:10625200F9EE121B9290001FE475F001121BD8EFA9
:10626200540F4430FF90001EE0FBA3E0FAA3E0F9D4
:10627200EF121B9290001FE475F001121BD89000E0
:106282001EE0FBA3E0FAA3E0F9742E121B92900029
:106292001FE475F001121BD87F81129E54EF54F057
:1062A200C4540F4430FE90001EE0FBA3E0FAA3E0CA
:1062B200F9EE121B9290001FE475F001121BD8EF49
:1062C200540F4430FF90001EE0FBA3E0FAA3E0F974
:1062D200EF121B9290001FE475F001121BD8900080
:0D62E2001EE0FBA3E0FAA3E0F9E4021B922A
:1096F9009000AE129E4A12BB149000AEE0FBA3E0AC
:10970900FAA3E0F9EF121B929000AFE475F0011291
:109719001BD87F89129E5412BB149000AEE0FBA3A4
:10972900E0FAA3E0F9EF121B929000AFE475F001A3
:10973900121BD87F87129E5412BB149000AEE0FB17
:10974900A3E0FAA3E0F9EF121B929000AFE475F0E1
:1097590001121BD87F85129E5412BB149000AEE0F3
:10976900FBA3E0FAA3E0F9EF121B929000AFE475B6
:10977900F001121BD87F83129E5412BB149000AEC5
:10978900E0FBA3E0FAA3E0F9EF121B929000AFE42B
:0697990075F001021BD86F
:10AAC200900009129E4A900009E0FBA3E0FAA3E07D
:10AAD200F990000EEF121BA47F89129E5490000978
:10AAE200E0FBA3E0FAA3E0F990000FEF121BA47FB2
:10AAF20087129E54900009E0FBA3E0FAA3E0F990CC
:10AB02000010EF121BA47F85129E54900009E0FBF7
:10AB1200A3E0FAA3E0F9900011EF121BA47F8312C5
:10AB22009E54900009E0FBA3E0FAA3E0F990001222
:04AB3200EF021BA46F
:108D980090001E129E4A90001EE0FBA3E0FAA3E09A
:108DA800F9EF121B9290001FE475F001121BD87F97
:108DB80089129E5490001EE0FBA3E0FAA3E0F9EFAD
:108DC800121B9290001FE475F001121BD87F8712C6
:108DD8009E5490001EE0FBA3E0FAA3E0F9EF121BFB
:108DE8009290001FE475F001121BD87F85129E54E3
:108DF80090001EE0FBA3E0FAA3E0F9EF121B9290AB
:108E0800001FE475F001121BD87F83129E54900056
:108E18001EE0FBA3E0FAA3E0F9EF121B9290001FFB
:108E2800E475F001121BD87F81129E5490001EE059
:108E3800FBA3E0FAA3E0F9EF121B9290001FE47580
:108E4800F001121BD890001EE0FBA3E0FAA3E0F9A2
:048E5800E4021B9283
:07BCA600C294C296D2952260
:0B8CCF0090009CEBF0A3EAF0A3E9F09A
:108CDA007B017A0079A71296F99000A7E0FF7E003F
:108CEA007C017D6D121BC6AC06AD07A3E075F01EB4
:108CFA00A42DFFEC35F0FEA3E07C002FFFEC3EFE36
:108D0A00E4FD90009F121C7590009CE0FBA3E0FA22
:108D1A00A3E0F9900001121B65FF3395E0FE7C0089
:108D2A007D1E121BC6C006C007121B4CFF3395E0FE
:108D3A00FE0C7D6D121BC6D0E02FFFD0E03EFE90E8
:108D4A000002121B65FD3395E0FCEF2DFFEE3CFEA1
:108D5A003395E0FDFC9000A3121C7590009FE0FC87
:108D6A00A3E0FDA3E0FEA3E0FFA3E0F8A3E0F9A3DC
:108D7A00E0FAA3E0FBC3121C1240089000AD740194
:0D8D8A00F08005E49000ADF09000ADE0FF3A
:018D970022B9
:10BBD200E4FDFCC3ED9FEC9E50070DBD00010C80FF
:01BBE200F270
:01BBE300223F
:04BB3200AB07AA06AD
:10BB3600900000C3E5829BE5839A500A7F967E00BB
:06BB460012BBD2A380ED4A
:01BB4C0022D6
:08B71100900017EEF0A3EFF029
:10B71900E4A3F0A3F0900017E0FEA3E0FFC39000BC
:10B729001AE09F900019E09E50177F0A7E0012BB15
:10B739003290001AE004F070DC900019E004F08007
:01B74900D42B
:01B74A0022DC
:01BCF1002230
:10B69B004572726F72206465207469636B65740008
:10B6AB000A0D004E756D65726F20646520746963B9
:10B6BB006B65743A004E6F206465207469636B652B
:0BB6CB0074204845583A00256C7500BB
:03BAB50012BA5072
:10BAB800D20ED293D292E4FFFE209205C20EC29318
:0CBAC800220FBF00010EBE04F0BF4CEDC9
:01BAD400224F
:03BAD50012BA5052
:10BAD800D293D292D20EE4FFFE209205C20EC293F8
:0CBAE800220FBF00010EBE02F0BF8AED6D
:01BAF400222F
:06BCDE00D29300C2932284
:10BA5000E4FEEEC39408748094805015EF25E0FF57
:10BA600030D704D2928002C292D29312BCDE0E80F2
:01BA7000E1F4
:01BA710022B2
:08BBE400ECFD7C00C293C2924B
:0ABBEC00D292D29300C292C29322BB
:0ABC8900C293C29200D293D292221D
:10AF3D00E4FBEBFDC39408748094805038C29330C9
:10AF4D009216900213E04401F0ED94067480948003
:10AF5D005006E025E0F0D293209217900213E054B2
:10AF6D00FEF0EBD39406748094805006E025E0F05B
:0CAF7D00D2930B80BDC293900213E0FF42
:01AF890022A5
:10AE4B0090005DE0FCA3E0FDA3E0FBA3E0FAA3E030
:07AE5B00F9121B4CFB7FA85C
:02AE6200AA073D
:10AE6400AF05A90712BBE4AF0212BAB5AF0512BA17
:10AE7400B5AF0112BA5012BAB8AF0312BA5012BA2F
:10AE8400B812BC897F0D7E0012BB32D293D2927F5E
:0DAE9400627E0012BBD27F627E0002BBD244
:04B5A9007C027FA8F9
:02B5AD00AB07EA
:10B5AF00AF05AA0712BBE4AF0312BAD5AF0512BAA3
:10B5BF00D5AF0212BA5012BAD812BBECEB04FF127D
:10B5CF00BA5012BAB8C29312AF3D12BC89D293D2FD
:06B5DF0092900213E0FF50
:01B5E5002243
:0B8B3900900011EBF0A3EAF0A3E9F0BC
:108B4400E4900015F0900011E0FBA3E0FAA3E0F933
:108B540090000AE4121BA4E4900014F0900014E0C6
:108B6400FFD39409748094805057900011E0FBA3C4
:108B7400E0FAA3E0F98F82758300121B65FF7E0083
:108B8400C3943074809480400AD3EF9439748094F1
:108B94008040269000157401F07BFF7AB6799B1211
:108BA400B078900011E0FBA3E0FAA3E0F912B078EA
:108BB4007BFF7AB679AB12B078900014E004F080B1
:108BC4009B900015E0700E900011E0FBA3E0FAA367
:108BD400E0F90280C5E4FBFD7C027FA812AE62E4EA
:108BE400FB7D017C027FA812AE62E4FB7402FDFCF3
:108BF4007FA812AE62E4FB7D037C027FA812AE6202
:018C0400224D
:0B80C500900016EBF0A3EAF0A3E9F036
:1080D0007F007E007D007C007BFF7AB679AE12B017
:1080E00078900016E0FBA3E0FAA3E0F912B0787BE9
:1080F000FF7AB679AB12B078900016E0FBA3E0FAF5
:10810000A3E0F91276D990001D121C757BFF7AB698
:1081100079C012B07890001DE0FCA3E0FDA3E0FE62
:10812000A3E0FF7818121C23900019EFF012B0FEA4
:1081300090001DE0FCA3E0FDA3E0FEA3E0FF7810AB
:10814000121C2390001AEFF012B0FE90001DE0FC0C
:10815000A3E0FDA3E0FEA3E0FF7808121C2390003B
:108160001BEFF012B0FE90001DA3A3A3E0FF900050
:108170001CF012B0FE7BFF7AB679AB12B07890009B
:1081800019E0FB7D007C027FA812AE6290001AE02D
:10819000FB7D017C027FA812AE6290001BE0FB74A5
:1081A00002FDFC7FA812AE6290001CE0FB7D037C08
:0681B000027FA802AE628E
:10AF8A00128C0590007A74FFF0A374B6F0A374D201
:10AF9A00F0A3121C757B017A007959123E047B01D9
:10AFAA007A00795912000E74592FF582E43400F5AB
:10AFBA0083E4F07B017A00795912B0787BFF7AB684
:0BAFCA0079AB12B0787B017A00795956
:01AFD5002259
:108C0500900067121C81000000007D0012B5A9A923
:108C1500077D0112B5A9900064EFF07402FDFC7F99
:108C2500A812B5AD900065EFF07D0312B5A99000CF
:108C350066EFF0AF01A3E0F8A3E0F9A3E0FAA3E043
:108C45004FFFEAFEE9FDE8FC7808121C3690006744
:108C5500121C75900064E0FF900067E0F8A3E0F94E
:108C6500A3E0FAA3E04FFFEAFEE9FDE8FC7808126D
:108C75001C36900067121C75900065E0FF90006738
:108C8500E0F8A3E0F9A3E0FAA3E04FFFEAFEE9FD6F
:108C9500E8FC7808121C36900067121C7590006677
:108CA500E0FFA3E0F8A3E0F9A3E0FAA3E04FFFEAB1
:108CB500FEE9FDE8FC900067121C75900067E0FC7A
:098CC500A3E0FDA3E0FEA3E0FF23
:018CCE002283
:10B86000128C05EF2401FFE43EFEE43DFDE43CFCC8
:10B8700090007A74FFF0A374B6F0A374D2F0A31210
:10B880001C757B017A007909123E047B017A0079EC
:04B89000090280C564
:10AC100090009CEEF0A3EFF0A3EBF0A3EAF0A3E921
:01AC2000F043
:10AC210090009CE0FCA3E0FD7FA812B5AD90009ED2
:10AC3100E0FBA3E0FAA3E0F9EF121B9290009EE083
:10AC4100FBA3E0FAA3E0F9121B4CFF90009DE00486
:10AC5100F0700690009CE004F090009FE475F00114
:10AC6100121BD8EF70BA90009EE0FBA3E0FAA3E0BC
:05AC7100F9E4021B9252
:10AB360090005DEEF0A3EFF0A3EBF0A3EAF0A3E93B
:10AB4600F090005FE0FBA3E0FAA3E0F9121B4C6073
:10AB560024B40D04E4121B9212AE4B90005EE00486
:10AB6600F0700690005DE004F0900060E475F0017E
:10AB7600121BD880CC12AE4B90005EE004F070063B
:10AB860090005DE004F0900060E475F001121BD8BF
:0FAB960090005DE0FCA3E0FDE4FB7FA802AE624F
:1081B60050756C7361646F722041637469766F0DDC
:1081C6000A0053656E736F726573204175746F2074
:1081D600792073656E736F72312061637469766F8F
:1081E600732E0A0D0053656E736F72206163746996
:1081F600766F2073656E736F72312E0A0D004465BB
:108206007465637461646F2E2053656E736F72209C
:108216004175746F2E0A0D0053656E736F72657328
:10822600206E6F2064657465637461646F732E0AD3
:108236000D005665686963756C6F204573706572CD
:10824600616E646F2053616C69722E0A0D0056656B
:10825600686963756C6F2053616C69656E646F2E17
:1082660020556E206D6F6D656E746F2E0A0D006D54
:10827600736A5F6C63645F696E666F726D61746961
:10828600766F2072656C6F6A006D736A5F6C6364EB
:108296005F696E666F726D617469766F204944001E
:0A873C00C10F41021B0041021C00A6
:07BCAD00C2B5C2B6C2B72206
:07BCB400C2B5D2B6C2B722EF
:07BCBB00D2B5D2B6C2B722D8
:07BCC200C2B5C2B6D2B722E1
:07BCC900D2B5C2B6D2B722CA
:07BCD000C2B5D2B6D2B722C3
:07BCD700D2B5D2B6D2B722AC
:10BBF60012BCBB20910B7BFF7A8179B612B078D24A
:02BC06000F220B
:10BAF500E4FF7DF47C01309115EFFB3395E04B704D
:0EBB05000DED1D70011CED4C70EC7F0180E811
:01BB1300220F
:10BA72007F017DF47C01209118EFFB3395E0FAEB16
:10BA820064014A700CED1D70011CED4C70E8FF80E2
:01BA9200E5CE
:01BA93002290
:10B2E9009000337401F012BCD0309103E004F012E5
:10B2F900BCD7309107900033E02402F0900033E08E
:10B30900640170177D12FC7FA812B5ADEF600CF4D3
:10B31900900033700404F08002EFF0900033E024D1
:02B3290030FFF3
:01B32B0022FF
:10BB7E007D127C007FA812B5ADEF6005F470027FD8
:05BB8E0001EF2430FF6F
:01BB9300228F
:10ADF00012BCC920912312BCB47BFF20910D7A8133
:10AE000079C812B078E49001AE80227A8179EB1291
:10AE1000B0789001AE7401801412BCB47BFF209115
:10AE2000187A82790412B0789001AE7401F0900023
:10AE30001274FFF012BBF6800C7A82791E12B07881
:0AAE4000E4900012F0900012E0FF11
:01AE4A0022E5
:10B7840012BCC230912012BAF5EF3395E0FEEF649B
:10B79400014E700A12ADF0900011EFF080147BFF9F
:10B7A4007A82793880067BFF7A82795412B0787F66
:07B7B4000022900011E0FFEC
:01B7BB00226B
:1094F700E4900001F090021BE004F0E0C3943274A2
:1095070080948050030295A5E4F012BCAD3091031E
:1095170002959A900001E0707A12BA72EF3395E0E3
:109527004F70707BFF7A82797512B078900001E0F6
:10953700FF12B0FE90021CE0FF12B0FE90021CE08A
:10954700702A900001E0702430B30B04F012AFD6FC
:1095570090021C7401F012BAF5EF3395E0FEEF6448
:10956700014E702F7F0AFE12B711802790021CE070
:109577006401701F900001E070197BFF7A82798F78
:1095870012B07830B30DE4900001F0126C76E490DD
:0E959700021CF012BCAD309105E4900001F012
:0195A50022A3
:101FE100494E4752455345205441524A4554412098
:101FF100005441524A4554412053494E20494E47CD
:102001005245534F20005441524A455441204E4FAE
:10201100205245474953545241205041474F2000D7
:10202100455843454445205449454D504F2044456A
:102031002047524143494120004D454E5355414CA3
:10204100204E4F204553544120454E20504152517E
:102051005545414445524F2000444952494A415354
:102061004520412043414A412000475241434941D3
:10207100532E2E2E2000475241434941532E2E2EDE
:10208100004D454E5355414C494441442056454E1F
:102091004349444120004D454E5355414C4944412B
:1020A100442045584345444520484F524152494FE9
:1020B1002041434552515545534520412043414A12
:1020C1004120004E4F204553204D454E5355414C24
:1020D10049444144204E49205052455041474F0008
:1020E1004D454E5355414C204E4F205041474F20B6
:1020F1004C4F434143494F4E20484F590053494E9D
:102101002050524553454E43494120564548494385
:10211100554C415220005441524A455441204E4FA2
:102121002045532044454C2050415251554541448E
:1021310045524F20004249454E56454E49444F2E87
:102141002050554C534520454C20424F544F4E2072
:10215100005441524A4554412053494E20464F5262
:102161004D41544F20004655455241204445204C95
:10217100494E45412000554E204D4F4D454E544F3F
:1021810020504F52204641564F5220004E4F20457D
:1021910053205441524A455441204D454E535541D7
:1021A1004C20005441524A45544120494E56414C1D
:1021B10049444120005441524A4554412053494E1B
:1021C1002053414C49444120005245474953545200
:1021D1004120494E475245534F20454E20504152D0
:1021E100515545414445524F20004D454E535541AF
:1021F1004C20465545524120444520484F524152BA
:10220100494F2000484F524152494F204E4F2050D4
:10221100524F4752414D41444F200053494E2054A3
:1022210041524A4554415320004249454E56454E7C
:1022310049444F20004E4956454C2042414A4F20C7
:102241004445205441524A455441532000613B3892
:10225100353B494E4752455345205441524A455416
:10226100410A0000613B38363B5441524A455441D2
:102271002053494E20494E475245534F0A000061B1
:102281003B38373B5441524A455441204E4F20522E
:1022910045474953545241205041474F0A0000617C
:1022A1003B38383B455843454445205449454D50FA
:1022B1004F204445204752414349410A0000613BB8
:1022C10038393B4D454E5355414C204E4F204553D7
:1022D100544120454E2050415251554541444552AB
:1022E1004F0A0000613B39303B444952494A41534E
:1022F1004520412043414A410A0000613B39313BBD
:10230100475241434941532E2E2E200A0000613B82
:1023110039333B4D454E5355414C204E4F2045538B
:10232100544120454E20504152515545414445525A
:102331004F0A0000613B39333B4D454E5355414CEB
:10234100204553544120454E20504152515545415D
:102351004445524F0A0000613B39343B4D454E53D1
:1023610055414C494441442056454E434944410A54
:102371000000613B39353B4D454E5355414C494475
:1023810041442045584345444520484F5241524914
:102391004F2041434552515545534520412043412A
:1023A1004A410A0000613B39363B4E4F20455320DC
:1023B1004D454E5355414C49444144204E492050CE
:1023C10052455041474F0A0000613B39373B4D456B
:1023D1004E5355414C204E4F205041474F204C4FBA
:1023E100434143494F4E20484F590A0000613B3950
:1023F100383B53494E2050524553454E43494120A5
:102401005645484943554C41520A0000613B393811
:102411003B5441524A455441204E4F20455320449C
:10242100454C20504152515545414445524F0A00B7
:1024310000613B30303B4249454E56454E49444F81
:102441002E2050554C534520454C20424F544F4E61
:102451000A0000613B39383B5441524A45544120FE
:1024610053494E20464F524D41544F0A0000613BA3
:1024710039383B4655455241204445204C494E454B
:10248100410A0000613B39383B554E204D4F4D45C7
:102491004E544F20504F52204641564F520A000091
:1024A100613B30383B4E4F204553205441524A4501
:1024B1005441204D454E5355414C0A0000613B3972
:1024C100383B5441524A45544120494E56414C49AA
:1024D10044410A0000613B39383B5441524A45545A
:1024E100412053494E2053414C4944410A00006167
:1024F1003B39383B524547495354524120494E4795
:102501005245534F20454E2050415251554541446B
:1025110045524F0A0000613B30373BA1204D454EEB
:102521005355414C494441442056454E4349444149
:1025310020210A0000613B30363B4D454E53554149
:102541004C20465545524120444520484F52415266
:10255100494F0A0000613B39383B53494E205441F1
:10256100524A455441530A0000613B39383B4E49B8
:1025710056454C2042414A4F204445205441524A3D
:10258100455441530A0000613B39383B484F5241A1
:1025910052494F204E4F2050524F4752414D4144D6
:1025A1004F0A0000613B39383B4143455251554583
:1025B100205355205441524A455441204445204E10
:1025C1005545564F0A0000613B30313B5245544955
:1025D1005245205355205441524A4554410A000066
:1025E100613B30333B4249454E56454E49444F0AC3
:1025F1000000613B39393B4C4F5445204153494719
:102601004E41444F2045535441204C4C454E4F0AB6
:10261100000057494547414E442000475241434934
:1026210041532000613B39323B57494547414E44B4
:1026310020000A0000613B39313B47524143494187
:10264100532000613B30333B4249454E56454E498C
:10265100444F200020504C414341000A00613B306F
:10266100373B20A1204D454E5355414C49444144EF
:102671002056454E4349444120212056454E434969
:102681004F20323000633B39303B00643B00AA806D
:1026910018010200AA8018010200000000000000D9
:1026A1000000000000000000000000000000000029
:1026B1000000000000000000000000000000000019
:0F26C1000000AA8028072000000000001400007D
:052D6000900018EFF0E7
:102D650078197C007D017BFF7A26798F7E007F06AE
:102D7500121B26C2879001ABE060030231257B015F
:102D85007A007919FD12B2AD900018E0121CD2310B
:102D950000012DE9552E09562E29572E49582E6921
:102DA500592E895A2EA95B2E695D2EC95E2EE95FC3
:102DB5002F09602F29612F49AA2F69AB2F89AC2FC5
:102DC500A9AD2FC9AE2FE9AF3009B03029B13049CF
:102DD500B23069B33089B530A9B630C2FA30E1FEF8
:102DE500000031227BFF7A1F79E112000E90001F4F
:102DF500EFF0E4FDFF12BA0C12BA037BFF7A1F79DC
:102E0500E102311D7BFF7A1F79F212000E90001F3F
:102E1500EFF0E4FDFF12BA0C12BA037BFF7A1F79BB
:102E2500F202311D7BFF7A20790712000E90001FF8
:102E3500EFF0E4FDFF12BA0C12BA037BFF7A20799A
:102E45000702311D7BFF7A20792112000E90001FA9
:102E5500EFF0E4FDFF12BA0C12BA037BFF7A20797A
:102E65002102311D7BFF7A20793A12000E90001F56
:102E7500EFF0E4FDFF12BA0C12BA037BFF7A20795A
:102E85003A02311D7BFF7A20795A12000E90001FFD
:102E9500EFF0E4FDFF12BA0C12BA037BFF7A20793A
:102EA5005A02311D7BFF7A20796B12000E90001FAC
:102EB500EFF0E4FDFF12BA0C12BA037BFF7A20791A
:102EC5007702311D7BFF7A20798212000E90001F58
:102ED500EFF0E4FDFF12BA0C12BA037BFF7A2079FA
:102EE5008202311D7BFF7A20799712000E90001F18
:102EF500EFF0E4FDFF12BA0C12BA037BFF7A2079DA
:102F05009702311D7BFF7A2079C412000E90001FB5
:102F1500EFF0E4FDFF12BA0C12BA037BFF7A2079B9
:102F2500C402311D7BFF7A2079E112000E90001F4B
:102F3500EFF0E4FDFF12BA0C12BA037BFF7A207999
:102F4500E102311D7BFF7A2079FE12000E90001FF1
:102F5500EFF0E4FDFF12BA0C12BA037BFF7A207979
:102F6500FE02311D7BFF7A21791712000E90001F9A
:102F7500EFF0E4FDFF12BA0C12BA037BFF7A217958
:102F85001702311D7BFF7A21793612000E90001F42
:102F9500EFF0E4FDFF12BA0C12BA037BFF7A217938
:102FA5003602311D7BFF7A21795212000E90001FE7
:102FB500EFF0E4FDFF12BA0C12BA037BFF7A217918
:102FC5005202311D7BFF7A21796712000E90001F96
:102FD500EFF0E4FDFF12BA0C12BA037BFF7A2179F8
:102FE5006702311D7BFF7A21797712000E90001F51
:102FF500EFF0E4FDFF12BA0C12BA037BFF7A2179D8
:103005007702311D7BFF7A21798D12000E90001F0A
:10301500EFF0E4FDFF12BA0C12BA037BFF7A2179B7
:103025008D02311D7BFF7A2179A412000E90001FBD
:10303500EFF0E4FDFF12BA0C12BA037BFF7A217997
:10304500A402311D7BFF7A2179B612000E90001F74
:10305500EFF0E4FDFF12BA0C12BA037BFF7A217977
:10306500B602311D7BFF7A2179CA12000E90001F2E
:10307500EFF0E4FDFF12BA0C12BA037BFF7A217957
:10308500CA02311D7BFF7A2179EB12000E90001FD9
:10309500EFF0E4FDFF12BA0C12BA037BFF7A217937
:1030A500EB02311D7BFF7A22790512000E90001F7D
:1030B500EFF012BA077BFF7A227905805B7BFF7AF6
:1030C50022791C12000E90001FEFF0E4FDFF12BAEA
:1030D5000C12BA037BFF7A22791C803C7BFF7A2293
:1030E500792A12000E90001FEFF0E4FDFF12BA0CD2
:1030F50012BA037BFF7A22792A801D7BFF7A227917
:103105003612000E90001FEFF0E4FDFF12BA0C120C
:10311500BA037BFF7A2279367D0112B2ADD28722BE
:10312500C287900018E0121CD23318013195553131
:10313500A45631B35731C25831D15931E05A31EF24
:103145005B31FE5D321C5E322B5F323A6032496183
:10315500320D63336C9A335E9C33349E3342A13215
:1031650058AA3267AB3276AC3285AD3294AE32A313
:10317500AF32B2B032C1B132D0B232DFB332EEB417
:1031850032FCB53326B6330AFA3350FE00003384D9
:1031950078207C007D017BFF7A22794E0233787896
:1031A500207C007D017BFF7A2279650233787820C7
:1031B5007C007D017BFF7A22798002337878207C40
:1031C500007D017BFF7A2279A002337878207C008C
:1031D5007D017BFF7A2279BF02337878207C007DE0
:1031E500017BFF7A2279E502337878207C007D0126
:1031F5007BFF7A2279FC02337878207C007D017B85
:10320500FF7A23790F02337878207C007D017BFFDC
:103215007A23793502337878207C007D017BFF7A2B
:1032250023795802337878207C007D017BFF7A234F
:10323500797302337878207C007D017BFF7A2379CE
:10324500A602337878207C007D017BFF7A2379CA3A
:1032550002337878207C007D017BFF7A2379EE02AA
:10326500337878207C007D017BFF7A24790D023349
:103275007878207C007D017BFF7A247932023378CF
:1032850078207C007D017BFF7A247954023378789D
:10329500207C007D017BFF7A24796F0233787820CA
:1032A5007C007D017BFF7A24798502337878207C48
:1032B500007D017BFF7A2479A102337878207C0098
:1032C5007D017BFF7A2479BE02337878207C007DEE
:1032D500017BFF7A2479D602337878207C007D0142
:1032E5007BFF7A2479F002337878207C007D017B9E
:1032F500FF7A257917807C78207C007D017BFF7A19
:10330500257936806E78207C007D017BFF7A2579D2
:1033150056806078207C007D017BFF7A25796A8064
:103325005278207C007D017BFF7A2579888044785E
:10333500207C007D017BFF7A2579A5803678207C6D
:10334500007D017BFF7A2579C8802878207C007D67
:10335500017BFF7A2579E1801A78207C007D017B4D
:10336500FF7A2579F3800C78207C007D017BFF7A3C
:10337500257936121F5F7B017A00792012A5DAE4E0
:06338500900020F0D28749
:01338B00221F
:0E4B7100900011EFF0A3EBF0A3EAF0A3E9F03F
:104B7F0078157C007D017BFF7A2679957E007F0674
:104B8F00121B26781C7C007D017BFF7A26799B7E89
:104B9F00007F28121B26C2879001ABE06003024CF6
:104BAF0048900011E024A56040146003024C4512A8
:104BBF00B2A57BFF7A26791312000E90001BEFF03F
:104BCF00900012E0FBA3E0FAA3E0F912000E9000B0
:104BDF001BE02F04F0E4FDFF12BA0C90001B12BA79
:104BEF00067BFF7A267913803812B2A57BFF7A26CF
:104BFF00791C12000E90001BEFF0900012E0FBA347
:104C0F00E0FAA3E0F912000E90001BE02F04F0E48D
:104C1F00FDFF12BA0C90001B12BA067BFF7A2679A1
:104C2F001C7D0112B2AD900012E0FBA3E0FAA3E0ED
:104C3F00F97D0112B2ADD28722C287900011E02414
:104C4F00A5602F24C07003024D0D24FE7003024D8A
:104C5F00C724E97003024D5424B6602524A26003D3
:104C6F00024E0E781C7C007D017BFF7A267925028F
:104C7F004D19781C7C007D017BFF7A267936024D19
:104C8F0060781C7C007D017BFF7A26794412A5D1C8
:104C9F0020100B12AF8A781C7C007D018011781CCC
:104CAF007C007D01900012E0FBA3E0FAA3E0F91273
:104CBF00A5D1781C7C007D017BFF300B377A2679DC
:104CCF0055121F5F900049E4F0A37400F0A3741114
:104CDF00F07B017A00791C12ABA590004974FFF0AC
:104CEF00A37426F0A37433F07B017A00791C12AB06
:104CFF00A5024E0B7A26795C121F5F024E0B781CB1
:104D0F007C007D017BFF7A267944121F5F90001291
:104D1F00E0F9A3E0FAA3E0900049C9F0A3EAF0A3F9
:104D2F00E9F07B017A00791C12ABA590004974FF62
:104D3F00F0A37426F0A37433F07B017A00791C1270
:104D4F00ABA5024E0B781C7C007D017BFF7A267988
:104D5F005E121F5F900012E0FBA3E0FAA3E0F912CE
:104D6F00000E90001BEFF024FFFFE434FFFE9000D5
:104D7F0012E0FBA3E0FAA3E0F98F828E83E4121B0B
:104D8F00A4900012E0F9A3E0FAA3E0900049C9F063
:104D9F00A3EAF0A3E9F07B017A00791C12ABA5908E
:104DAF00004974FFF0A37426F0A37433F07B017AEB
:104DBF0000791C12ABA58044781C7C007D017BFF21
:104DCF007A267986121F5F900012E0F9A3E0FAA30A
:104DDF00E0900049C9F0A3EAF0A3E9F07B017A0063
:104DEF00791C12ABA590004974FFF0A37426F0A3B1
:104DFF007433F07B017A00791C12ABA512A5D4E4B1
:064E0F0090001CF0D287A8
:014E1500227A
:09BA030090001FE025E0FFE4FDC6
:05BA0C0090004DEDF07B
:10BA110012B4F090004EEFF090004DE0600AE4FFA8
:08BA210012B4F090004EEFF0AA
:01BA290022FA
:08B2A5007B017A007915E4FD3C
:0EB2AD00900048EBF0A3EAF0A3E9F0A3EDF067
:10B2BB00E4A3F0900048E0FBA3E0FAA3E0F99000D0
:10B2CB004CE0F582758300121B65FF601090004BFC
:0DB2DB00E0FD12BA0C90004CE004F080D6AB
:01B2E8002243
:0EB2190090001EEBF0A3EAF0A3E9F0A3EDF025
:10B22700E4900023F0900021E0FF900023E0FEC3AC
:10B237009F502490001EE0FBA3E0FAA3E0F98E8262
:10B24700758300121B65FF900022E0FD12BA0C9077
:07B257000023E004F080CEAB
:01B25E0022CD
:09A5D100121F5F7B017A00791C66
:0BA5DA00900048EBF0A3EAF0A3E9F0CA
:10A5E50012000E90004CEFF0E490004BF090004C00
:10A5F500E0FF90004BE0C39F503DE490004DF0908C
:10A60500004DE0C39464748094805005E004F080AC
:10A61500EE900048E0FBA3E0FAA3E0F9A3E0F582A1
:10A62500758300121B65FF12B4F090004DEFF0909A
:10A63500004BE004F080B6E490004DF090004DE052
:0EA64500C39464748094805005E004F080EEAD
:01A6530022E4
:10A9580078117C007D017BFF7A2679C37E007F0D0C
:10A96800121B269001ABE07022C2877B017A007926
:10A9780016128D98C29C7B017A007911E49000220E
:10A98800F07D0D12B219D29CD28722C287E49000C2
:10A9980011F078117C007D017BFF7A26798C121FDB
:10A9A8005F7B017A00791312611790004974FFF0F8
:10A9B800A37426F0A37433F07B017A00791112ABEB
:0CA9C800A57B017A00791112A5DAD28774
:01A9D4002260
:10002600402321246046625E262A003A5B3C253F37
:1000360058545D3D29000D0A0A25733E20002563AC
:10004600002564000D0A0A2041435455414C2049BD
:10005600445F434C49454E54453D25730D0A0A00FD
:100066000D0A0A20444947495445205355204E5508
:1000760045564F2049445F434C49454E54453D0043
:100086000D0A0A204441544F204D4F4449464943E6
:1000960041444F2049445F434C49454E54453D2514
:1000A600730D0A0A000D0A0A2041435455414C209B
:1000B600434F445F5041524B3D25730D0A0A000DD4
:1000C6000A0A20444947495445205355204E554570
:1000D600564F20434F445F5041524B3D000D0A0A94
:1000E600204441544F204D4F444946494341444FD3
:1000F60020434F445F5041524B3D25730D0A0A0081
:100106000D0A0A2041435455414C205449454D504F
:100116004F5F4752414349413D25730D0A0A000D81
:100126000A0A20444947495445205355204E55450F
:10013600564F205449454D504F5F47524143494120
:100146003D000D0A0A204441544F204D4F44494674
:10015600494341444F205449454D504F5F47524112
:100166004349413D25730D0A0A000D0A0A20414301
:100176005455414C2053494E5F434F42524F2049FC
:100186004E484142494C495441444F3D25730D0A5E
:100196000A000D0A0A2041435455414C2053494E4A
:1001A6005F434F42524F204752415449533D2573B6
:1001B6000D0A0A000D0A0A2041435455414C2053AA
:1001C600494E5F434F42524F2047524154495320B4
:1001D600592053414C49444120454C204D49534DEB
:1001E6004F204449413D25730D0A0A000D0A0A2095
:1001F600444947495445205355204E5545564F20AE
:1002060053494E5F434F42524F3D000D0A0A20416B
:10021600435455414C20444542554720494E484198
:1002260042494C495441444F3D25730D0A0A000D7D
:100236000A0A2041435455414C2044454255472023
:10024600484142494C495441444F3D25730D0A0AE1
:10025600000D0A0A2044494749544520454C204E82
:100266005545564F2045535441444F20444520445C
:10027600454255473D000D0A0A2041435455414C1D
:10028600205553455F4C505220494E484142494CF7
:10029600495441444F3D25730D0A0A000D0A0A20B0
:1002A60041435455414C205553455F4C50522048CC
:1002B6004142494C495441444F3D25730D0A0A00B9
:1002C6000D0A0A2044494749544520454C204E55BD
:1002D60045564F2045535441444F204445205553DD
:1002E600455F4C50523D000D0A0A2050414E544184
:1002F6004C4C41204C434420484142494C495441CE
:1003060044413D25730D0A0A000D0A0A2050414E4C
:1003160054414C4C4120524153504245525259206F
:1003260020484142494C49544144413D25730D0AF8
:100336000A000D0A0A2044494749544520454C20E5
:100346004E5545564F2045535441444F2044452071
:100356004C412050414E54414C4C41203D000D0A29
:100366000A2041435455414C20434F4D5041524180
:1003760043494F4E2041435449564120204841426B
:10038600494C49544144413D25730D0A0A000D0A62
:100396000A20455850494445205441524A45544143
:1003A6002050554C53414E444F20424F544F4E0D12
:1003B6000A0A000D0A0A204558504944452054416E
:1003C600524A455441204155544F4D4154494341A9
:1003D6000D0A0A000D0A0A2044494749544520459A
:1003E6004C204E5545564F2045535441444F2044CA
:1003F600454C20455850454449444F523D000D0A4E
:100406000A2041435455414C20414E5449504153D2
:10041600534241434B20494E484142494C4954417D
:10042600444F3D25730D0A0A000D0A0A2041435424
:1004360055414C20414E5449504153534241434B40
:1004460020484142494C495441444F3D25730D0AC9
:100456000A000D0A0A2044494749544520454C20C4
:100466004E5545564F2045535441444F2044452050
:10047600414E5449504153534241434B3D000D0AAE
:100486000A2041435455414C20504C414341204998
:100496004E484142494C495441444F3D25730D0A4B
:1004A6000A000D0A0A2041435455414C20504C4144
:1004B600434120484142494C495441444F3D2573EC
:1004C6000D0A0A000D0A0A204449474954452045A9
:1004D6004C204E5545564F2045535441444F2044D9
:1004E6004520504C4143413D000D0A0A20414354EA
:1004F60055414C20414444524553535F484947486F
:100506005F424F4152443D25730D0A0A000D0A0A07
:1005160020444947495445204C41204E55455641B3
:1005260020414444524553535F484947485F424F30
:100536004152443D000D0A0A2041435455414C2086
:10054600484F524152494F20494E484142494C4931
:100556005441444F3D25730D0A0A000D0A0A2041F5
:10056600435455414C20484F524152494F2048412F
:1005760042494C495441444F3D25730D0A0A000D2A
:100586000A0A2044494749544520454C204E5545C2
:10059600564F2045535441444F20444520484F521E
:1005A6004152494F3D000D0A0A2044696769746546
:1005B60020486F72612030383A3030204D696E75B0
:1005C600746F732044657364653A20000D0A0A202F
:1005D600486F72612050726F6772616D616461204D
:1005E60044657364653A200025633A000D0A0A20C3
:1005F60044696769746520486F72613A4D696E7522
:10060600746F732048617374613A20000D0A0A20E2
:10061600486F72612050726F6772616D616461200C
:1006260048617374613A20000D0A2044657364655D
:10063600202048617374610D0A002025630025633C
:10064600202020000D0A0A20446967697465206C21
:100656006F73206469617320612070726F677261C5
:100666006D6172204C756E6573203D20322C200022
:100676004D6172746573203D20332C204D6965727F
:10068600636F6C6573203D20342C204A7565766552
:1006960073203D20352C2000566965726E657320E7
:1006A6003D20362C2053616261646F203D20372C3B
:1006B60020446F6D696E676F203D2031203A20001F
:1006C6000D0A0A20446961732050726F6772616D6A
:1006D60061646F73203A2000204C756E6573003D8F
:1006E6002025632C00204D617274657300204D69CE
:1006F6006572636F6C657300204A75657665730075
:1007060020566965726E6573002053616261646F7D
:100716000020446F6D696E676F003D2025630020E1
:100726004C756E6573203D2050726F6772616D6106
:10073600646F0D0A00204C756E6573203D204E6F68
:100746002070726F6772616D61646F0D0A00204DD3
:100756006172746573203D2050726F6772616D61BE
:10076600646F0D0A00204D6172746573203D204E42
:100776006F2070726F6772616D61646F0D0A002081
:100786004D696572636F6C6573203D2050726F67AB
:1007960072616D61646F0D0A00204D696572636F49
:1007A6006C6573203D204E6F2070726F6772616DAD
:1007B60061646F0D0A00204A7565766573203D20D9
:1007C60050726F6772616D61646F0D0A00204A7521
:1007D60065766573203D204E6F2070726F6772617B
:1007E6006D61646F0D0A0020566965726E6573202F
:1007F6003D2050726F6772616D61646F0D0A002053
:10080600566965726E6573203D204E6F2070726F5B
:100816006772616D61646F0D0A00205361626164E5
:100826006F203D2050726F6772616D61646F0D0AB3
:10083600002053616261646F203D204E6F2070720C
:100846006F6772616D61646F0D0A0020446F6D6998
:100856006E676F203D2050726F6772616D61646FC5
:100866000D0A0020446F6D696E676F203D204E6F44
:100876002070726F6772616D61646F0D0A000D0AF8
:100886000A2044696769746520656C206E756D651C
:10089600726F2064656C20486F726172696F2061A7
:1008A6002070726F6772616D6172203D20000D0AC3
:1008B6000A2050726F6772616D6172207365677589
:1008C6006E646F20486F726172696F2073693D288C
:1008D6003129206E6F3D2830293D20000D0A0A205F
:1008E60041435455414C205449504F5F5645484961
:1008F60043554C4F204D454E5355414C20494E488B
:100906004142494C495441444F3D25730D0A0A0062
:100916000D0A0A2041435455414C205449504F5F1B
:100926005645484943554C4F204D454E5355414C2D
:1009360020484142494C495441444F3D25730D0AD4
:100946000A000D0A0A2044494749544520454C20CF
:100956004E5545564F2045535441444F204445205B
:100966005449504F5F5645484943554C4F204D45D5
:100976004E5355414C3D000D0A0A20414354554102
:100986004C205449504F5F5645484943554C4F20DB
:10099600204D454E5355414C20484142494C4954FF
:1009A60041444F3D25730D0A0A000D0A0A204143B2
:1009B6005455414C20414E544950415353424143B2
:1009C6004B204D454E5355414C20494E48414249D6
:1009D6004C495441444F3D25730D0A0A000D0A0A3D
:1009E6002041435455414C20414E544950415353A4
:1009F6004241434B204D454E5355414C20484142C0
:100A0600494C495441444F3D25730D0A0A000D0ACD
:100A16000A2044494749544520454C204E554556E1
:100A26004F2045535441444F20444520414E54499C
:100A3600504153534241434B204D454E5355414C33
:100A46003D000D0A0A2041435455414C20414E5465
:100A560049504153534241434B20204D454E535537
:100A6600414C20484142494C495441444F3D25732D
:100A76000D0A0A000D0A0A2041435455414C2046EE
:100A8600454348412056454E43494D49454E544FEE
:100A96002050415353574F52443A25730D0A0A00CA
:100AA6000D0A0A2F3E496420526567697374726F96
:100AB6003A002573000D0A0A2F3E50617373776F53
:100AC60072643A000D0A0A20444947495445204CAD
:100AD60041204E5545564120464543484120444510
:100AE6002056454E43494D49454E544F3D000D0A4B
:100AF6000A2025730D0A0A000D0A0A202558000D42
:100B06000A0A2041435455414C204645434841205A
:100B160044452056454E43494D49454E544F205075
:100B2600524F4752414D414441203D25730D0A0A1B
:100B3600000D0A206E756D65726F2064656C204825
:100B46006F726172696F202070726F6772616D617A
:100B5600646F203D2025630D0A000D0A2020484FB2
:100B6600524152494F20484142494C495441444F11
:100B760020203D204F4E0D0A000D0A204469617366
:100B86002050726F6772616D61646F730D0A000D9C
:100B96000A2020534547554E444F20484F52415254
:100BA600494F20484142494C495441444F20203D39
:100BB600204F4E0D0A000D0A20534547554E444F0F
:100BC60020484F524152494F20484142494C4954CE
:100BD60041444F20203D204F46460D0A000D0A2075
:100BE60020484F524152494F20484142494C4954AE
:100BF60041444F20203D204F46460D0A000D0A0A6B
:100C06002041435455414C204D454E5355414C20AF
:100C1600504F5220424F434120494E484142494C91
:100C2600495441444F3D25730D0A0A000D0A0A2016
:100C360041435455414C204D454E5355414C20504F
:100C46004F5220424F434120484142494C4954416A
:100C5600444F3D25730D0A0A000D0A0A20444947F0
:100C660049544520454C204E5545564F2045535432
:100C760041444F2044454C204D454E5355414C3D33
:100C8600000D0A2049445F434C49454E54455F5088
:100C9600524F4752414D41444F203D2025730D0A86
:100CA600000D0A20434F445F5041524B5F50524F54
:100CB6004752414D41444F203D2025730D0A000DFA
:100CC6000A2050524F4752414D41444F204445421D
:100CD6005547203D204F4E0D0A000D0A2050524F19
:100CE6004752414D41444F204445425547203D20FF
:100CF6004F46460D0A000D0A205553455F4C50528B
:100D0600203D204F46460D0A000D0A205553455FEB
:100D16004C5052203D204F4E0D0A000D0A205041E6
:100D26004E54414C4C41204C43442050524F475264
:100D3600414D4144410D0A000D0A2050414E544197
:100D46004C4C41205241535042455252592020505A
:100D5600524F4752414D4144410D0A000D0A20456C
:100D66005850494445205441524A45544120505513
:100D76004C53414E444F20424F544F4E0D0A000DE6
:100D86000A20455850494445205441524A45544149
:100D9600204155544F4D41544943410D0A000D0A17
:100DA6002020414E5449504153534241434B203D2C
:100DB600204F46460D0A000D0A20414E5449504127
:100DC60053534241434B203D204F4E0D0A000D0A1E
:100DD60020504C414341203D204F46460D0A000D10
:100DE6000A20504C414341203D204F4E0D0A000D34
:100DF6000A2041435455414C2041444452455353E3
:100E06005F484947485F424F415244203D20257381
:100E16000D0A000D0A205449504F5F564548494374
:100E2600554C4F204D454E5355414C203D204F4685
:100E3600460D0A000D0A205449504F5F5645484951
:100E460043554C4F204D454E5355414C203D204F68
:100E56004E0D0A000D0A20414E544950415353424B
:100E660041434B204D454E5355414C203D204F4666
:100E7600460D0A000D0A2020414E54495041535355
:100E86004241434B204D454E5355414C203D204F4A
:100E96004E0D0A000D0A4D454E5355414C20504FFC
:100EA6005220424F4341203D204F46460D0A000D39
:100EB6000A20204D454E5355414C20504F5220425A
:100EC6004F4341203D204F4E0D0A000D0A2041435D
:100ED6005455414C204645434841204445205645FB
:100EE6004E43494D49454E544F2050524F4752416B
:100EF6004D414441203D25730D0A000D0A204E75D3
:100F06006D65726F206465207469636B6574203D3E
:100F160025730D0A000D0A2049445F434C49454E8E
:100F260054452020202020202020202D2D2D204318
:100F36004D442030204964656E7469666963616456
:100F46006F722064656C20636C69656E7465206DD4
:100F56006178696D6F20323535000D0A20434F44A4
:100F66005F5041524B20202020202020202020208E
:100F76002D2D2D20434D44203120456C206E756D5E
:100F860065726F2064656C2070617271756561644D
:100F960065726F206D6178696D6F20323535000D91
:100FA6000A20545F475241434941202020202020F7
:100FB60020202020202D2D2D20434D44203220544A
:100FC60069656D706F2073696E20636F62726F2042
:100FD60030302C20206D6178696D6F2032353500F8
:100FE6000D0A2053494E5F434F42524F2020202086
:100FF6002020202020202D2D2D20434D442033203D
:10100600496E686162696C697461646F3D20302C59
:10101600204772617469733D2031202C204772612C
:1010260074697320792073616C69646120656C2032
:101036006D69736D6F206469613D2032000D0A2071
:1010460044454255472020202020202020202020D3
:101056002020202D2D2D20434D4420342048616230
:10106600696C69746172203D20312C20496E68617B
:1010760062696C69746172203D2030000D0A20554A
:1010860053455F4C50522020202020202020202035
:1010960020202D2D2D20434D4420352048616269A6
:1010A6006C69746172203D20312C20496E68616242
:1010B600696C69746172203D2030000D0A20544924
:1010C600504F5F50414E54414C4C4120202020202F
:1010D600202D2D2D20434D4420362050414E544185
:1010E6004C4C41204C4344203D302050414E54410D
:1010F6004C4C41205241535042455252493D3100D9
:101106000D0A20434152445F4155544F4D415449C5
:101116004341202020202D2D2D20434D44203720D3
:10112600424F54544F4E3D30204155544F4D41543B
:101136004943413D31000D0A20414E544950415327
:10114600534241434B202020202020202D2D2D20AE
:10115600434D44203820486162696C69746172208D
:101166003D20312C20496E686162696C6974617238
:10117600203D2030000D0A20504C414341202020C4
:1011860020202020202020202020202D2D2D20430F
:101196004D44203920486162696C69746172203D52
:1011A60020312C20496E686162696C697461722015
:1011B6003D2030000D0A20414444524553535F48B8
:1011C6004947485F424F415244202D2D2D20434D23
:1011D60044203130204C6120646972656363696F15
:1011E6006E20616C74612064656C20626F6172644C
:1011F6002064656C206E756D65726F203520616C9C
:1012060020392073696E6F207365207573612064C1
:1012160065626520697220656E2030000D0A2048DF
:101226004F524152494F20202020202020202020AC
:1012360020202D2D2D20434D442031312050726F1A
:1012460067616D6120313020686F726172696F73FA
:101256002064656C203120616C203130000D0A203D
:1012660056414C4944415F564548495F4D454E53AA
:1012760055414C2D2D2D20434D44203132204861BF
:1012860062696C69746172203D20312C20496E6858
:101296006162696C69746172203D2030000D0A201C
:1012A6005553455F4150425F4D454E5355414C2085
:1012B6002020202D2D2D20434D4420313320486100
:1012C60062696C69746172203D20312C20496E6818
:1012D6006162696C69746172203D2030000D0A20DC
:1012E6004D454E5355414C455309090920202020B0
:1012F600202D2D2D20434D44203134204861626934
:101306006C69746172203D20312C20496E686162DF
:10131600696C69746172203D2030000D0A205645C3
:10132600525F50524F4752414D4143494F4E202044
:10133600202D2D2D20434D44203135204D756573CC
:10134600747261206C612070726F6772616D616387
:10135600696F6E000D0A2041595544412020202016
:10136600202020202020202020202D2D2D20434D00
:1013760044203136204D756573747261206C6F732D
:1013860020636F6D616E646F73000D0A2053414CCC
:1013960049522020202020202020202020202020EC
:1013A6002D2D2D20434D442031372053616C697219
:1013B6002064652070726F6772616D6163696F6E1C
:1013C600000D0A0A53697374656D612064652050C7
:1013D600726F6772616D6163696F6E2045787065C3
:1013E6006469646F72200D0A0D0A000D0A56616C5D
:1013F6006964616E646F20436F6D616E646F730024
:101406000D0A436F6D616E646F206E6F206578699B
:101416007374652027257327003A5B3C253F585493
:101426005D3D2900232A594A41494D4563616D694D
:101436006C744B0077727A32357136382D393166D5
:10144600532E4000200D0A00200D0A00220D0A002E
:108746005401C52F000000000000000000000000DA
:10875600000000000000004B01BA61646D696E0004
:108766000000000000603901D930000031000032FD
:1087760000003300003400003500003600003700EA
:10878600003800003900003130003131003132004C
:1087960031330031340031350031360031370031A4
:0287A600380099
:0B55630090005DEBF0A3EAF0A3E9F07C
:10556E0078627C007D017BFF7A14791F7E007F0BB1
:10557E00121B26786D7C007D017BFF7A14792A7EC2
:10558E00007F10121B26787D7C007D017BFF7A1434
:10559E00793A7E007F10121B267B017A0079987F64
:1055AE00507E0312AC107B017A007998128CCFEFEB
:1055BE003395E0FEEF64014E78627C007D017BFF47
:1055CE0060067A00792680047A007931121F5F9086
:1055DE00005DE0FBA3E0FAA3E0F912000E9000607C
:1055EE00EFF0E4A3F0900061E0FFC3940A7480949E
:1055FE0080400302575590005DE0FBA3E0FAA3E064
:10560E00F98F82758300121B65FD7C0074622FF585
:10561E0082E43400F583E02DFFEC339001B6F0A365
:10562E00EFF07E00540FFFA3EEF0A3EFF0700BE04F
:10563E0004F070069001B8E004F09001B8E0FEA30B
:10564E00E0246CF58274003EF583E07E002DFFEEC3
:10565E003C9001B6F0A3EFF07E00540FFFA3EEF0E6
:10566E00A3EFF0700BE004F070069001B8E004F0C8
:10567E009001B8E0FEA3E0247CF58274003EF58331
:10568E00E0FF9001B6E0FEA3E06FFF9001B6EEF0F2
:10569E00FEA3EFF0D394FFEE940040059001B6E424
:1056AE00F09001B6E0FEA3E0FFC3947AEE940040C2
:1056BE0015D3EF94FFEE9400500CEF547AFF900147
:1056CE00B6E4F0A3EFF0C39001B7E094309001B6CA
:1056DE00E09400500CA3E02440F09001B6E03400BA
:1056EE00F09001B6E0FEA3E0FFC3945BEE940040A1
:1056FE0014D3EF9460EE9400500BE02407F0900169
:10570E00B6E03400F09001B6E0FEA3E0FFC3943A99
:10571E00EE94004014D3EF9440EE9400500BE0242E
:10572E00F9F09001B6E034FFF09001B6A3E0FF90DF
:10573E000061E0248DF582E43400F583EFF09000F3
:10574E0061E004F00255F3900061E0248DF582E4EF
:0C575E003400F583E4F07B017A00798DC3
:01576A00221C
:0BAC7600900046EBF0A3EAF0A3E9F029
:10AC8100E490004CF090004CE0FFC3941374809466
:10AC9100805041EF75F003A424D9F9740135F0FA1D
:10ACA1007B0178497C007D01121F5F78497C007D22
:10ACB10001900046E0FBA3E0FAA3E0F9121E76EF53
:10ACC1003395E04F700690004CE0FF2290004CE07D
:06ACD10004F080B17FFFDA
:01ACD700225A
:08B32C00E0FBA3E0FAA3E0F945
:0BB3340090005DEBF0A3EAF0A3E9F04D
:10B33F0078607C007D017B017A0179BA121F5F78FA
:10B34F00607C007D0190005DE0FBA3E0FAA3E0F9D3
:0EB35F00121E76EF3395E04F7002FF227FFF43
:01B36D0022BD
:06B431007B017A00793274
:0BB4370090005DEBF0A3EAF0A3E9F049
:10B4420078607C007D017BFF7A14794A7E007F045C
:10B45200121B269000677401F0A37400F0A37460BD
:0FB46200F090005DE0FBA3E0FAA3E0F902839015
:109EDA00E0FBA3E0FAA3E02FF9EA3EFAE92401F94C
:039EEA00E43AFA5D
:0B9EED00900046EBF0A3EAF0A3E9F0C0
:109EF80078497C007D017BFF7A14794E7E007F04CF
:109F0800121B26784D7C007D017BFF7A1479527EE6
:109F1800007F04121B26900046E0FBA3E0FAA3E0B2
:109F2800F9121B4CFFB4200C900047E475F00112A5
:109F38001BD880E2EF900067B4220D7401F0A3747F
:109F480000F0A3744DF080167401F0A37400F0A320
:109F58007449F0900046E0FBA3E0FAA3E0F912830D
:019F68009068
:019F690022D5
:10BB670090007A7401F0A37401F0A374C5F07BFF11
:07BB77007A00793C023E0A4E
:08A7D8007A0079637B01E4FDC6
:0EA7E000900071EBF0A3EAF0A3E9F0A3EDF016
:10A7EE0012BC7D900071E0FBA3E0FAA3E0F9EF123A
:10A7FE001B92900074E0701D900071E0FBA3E0FAD4
:10A80E00A3E0F9121B4C90007AF07BFF7A0079449A
:10A81E00123E0A80057F2A12B4F0900071E0FBA36D
:10A82E00E0FAA3E0F9121B4CFF7E00900072E47573
:10A83E00F001121BD8900071E0FBA3E0FAA3E0F93F
:09A84E00E4121B92EF640D7097F7
:01A8570022DE
:10938F00E4FDFC7FA812B5AD7E00900050EEF0A377
:10939F00EFF090007A74FFF0A37400F0A37447F01D
:1093AF00A3EEF0A3EFF07B017A007946123E049012
:1093BF00007A7401F0A37400F0A37446F07BFF7A77
:1093CF0000794A123E0A7BFF7A007966123E0A7ACA
:1093DF0000794612A7DC7B017A00794612862E901F
:1093EF000050EEF0A3EFF0FBE4FDFC7FA812AE629D
:1093FF00E4FDFC7FA812B5AD7E00900050EEF0A307
:10940F00EFF090007A74FFF0A37400F0A37447F0AC
:10941F00A3EEF0A3EFF07B017A007946123E0490A1
:10942F00007A7401F0A37400F0A37446F07BFF7A06
:06943F00007986023E0ADE
:10909F007D027C007FA812B5AD7E00900050EEF0EF
:1090AF00A3EFF090007A74FFF0A37400F0A374475D
:1090BF00F0A3EEF0A3EFF07B017A007946123E04A5
:1090CF0090007A7401F0A37400F0A37446F07BFF54
:1090DF007A0079AB123E0A7BFF7A0079C5123E0AFD
:1090EF007B017A007946E4FD12A7E07B017A0079D3
:1090FF004612862E900050EEF0A3EFF0FB7D027C1F
:10910F00007FA812AE627D027C007FA812B5AD7EF3
:10911F0000900050EEF0A3EFF090007A74FFF0A3F0
:10912F007400F0A37447F0A3EEF0A3EFF07B017A85
:10913F00007946123E0490007A7401F0A37400F097
:0D914F00A37446F07BFF7A0079E3023E0A2C
:10915C007D047C007FA812B5AD7E00900050EEF02F
:10916C00A3EFF090007A74FFF0A37400F0A374479F
:10917C00F0A3EEF0A3EFF07B017A007946123E04E7
:10918C0090007A7401F0A37400F0A37446F07BFF96
:10919C007A017906123E0A7BFF7A017925123E0A82
:1091AC007B017A007946E4FD12A7E07B017A007915
:1091BC004612862E900050EEF0A3EFF0FB7D047C5F
:1091CC00007FA812AE627D047C007FA812B5AD7E34
:1091DC0000900050EEF0A3EFF090007A74FFF0A333
:1091EC007400F0A37447F0A3EEF0A3EFF07B017AC8
:1091FC00007946123E0490007A7401F0A37400F0DA
:0D920C00A37446F07BFF7A017948023E0A08
:1069FA007D067C007FA812B5AD7E00900050EEF0B7
:106A0A00A3EFF090007A74FFF0A37400F0A3744728
:106A1A00F0A3EEF0A3EFF07B017A007946123E0470
:106A2A00900050E07002A3E0701590007A04F0A381
:106A3A007400F0A37446F07BFF7A01797080359078
:106A4A000050E07004A3E06401701590007A04F02D
:106A5A00A37400F0A37446F07BFF7A01799880143E
:106A6A0090007A7401F0A37400F0A37446F07BFFDF
:106A7A007A0179BA123E0A7BFF7A0179F2123E0A4A
:106A8A007B017A007946E4FD12A7E07B017A00795E
:106A9A004612862E900050EEF0A3EFF0FB7D067CA6
:106AAA00007FA812AE627D067C007FA812B5AD7E7B
:106ABA0000900050EEF0A3EFF090007A74FFF0A37C
:106ACA007400F0A37447F0A3EEF0A3EFF07B017A11
:106ADA00007946123E04900050E07002A3E070155F
:106AEA0090007A04F0A37400F0A37446F07BFF7A56
:106AFA000179708035900050E07004A3E064017061
:106B0A001590007A04F0A37400F0A37446F07BFF9A
:106B1A007A017998801490007A7401F0A37400F0D5
:0D6B2A00A37446F07BFF7A0179BA123E0A8F
:016B3700223B
:1078E5007D087C007FA812B5AD7E00900050EEF0BB
:1078F500A3EFF090007A74FFF0A37400F0A374472F
:10790500F0A3EEF0A3EFF07B017A007946123E0476
:10791500900050E07002A3E0701590007A04F0A387
:107925007400F0A37446F07BFF7A027911801490FD
:10793500007A7401F0A37400F0A37446F07BFF7A1B
:10794500027935123E0A7BFF7A027957123E0A7B8D
:10795500017A007946E4FD12A7E07B017A007946B9
:1079650012862E900050EEF0A3EFF0FB7D087C0010
:107975007FA812AE627D087C007FA812B5AD7E009F
:10798500900050EEF0A3EFF090007A74FFF0A3742E
:1079950000F0A37447F0A3EEF0A3EFF07B017A00AB
:1079A5007946123E04900050E07002A3E0701590F5
:1079B500007A04F0A37400F0A37446F07BFF7A020A
:1079C5007911801490007A7401F0A37400F0A37407
:0B79D50046F07BFF7A027935123E0A73
:0179E0002284
:1079E1007D0A7C007FA812B5AD7E00900050EEF0BC
:1079F100A3EFF090007A74FFF0A37400F0A3744732
:107A0100F0A3EEF0A3EFF07B017A007946123E0479
:107A1100900050E07002A3E0701590007A04F0A38A
:107A21007400F0A37446F07BFF7A02797C80149095
:107A3100007A7401F0A37400F0A37446F07BFF7A1E
:107A41000279A2123E0A7BFF7A0279C6123E0A7BB4
:107A5100017A007946E4FD12A7E07B017A007946BC
:107A610012862E900050EEF0A3EFF0FB7D0A7C0011
:107A71007FA812AE627D0A7C007FA812B5AD7E00A0
:107A8100900050EEF0A3EFF090007A74FFF0A37431
:107A910000F0A37447F0A3EEF0A3EFF07B017A00AE
:107AA1007946123E04900050E07002A3E0701590F8
:107AB100007A04F0A37400F0A37446F07BFF7A020D
:107AC100797C801490007A7401F0A37400F0A3749F
:0B7AD10046F07BFF7A0279A2123E0A09
:017ADC002287
:107ADD007D0E7C007FA812B5AD7E00900050EEF0BB
:107AED00A3EFF090007A74FFF0A37400F0A3744735
:107AFD00F0A3EEF0A3EFF07B017A007946123E047D
:107B0D00900050E07002A3E0701590007A04F0A38D
:107B1D007400F0A37446F07BFF7A0279ED80149027
:107B2D00007A7401F0A37400F0A37446F07BFF7A21
:107B3D0003790F123E0A7BFF7A037938123E0A7BD6
:107B4D00017A007946E4FD12A7E07B017A007946BF
:107B5D0012862E900050EEF0A3EFF0FB7D0E7C0010
:107B6D007FA812AE627D0E7C007FA812B5AD7E009F
:107B7D00900050EEF0A3EFF090007A74FFF0A37434
:107B8D0000F0A37447F0A3EEF0A3EFF07B017A00B1
:107B9D007946123E04900050E07002A3E0701590FB
:107BAD00007A04F0A37400F0A37446F07BFF7A0210
:107BBD0079ED801490007A7401F0A37400F0A37431
:0B7BCD0046F07BFF7A037964123E0A49
:017BD800228A
:108F1F007D0F7C007FA812B5AD7E00900050EEF063
:108F2F00A3EFF090007A74FFF0A37400F0A37447DE
:108F3F00F0A3EEF0A3EFF07B017A007946123E0426
:108F4F00900050E07002A3E07BFF70067A037994E3
:108F5F0080047A0379B9123E0A7BFF7A0379DA1219
:108F6F003E0A7B017A007946E4FD12A7E07B017A85
:108F7F0000794612862E900050EEF0A3EFF0FB7DA5
:108F8F000F7C007FA812AE627D0F7C007FA812B508
:108F9F00AD7E00900050EEF0A3EFF090007A74FFDA
:108FAF00F0A37400F0A37447F0A3EEF0A3EFF07BEF
:108FBF00017A007946123E04900050E07002A3E05F
:108FCF007BFF70067A03799480047A0379B9123E95
:018FDF000A87
:018FE000226E
:107BD9007D107C007FA812B5AD7E00900050EEF0BC
:107BE900A3EFF090007A74FFF0A37400F0A3744738
:107BF900F0A3EEF0A3EFF07B017A007946123E0480
:107C0900900050E07002A3E0701590007A04F0A390
:107C19007400F0A37446F07BFF7A04790480149011
:107C2900007A7401F0A37400F0A37446F07BFF7A24
:107C390004792F123E0A7BFF7A047958123E0A7B97
:107C4900017A007946E4FD12A7E07B017A007946C2
:107C590012862E900050EEF0A3EFF0FB7D107C0011
:107C69007FA812AE627D107C007FA812B5AD7E00A0
:107C7900900050EEF0A3EFF090007A74FFF0A37437
:107C890000F0A37447F0A3EEF0A3EFF07B017A00B4
:107C99007946123E04900050E07002A3E0701590FE
:107CA900007A04F0A37400F0A37446F07BFF7A0411
:107CB9007904801490007A7401F0A37400F0A3741D
:0B7CC90046F07BFF7A04792F123E0A80
:017CD400228D
:107CD5007D117C007FA812B5AD7E00900050EEF0BE
:107CE500A3EFF090007A74FFF0A37400F0A374473B
:107CF500F0A3EEF0A3EFF07B017A007946123E0483
:107D0500900050E07002A3E0701590007A04F0A393
:107D15007400F0A37446F07BFF7A04798480149094
:107D2500007A7401F0A37400F0A37446F07BFF7A27
:107D35000479A8123E0A7BFF7A0479CA123E0A7BAF
:107D4500017A007946E4FD12A7E07B017A007946C5
:107D550012862E900050EEF0A3EFF0FB7D117C0013
:107D65007FA812AE627D117C007FA812B5AD7E00A2
:107D7500900050EEF0A3EFF090007A74FFF0A3743A
:107D850000F0A37447F0A3EEF0A3EFF07B017A00B7
:107D95007946123E04900050E07002A3E070159001
:107DA500007A04F0A37400F0A37446F07BFF7A0414
:107DB5007984801490007A7401F0A37400F0A374A0
:0B7DC50046F07BFF7A0479A8123E0A0A
:017DD0002290
:108474007D127C007FA812B5AD7E00900050EEF016
:10848400A3EFF090007A74FFF0A37400F0A3744794
:10849400F0A3EEF0A3EFF07B017A007946123E04DC
:1084A400900050E07002A3E0700690007A0480050A
:1084B40090007A7401F0A37400F0A37446F07BFF7B
:1084C4007A0479EF123E0A7BFF7A057913123E0A89
:1084D4007B017A007946E4FD12A7E07B017A0079FA
:1084E4004612862E900050EEF0A3EFF0FB7D127C36
:1084F400007FA812AE627D127C007FA812B5AD7E0B
:1085040000900050EEF0A3EFF090007A74FFF0A317
:108514007400F0A37447F0A3EEF0A3EFF07B017AAC
:10852400007946123E04900050E07002A3E0700609
:1085340090007A04800590007A7401F0A37400F02E
:0D854400A37446F07BFF7A0479EF123E0A23
:018551002207
:10B894009000747419F0A37432F0A3744BF0A37481
:10B8A40064F0A3747DF0A37496F0A374AFF0A37452
:10B8B400C8F0A374E1F0A374FAF0E4A3F07B017A76
:03B8C40000797494
:01B8C700225E
:0A739100900061EEF0FCA3EFF0FDA8
:10739B007FA812B5AD7E0090006DEEF0A3EFF090DC
:1073AB00007A74FFF0A37400F0A37447F0A3EEF01F
:1073BB00A3EFF07B017A007963123E0490006DE03D
:1073CB007002A3E0701590007A04F0A37400F0A390
:1073DB007463F07BFF7A05793B801490007A74011B
:1073EB00F0A37400F0A37463F07BFF7A057961124C
:1073FB003E0A7BFF7A057985123E0A7B017A00797A
:10740B0063E4FD12A7E07B017A00796312862E906C
:10741B00006DEEF0A3EFF0900061E0FCA3E0FDAB9C
:10742B00077FA812AE62900061E0FCA3E0FD7FA88D
:10743B0012B5AD7E0090006DEEF0A3EFF090007AE8
:10744B0074FFF0A37400F0A37447F0A3EEF0A3EF66
:10745B00F07B017A007963123E0490006DE07002BC
:10746B00A3E090006F7018F0A3F090007A04F0A3E3
:10747B007400F0A37463F07BFF7A05793B8017E40B
:10748B00F0A304F090007AF0A37400F0A37463F0FF
:0F749B007BFF7A057961123E0A90006FA3E0FF34
:0174AA0022BF
:08576B00900061EEF0A3EFF0E5
:105773007BFF7A0579AC123E0A12A7D87BFF7A0524
:1057830079D2123E0A900062E02407FD900061E0A6
:105793003400FC900063E0FB7FA812AE62900062CD
:1057A300E02407FD900061E03400FC7FA812B5AD52
:1057B3007BFF7A00794490007AEFF0123E0A900062
:1057C30062E02408FD900061E03400FC900064E096
:1057D300FB7FA812AE62900062E02408FD90006196
:1057E300E03400FC7FA812B5AD7BFF7A0579EE901B
:1057F300007AEFF0123E0A900062E02409FD900067
:1058030061E03400FC900066E0FB7FA812AE62907A
:105813000062E02409FD900061E03400FC7FA812DF
:10582300B5AD7BFF7A00794490007AEFF0123E0A1F
:10583300900062E0240AFD900061E03400FC9000D7
:1058430067E0FB7FA812AE62900062E0240AFD903D
:105853000061E03400FC7FA812B5AD7BFF7A0079CC
:105863004490007AEFF0123E0A7BFF7A0579F21238
:105873003E0A12A7D87BFF7A067912123E0A9000DD
:1058830062E0240BFD900061E03400FC900063E0D3
:10589300FB7FA812AE62900062E0240BFD900061D2
:1058A300E03400FC7FA812B5AD7BFF7A0079449009
:1058B300007AEFF0123E0A900062E0240CFD9000A3
:1058C30061E03400FC900064E0FB7FA812AE6290BC
:1058D3000062E0240CFD900061E03400FC7FA8121C
:1058E300B5AD7BFF7A0579EE90007AEFF0123E0AB0
:1058F300900062E0240DFD900061E03400FC900014
:1059030066E0FB7FA812AE62900062E0240DFD907A
:105913000061E03400FC7FA812B5AD7BFF7A00790B
:105923004490007AEFF0123E0A900062E0240EFDEC
:10593300900061E03400FC900067E0FB7FA812AEAA
:1059430062900062E0240EFD900061E03400FC7F71
:10595300A812B5AD7BFF7A00794490007AEFF0028C
:025963003E0AFA
:0874AB00900074EEF0A3EFF075
:1074B3007BFF7A06792E123E0A900075E02407FDC1
:1074C300900074E03400FC7FA812B5AD7BFF7A0610
:1074D300794090007AEFF0123E0A900075E024089C
:1074E300FD900074E03400FC7FA812B5AD7BFF7AF9
:1074F3000579EE90007AEFF0123E0A900075E024D1
:1075030009FD900074E03400FC7FA812B5AD7BFF49
:107513007A00794490007AEFF0123E0A900075E009
:10752300240AFD900074E03400FC7FA812B5AD7B03
:10753300FF7A06794490007AEFF0123E0A900075C4
:10754300E0240BFD900074E03400FC7FA812B5AD7D
:107553007BFF7A00794490007AEFF0123E0A9000A4
:1075630075E0240CFD900074E03400FC7FA812B594
:10757300AD7BFF7A0579EE90007AEFF0123E0A9028
:107583000075E0240DFD900074E03400FC7FA81228
:10759300B5AD7BFF7A00794490007AEFF0123E0A92
:1075A300900075E0240EFD900074E03400FC7FA889
:1075B30012B5AD7BFF7A00794490007AEFF0023E7A
:0175C3000ABD
:0848BA00900061EEF0A3EFF0A5
:1048C2007BFF7A06794A123E0A7BFF7A06797612D4
:1048D2003E0A7BFF7A06799E123E0A7B017A0079B4
:1048E20063E4FD12A7E07BFF7A0679C6123E0AE472
:1048F20090006EF090006EE0FFC394087480948084
:104902004003024B7074632FF582E43400F583E0B8
:1049120090006FF0643270437BFF7A0679DE123EBC
:104922000A900062E02401FD900061E03400FC7B0B
:10493200327FA812AE62900062E02401FD90006115
:10494200E03400FC7FA812B5AD90006DEFF07BFF64
:104952007A0679E590007AF0123E0A90006EE02421
:1049620063F582E43400F583E090006FF064337005
:10497200437BFF7A0679EB123E0A900062E0240242
:10498200FD900061E03400FC7B337FA812AE6290A0
:104992000062E02402FD900061E03400FC7FA81276
:1049A200B5AD90006DEFF07BFF7A0679E590007A65
:1049B200F0123E0A90006EE02463F582E43400F5C2
:1049C20083E090006FF0643470437BFF7A0679F3E2
:1049D200123E0A900062E02403FD900061E0340080
:1049E200FC7B347FA812AE62900062E02403FD904B
:1049F2000061E03400FC7FA812B5AD90006DEFF0CD
:104A02007BFF7A0679E590007AF0123E0A90006EFA
:104A1200E02463F582E43400F583E090006FF064F3
:104A22003570437BFF7A0679FE123E0A900062E0FF
:104A32002404FD900061E03400FC7B357FA812AEB7
:104A420062900062E02404FD900061E03400FC7F8B
:104A5200A812B5AD90006DEFF07BFF7A0679E59074
:104A6200007AF0123E0A90006EE02463F582E4348C
:104A720000F583E090006FF0643670437BFF7A07A5
:104A82007906123E0A900062E02405FD900061E082
