:1087C7004101720A4101A5004101B1004101A60022
:1087D7004101AE004201A700004101B0064101B5C9
:1087E700034101B4F241017102C10AC10BC1094140
:0387F7000170000E
:03000B0002BCD95B
:10BCD900C0E0C083C082900172E014F0E06401709A
:10BCE900069001A5E004F09001A8E004F070069028
:0EBCF90001A7E004F0C28DD082D083D0E032EB
:10BFE600E58954F04401F589E4F58CF58AD28C2272
:05C08C00C28DD2A922C3
:03C09600C2A9221A
:0BC0250012BDD2EFF47002EEF460F5E3
:01C0300022ED
:05B862009000A7EFF0CB
:10B867009000A7E0FF12BA86EF3395E04F6024E41B
:10B877009000A8F0A3F0C39000A9E094E89000A876
:10B88700E0940350DBA3E004F070EB9000A8E00421
:08B89700F080E39000A7E0FF40
:01B89F002286
:0EB54700900027EBF0A3EAF0A3E9F0A3EDF0EB
:10B55500E4A3F090002AE0FFA3E0C39F50299000E8
:10B5650027E0FBA3E0FAA3E0F9121BABFF12B862D8
:10B5750090002CEFF0900028E475F001121C379034
:07B58500002BE004F080CC74
:01B58C00229C
:10BFF60012C09112C04E12C03BC283D287C2972292
:10B156007D047C007FA812B95D9001B2E4F0A3EFF4
:10B16600F07D067C007FA812B95D9001ACE4F0A3E7
:10B17600EFF07D087C007FA812B95D9001AAEFF080
:10B186007D0A7C007FA812B95D9001A9EFF07D0EC3
:10B196007C007FA812B95D9001ABEFF07D177C00B3
:0BB1A6007FA812B95D9001AFEFF0220E
:10A9E90012BFE612C08C12BD0712B8A012BFF6D270
:10A9F900AF12BF427F217E0012BF7A12C0067F616B
:10AA090012B399D28212C05520910312549612B1F1
:10AA190056126CB1EF70FA9001727405F020800340
:10AA290012BAFB900170E0FF123A43900170EFF007
:10AA390020B3292009267B017A01794812A0A29026
:10AA49000000EFF0FD7B017A01794812B7A47B0180
:10AA59007A017948900000E0FD1235061298FE80CF
:01AA6900BC30
:10BA10007072696D6172696F204243433D20000D71
:10BA20000A0063616C63756C6F204243433D2000E4
:10BA30005245454E56494152207472616D6120480D
:0BBA40006F72613A20004C495645002F
:0E350600900001EBF0A3EAF0A3E9F0A3EDF0D2
:10351400E4A3F0ED641A600302364C900001E0FB72
:10352400A3E0FAA3E0F9121BAB6402600302364C79
:10353400900002121BC46448600302364C900004DD
:10354400E07E0024FEF582EE34FFF583121BC46492
:1035540003600302364C7BFF7ABA791012B3EC9005
:103564000001E0FBA3E0FAA3E0F9900019121BC4E8
:10357400FF12B4727BFF7ABA791F12B3ECE4FC90A9
:103584000004E014FEECC39E501F900001E0FBA376
:10359400E0FAA3E0F9AF048F82758300121BC4FE26
:1035A400900005E06EF00C80D67BFF7ABA79221287
:1035B400B3EC900005E0FF12B4727BFF7ABA791F76
:1035C40012B3EC900001E0FBA3E0FAA3E0F9900051
:1035D40019121BC4FF900005E0B50726E92403F97E
:1035E400E43AFA12773DEF6003023A42900001E0B8
:1035F400FBA3E0FAA3E02403F9E43AFA129D910252
:10360400AC6B9000067402F0A37405F0A37403F08D
:10361400E4A3F07B017A0079067D0412984C7BFFC9
:103624007ABA793012B3EC900006E0FF12B47290CB
:103634000007E0FF12B472900008E0FF12B4727B3E
:10364400FF7ABA791F02B3EC900001E0FBA3E0FA21
:10365400A3E0F9121BAB64B170057F60023875906A
:103664000001E0FBA3E0FAA3E0F9121BAB64B27023
:10367400057F5D023875900001E0FBA3E0FAA3E04A
:10368400F9121BAB64B370057F63023875900004B4
:10369400E064017017900001E0FBA3E0FAA3E0F9F5
:1036A400121BAB64B470057F5E023875900004E0B1
:1036B40064017017900001E0FBA3E0FAA3E0F912A3
:1036C4001BAB64B570057F62023875900001E0FBA6
:1036D400A3E0FAA3E0F9121BAB64B67026900220B3
:1036E400E004F0E0D39404748094805003023A42DE
:1036F4007FAE122040E49001A5F0C297C2839002ED
:1037040020F022900001E0FBA3E0FAA3E0F9121BF1
:10371400ABFF64B76005EF64AA70519001A5E0C3E4
:103724009414748094804006E4F0C297C28390019C
:10373400AAE06003023A429001A9E0640160030236
:103744003A42C39001A8E094589001A7E094025033
:1037540003023A42E4F0A3F09001AA04F07BFF7A5A
:10376400BA794612B3ECE49001AAF022900004E086
:1037740064017017900001E0FBA3E0FAA3E0F912E2
:103784001BAB64B870057F9A023875900004E0FFA3
:103794006403702A900001E0FBA3E0FAA3E0F9902F
:1037A4000001121BC464557015FE74FF2FF582EEE0
:1037B40034FFF583121BC46403700302B823900022
:1037C40004E064017017900001E0FBA3E0FAA3E0B9
:1037D400F9121BAB64A170057F5A0238759000047E
:1037E400E064017016900001E0FBA3E0FAA3E0F9A5
:1037F400121BAB640570047F9C8076900004E06427
:10380400017016900001E0FBA3E0FAA3E0F9121B9B
:10381400AB640670047F9E8058900004E0640170DD
:1038240016900001E0FBA3E0FAA3E0F9121BAB64DD
:103834000770047F5F803A900004E0640170169082
:103844000001E0FBA3E0FAA3E0F9121BAB640870EB
:10385400047F61801C900004E064017017900001F3
:10386400E0FBA3E0FAA3E0F9121BAB640970057F47
:10387400AF022040900004E0FF6413703C9000010C
:10388400E0FBA3E0FAA3E0F9900001121BC4645624
:103894007027EF24FFFFE434FFFE8F82F583121BB1
:1038A400C4640370148F828E83E4121C03E924021F
:1038B400F9E43AFA7F5B023A03900004E0FF6413F0
:1038C400703C900001E0FBA3E0FAA3E0F990000152
:1038D400121BC4644F7027EF24FFFFE434FFFE8FF4
:1038E40082F583121BC4640370148F828E83E412E6
:1038F4001C03E92402F9E43AFA7F9B023A0390009C
:1039040004E0FF640660030239BA900001E0FBA3FF
:10391400E0FAA3E0F9121BAB640260030239BA9027
:103924000001121BC4645760030239BAFE74FF2FEE
:10393400F582EE34FFF583121BC4640370789000A3
:1039440001A3A3900002121BC4FD7B017A00790637
:1039540012AFE29000097420F0900001E0FBA3E0B4
:10396400FAA3E0F9900003121BC4FD900001A3A385
:10397400900004121BC490001CF07B017A00790AA9
:103984001247719001A9E06401702112BB34EFF475
:1039940060077FAA12204080097B017A0079061211
:1039A4008CE37B017A0079067F5C80537B017A008B
:1039B40079067F5C8049900004E0FF6407704390BF
:1039C4000001E0FBA3E0FAA3E0F9121BAB64027070
:1039D40031900001121BC464637027EF24FFFFE4DD
:1039E40034FFFE8F82F583121BC4640370148F822C
:1039F4008E83E4121C03E92402F9E43AFA7F9D025F
:103A04004CF8900004E0FF640C7033900001E0FB7C
:103A1400A3E0FAA3E0F9121BAB64027021FE74FF69
:103A24002FF582EE34FFF583121BC46403700F90EC
:0E3A34000001A3A3E02401F9E43AFA128E88FF
:013A42002261
:0EB6E200900033EBF0A3EAF0A3E9F0A3EDF043
:10B6F000E4A3F0900036E0FFA3E0C39F5024900045
:10B7000033E0FBA3E0FAA3E0F9121BABFF12B399FD
:10B71000900034E475F001121C37900037E004F01B
:02B7200080D1D6
:01B722002204
:0B8CE300900011EBF0A3EAF0A3E9F011
:108CEE009000327403F090001414F012B65D9000F0
:108CFE0015EFF0A37453F09001AEE09000326013C4
:108D0E00E0FF04F074142FF582E43400F583744D03
:108D1E00F08011E0FF04F074142FF582E43400F5B6
:108D2E00837443F09000327404F0900011E0FBA3C2
:108D3E00E0FAA3E0F9121BABFF6021900032E024B1
:108D4E0014F582E43400F583EFF0900012E475F030
:108D5E0001121C37900032E004F080CE900032E019
:108D6E00FF04F074142FF582E43400F583743AF0A6
:108D7E00900032E02414F9E43400FA7B0112660309
:108D8E00900032E0FF241EF582E43400F583743A3D
:108D9E00F0741F2FF582E43400F5837403F07B0129
:0B8DAE007A007914EF240CFD02B6E2FD
:10BF520050524F4752414D414D4F5320484F52414D
:04BF6200000D0A00C4
:08000300D29412C099C29422AC
:05B7E4009000B4EFF03D
:10B7E900E4A3F0A3F09000B4E0FFA2E713F030D790
:10B7F90004D2958002C2951200039000B6E004F0CD
:10B8090070069000B5E004F0C39000B6E09408908B
:09B8190000B5E06480948040CC8D
:01B822002203
:0AA2F500EBF0A3EAF0A3E9F07F8D7F
:05A2FF009000B1EFF03A
:10A30400D2967F037E0012BF7A9000B1E0FF12B7AD
:10A31400E4E49000B2F0A3F09000B2E0FCA3E0FD0E
:10A32400C39408EC64809480504F309516900221B9
:10A33400E04480F0ED9406EC648094805005E0FFE6
:10A34400C313F0209520900221E0547FF0D39000B5
:10A35400B3E094069000B2E06480948050089002C8
:10A3640021E0FFC313F01200039000B3E004F07087
:10A37400A79000B2E004F0809FC296900221E0FF13
:01A3840022B6
:10BD5B00900014EFF0A3EDF0D2967F037E0012BF9C
:10BD6B007A900014E0FF12B7E4900015E0FF90000A
:08BD7B0014F012B7E4C2962295
:10B72300900012E475F001121C37900012E475F0DA
:10B7330001121C37900012E475F001121C379000BF
:10B7430011E0FBA3E0FAA3E0F9121BABFF900001A9
:04B75300121BC4FD04
:0CB75700EF540FC454F0FFED540F4FFFEF
:01B7630022C3
:10773D00E4FF121BABFEC39430500302784FEED31F
:10774D009439400302784F900001121BC4FEC3947C
:10775D0030500302784CEED39439400302784C90AC
:10776D000003121BC4FEC394305003027849EED3BC
:10777D0094394003027849900004121BC4FEC3944F
:10778D00305003027851EED3943940030278519072
:10779D000008121BC4FEC394305003027846EED38A
:1077AD009439400302784690000B121BC4FEC3941B
:1077BD00305003027843EED39439507A90000C1276
:1077CD001BC4FEC39430406BEED3943950659000CA
:1077DD000E121BC4FEC394304056EED39439505054
:1077ED0090000F121BC4FEC394304041EED3943968
:1077FD00503B900011121BC4FEC39430402CEED3AD
:10780D0094395026900012121BC4FEC394304017B9
:10781D00EED394395011900014121BC4FEC3943052
:10782D004022EED39439227F01227F01227F012253
:10783D007F01227F01227F01227F01227F01227F92
:04784D0001227F0194
:017851002214
:0B9D9100900011EBF0A3EAF0A3E9F052
:109D9C007BFF7ABF795212B3EC7BFF7ABF796312E7
:109DAC00B3EC12B741AD077F8612BD5B12B723AD82
:109DBC00077F8812BD5B900012E475F001121C370E
:109DCC00900012E475F001121C3712B723AD077F17
:109DDC008C12BD5B12B723AD077F8412BD5B12B72B
:109DEC0023AD077F8212BD5B12B723AD077F8012B4
:109DFC00BD5B900012E475F001121C37900012E468
:109E0C0075F001121C37900012E475F001121C372A
:109E1C00900011E0FBA3E0FAA3E0F9121BAB54078E
:069E2C00FD7F8A02BD5B10
:10BEBC00AE07EEC4540F540FFE6012EF540FFFE4A4
:0DBECC00FDEDC39E5007740A2FFF0D80F49A
:01BED9002246
:10B91C00121C0390005EE475F001121C3790005D60
:0CB92C00E0FBA3E0FAA3E0F9121BABFF64
:10B93800E4FEFDFCECC39F500B0DED640A7002FDA4
:10B948000E0C80F0EEC454F054F0FEED540F4EFF90
:01B9580022CC
:0BA1D30090005DEBF0A3EAF0A3E9F0C0
:10A1DE0012B929EF54F0C4540F4430FE900060E0E1
:10A1EE00FBA3E0FAA3E0F9EE121BF1EF540F44309B
:10A1FE00FF900060E0FBA3E0FAA3E0F9900001EF0E
:10A20E0012B91CEF54F0C4540F4430FE900060E0BD
:10A21E00FBA3E0FAA3E0F9900002EE121C03EF5448
:10A22E000F443090000312B91CEF54F0C4540F4485
:10A23E0030FE900060E0FBA3E0FAA3E0F99000048A
:10A24E00EE121C03EF540F4430900005121C0390C5
:06A25E000006E4021C03EF
:10AFE200E4FFFE900018EDF0900018E0C394647442
:10AFF2008094804007E0249CF00F80ECEF443012F4
:10B002001BF1740129F9E43AFA900018E0C3940A9A
:10B01200748094804007E024F6F00E80ECEE443019
:10B02200121BF1740129F9E43AFA900018E0443055
:0EB03200121BF1740129F9E43AFAE4021BF151
:0E477100900018EBF0A3EAF0A3E9F0A3EDF03E
:10477F00E490001DF0A3F0900020F0A3F0A3F0A3AD
:10478F00F090001FEDF054F0F0E0FFC4540FF090E4
:10479F000028121CE0404000007F007E007D807CDE
:1047AF0041126771C004C005C006C00790001FE02A
:1047BF00FCE41216BDD003D002D001D0001215AD0B
:1047CF00C004C005C006C00790001DE0FCA3E0FDBB
:1047DF00E41216B8D003D002D001D0001214BC12CC
:1047EF0016F190001DEEF0A3EFF090001BE090008B
:1047FF001FF0540FF0900028121CE0400000007FC3
:10480F00007E007D807C41126771C004C005C00628
:10481F00C00790001FE0FCE41216BDD003D002D0F9
:10482F0001D0001215ADC004C005C006C00790002E
:10483F001DE0FCA3E0FDE41216B8D003D002D001B6
:10484F00D0001214BC1216F190001DEEF0A3EFF081
:10485F0090001CE090001FF054F0F0E0FFC4540FE4
:10486F00F0900028121CE03F8000007F007E007D4A
:10487F00807C41126771C004C005C006C00790005C
:10488F001FE0FCE41216BDD003D002D001D00012FD
:10489F0015ADC004C005C006C00790001DE0FCA305
:1048AF00E0FDE41216B8D003D002D001D0001214EC
:1048BF00BC1216F190001DEEF0A3EFF090001CE07B
:1048CF0090001FF0540FF0900028121CE000000021
:1048DF00007F007E007D807C41126771C004C0059F
:1048EF00C006C00790001FE0FCE41216BDD003D035
:1048FF0002D001D0001215ADC004C005C006C0071C
:10490F0090001DE0FCA3E0FDE41216B8D003D00226
:10491F00D001D0001214BC1216F190001DEEF0A3BE
:10492F00EFF0C3EF9410EE9427401074F02FFF7444
:10493F00D83EFE900020E004F080E7900020E04495
:10494F0030FD900018E0FBA3E0FAA3E0F9ED121B95
:10495F00F1900019E475F001121C37C3EF94E8EEE3
:10496F009403401074182FFF74FC3EFE900021E05A
:10497F0004F080E7900021E04430FD900018E0FB48
:10498F00A3E0FAA3E0F9ED121BF1900019E475F022
:10499F0001121C37C3EF9464EE94004010749C2FE7
:1049AF00FF74FF3EFE900022E004F080E7900022AB
:1049BF00E04430FD900018E0FBA3E0FAA3E0F9ED2E
:1049CF00121BF1900019E475F001121C37C3EF941C
:1049DF000AEE9400401074F62FFF74FF3EFE900015
:1049EF0023E004F080E7900023E04430FD900018AE
:1049FF00E0FBA3E0FAA3E0F9ED121BF1900019E43C
:104A0F0075F001121C37EF4430FF900018E0FBA344
:104A1F00E0FAA3E0F9EF121BF1900019E475F00131
:104A2F00121C37900018E0FBA3E0FAA3E0F9E402B0
:024A3F001BF169
:03660300900051B3
:1066060012A2F5EF54F0C4540F4430FE900051E04E
:10661600FBA3E0FAA3E0F9EE121BF1900052E47539
:10662600F001121C37EF540F4430FF900051E0FB8D
:10663600A3E0FAA3E0F9EF121BF1900052E475F023
:1066460001121C377F8912A2FFEF54F0C4540F4485
:1066560030FE900051E0FBA3E0FAA3E0F9EE121B36
:10666600F1900052E475F001121C37EF540F4430DC
:10667600FF900051E0FBA3E0FAA3E0F9EF121BF153
:10668600900052E475F001121C377F8712A2FFEFCB
:1066960054F0C4540F4430FE900051E0FBA3E0FADE
:1066A600A3E0F9EE121BF1900052E475F001121C02
:1066B60037EF540F4430FF900051E0FBA3E0FAA3FC
:1066C600E0F9EF121BF1900052E475F001121C374D
:1066D6007F8512A2FFEF54F0C4540F4430FE9000A1
:1066E60051E0FBA3E0FAA3E0F9EE121BF190005291
:1066F600E475F001121C37EF540F4430FF9000513F
:10670600E0FBA3E0FAA3E0F9EF121BF1900052E4DC
:1067160075F001121C377F8312A2FFEF54F0C454A8
:106726000F4430FE900051E0FBA3E0FAA3E0F9EE3F
:10673600121BF1900052E475F001121C37EF540F52
:106746004430FF900051E0FBA3E0FAA3E0F9EF121A
:106756001BF1900052E475F001121C37900051E0D5
:0B676600FBA3E0FAA3E0F9E4021BF142
:0B62880090001EEBF0A3EAF0A3E9F089
:106293007F8912A2FFEF54F0C4540F4430FE9000E4
:1062A3001EE0FBA3E0FAA3E0F9EE121BF190001F3E
:1062B300E475F001121C37EF540F4430FF90001EB9
:1062C300E0FBA3E0FAA3E0F9EF121BF190001FE457
:1062D30075F001121C377F8712A2FFEF54F0C454EC
:1062E3000F4430FE90001EE0FBA3E0FAA3E0F9EEBA
:1062F300121BF190001FE475F001121C37EF540FCD
:106303004430FF90001EE0FBA3E0FAA3E0F9EF1294
:106313001BF190001FE475F001121C377F8D12A250
:10632300FFEF54F0C4540F4430FE90001EE0FBA373
:10633300E0FAA3E0F9EE121BF190001FE475F001FF
:10634300121C37EF540F4430FF90001EE0FBA3E014
:10635300FAA3E0F9EF121BF190001FE475F00112AC
:106363001C377F8512A2FFEF54F0C4540F4430FE54
:1063730090001EE0FBA3E0FAA3E0F9EE121BF190FC
:10638300001FE475F001121C37EF540F4430FF90E7
:10639300001EE0FBA3E0FAA3E0F9EF121BF190006B
:1063A3001FE475F001121C377F8312A2FFEF54F034
:1063B300C4540F4430FE90001EE0FBA3E0FAA3E0B8
:1063C300F9EE121BF190001FE475F001121C37EF78
:1063D300540F4430FF90001EE0FBA3E0FAA3E0F962
:1063E300EF121BF190001FE475F001121C379000AF
:1063F3001EE0FBA3E0FAA3E0F9742E121BF1900058
:106403001FE475F001121C377F8112A2FFEF54F0D5
:10641300C4540F4430FE90001EE0FBA3E0FAA3E057
:10642300F9EE121BF190001FE475F001121C37EF17
:10643300540F4430FF90001EE0FBA3E0FAA3E0F901
:10644300EF121BF190001FE475F001121C3790004E
:0D6453001EE0FBA3E0FAA3E0F9E4021BF158
:109B00009000AE12A2F512BEBC9000AEE0FBA3E046
:109B1000FAA3E0F9EF121BF19000AFE475F0011227
:109B20001C377F8912A2FF12BEBC9000AEE0FBA3DF
:109B3000E0FAA3E0F9EF121BF19000AFE475F00139
:109B4000121C377F8712A2FF12BEBC9000AEE0FB52
:109B5000A3E0FAA3E0F9EF121BF19000AFE475F077
:109B600001121C377F8512A2FF12BEBC9000AEE02E
:109B7000FBA3E0FAA3E0F9EF121BF19000AFE4754C
:109B8000F001121C377F8312A2FF12BEBC9000AE00
:109B9000E0FBA3E0FAA3E0F9EF121BF19000AFE4C1
:069BA00075F001021C3704
:10AD600090000912A2F5900009E0FBA3E0FAA3E02D
:10AD7000F990000EEF121C037F8912A2FF900009C8
:10AD8000E0FBA3E0FAA3E0F990000FEF121C037FB1
:10AD90008712A2FF900009E0FBA3E0FAA3E0F9907C
:10ADA0000010EF121C037F8512A2FF900009E0FB48
:10ADB000A3E0FAA3E0F9900011EF121C037F8312C5
:10ADC000A2FF900009E0FBA3E0FAA3E0F9900012D3
:04ADD000EF021C036F
:1090E70090001E12A2F590001EE0FBA3E0FAA3E099
:1090F700F9EF121BF190001FE475F001121C377F86
:109107008912A2FF90001EE0FBA3E0FAA3E0F9EFAB
:10911700121BF190001FE475F001121C377F8712B4
:10912700A2FF90001EE0FBA3E0FAA3E0F9EF121BF9
:10913700F190001FE475F001121C377F8512A2FF22
:1091470090001EE0FBA3E0FAA3E0F9EF121BF190F9
:10915700001FE475F001121C377F8312A2FF9000F5
:109167001EE0FBA3E0FAA3E0F9EF121BF190001F4A
:10917700E475F001121C377F8112A2FF90001EE0F8
:10918700FBA3E0FAA3E0F9EF121BF190001FE475CF
:10919700F001121C3790001EE0FBA3E0FAA3E0F9F0
:0491A700E4021BF1D2
:07C04E00C294C296D29522B4
:0B901E0090009CEBF0A3EAF0A3E9F047
:109029007B017A0079A7129B009000A7E0FF7E00E0
:109039007C017D6D121C25AC06AD07A3E075F01E01
:10904900A42DFFEC35F0FEA3E07C002FFFEC3EFEE3
:10905900E4FD90009F121CD490009CE0FBA3E0FA71
:10906900A3E0F9900001121BC4FF3395E0FE7C00D8
:109079007D1E121C25C006C007121BABFF3395E0ED
:10908900FE0C7D6D121C25D0E02FFFD0E03EFE9036
:109099000002121BC4FD3395E0FCEF2DFFEE3CFEF0
:1090A9003395E0FDFC9000A3121CD490009FE0FCD6
:1090B900A3E0FDA3E0FEA3E0FFA3E0F8A3E0F9A38A
:1090C900E0FAA3E0FBC3121C7140089000AD7401E3
:0D90D900F08005E49000ADF09000ADE0FFE8
:0190E6002267
:10BF7A00E4FDFCC3ED9FEC9E50070DBD00010C8053
:01BF8A00F2C4
:01BF8B002293
:04BEDA00AB07AA0602
:10BEDE00900000C3E5829BE5839A500A7F967E0010
:06BEEE0012BF7AA380EDF3
:01BEF400222B
:08BAC10090001DEEF0A3EFF070
:10BAC900E4A3F0A3F090001DE0FEA3E0FFC3900003
:10BAD90020E09F90001FE09E50177F0A7E0012BE53
:10BAE900DA900020E004F070DC90001FE004F080A0
:01BAF900D478
:01BAFA002229
:01C099002284
:10BA4B004572726F72206465207469636B65740054
:10BA5B000A0D004E756D65726F2064652074696305
:10BA6B006B65743A004E6F206465207469636B6577
:0BBA7B0074204845583A00256C750007
:03BE5D0012BDF81B
:10BE6000D20ED293D292E4FFFE209205C20EC2936C
:0CBE7000220FBF00010EBE04F0BF4CED1D
:01BE7C0022A3
:03BE7D0012BDF8FB
:10BE8000D293D292D20EE4FFFE209205C20EC2934C
:0CBE9000220FBF00010EBE02F0BF8AEDC1
:01BE9C002283
:06C08600D29300C29322D8
:10BDF800E4FEEEC39408748094805015EF25E0FFAC
:10BE080030D704D2928002C292D29312C0860E809A
:01BE1800E148
:01BE19002206
:08BF8C00ECFD7C00C293C2929F
:0ABF9400D292D29300C292C293220F
:0AC03100C293C29200D293D2922271
:10B2B100E4FBEBFDC39408748094805038C2933052
:10B2C1009216900216E04401F0ED94067480948089
:10B2D1005006E025E0F0D293209217900216E05438
:10B2E100FEF0EBD39406748094805006E025E0F0E4
:0CB2F100D2930B80BDC293900216E0FFC8
:01B2FD00222E
:10B20C0090005DE0FCA3E0FDA3E0FBA3E0FAA3E06B
:07B21C00F9121BABFB7FA838
:02B22300AA0778
:10B22500AF05A90712BF8CAF0212BE5DAF0512BEF6
:10B235005DAF0112BDF812BE60AF0312BDF812BEBC
:10B245006012C0317F0D7E0012BEDAD293D2927F9A
:0DB25500627E0012BF7A7F627E0002BF7A27
:04B959007C027FA845
:02B95D00AB0736
:10B95F00AF05AA0712BF8CAF0312BE7DAF0512BE93
:10B96F007DAF0212BDF812BE8012BF94EB04FF121E
:10B97F00BDF812BE60C29312B2B112C031D293D2CF
:06B98F0092900216E0FF99
:01B99500228F
:0B8E8800900011EBF0A3EAF0A3E9F06A
:108E9300E4900015F0900011E0FBA3E0FAA3E0F9E1
:108EA30090000AE4121C03E4900014F0900014E014
:108EB300FFD39409748094805057900011E0FBA372
:108EC300E0FAA3E0F98F82758300121BC4FF7E00D2
:108ED300C3943074809480400AD3EF94397480949F
:108EE3008040269000157401F07BFF7ABA794B120B
:108EF300B3EC900011E0FBA3E0FAA3E0F912B3ECAA
:108F03007BFF7ABA795B12B3EC900014E004F08033
:108F13009B900015E0700E900011E0FBA3E0FAA314
:108F2300E0F902833AE4FBFD7C027FA812B223E45A
:108F3300FB7D017C027FA812B223E4FB7402FDFCDB
:108F43007FA812B223E4FB7D037C027FA812B22325
:018F530022FB
:0B833A00900016EBF0A3EAF0A3E9F0BE
:108345007F007E007D007C007BFF7ABA795E12B3E8
:10835500EC900016E0FBA3E0FAA3E0F912B3EC7B86
:10836500FF7ABA795B12B3EC900016E0FBA3E0FA52
:10837500A3E0F912785290001D121CD47BFF7ABA43
:10838500797012B3EC90001DE0FCA3E0FDA3E0FEC4
:10839500A3E0FF7818121C82900019EFF012B47256
:1083A50090001DE0FCA3E0FDA3E0FEA3E0FF781034
:1083B500121C8290001AEFF012B47290001DE0FCBE
:1083C500A3E0FDA3E0FEA3E0FF7808121C82900065
:1083D5001BEFF012B47290001DA3A3A3E0FF900061
:1083E5001CF012B4727BFF7ABA795B12B3EC900081
:1083F50019E0FB7D007C027FA812B22390001AE0F1
:10840500FB7D017C027FA812B22390001BE0FB7468
:1084150002FDFC7FA812B22390001CE0FB7D037CCB
:06842500027FA802B22351
:10B2FE00128F5490007A74FFF0A374BAF0A3748284
:10B30E00F0A3121CD47B017A007959123F8B7B017A
:10B31E007A00795912000E74592FF582E43400F533
:10B32E0083E4F07B017A00795912B3EC7BFF7ABA91
:0BB33E00795B12B3EC7B017A007959B7
:01B3490022E1
:108F5400900067121CE0000000007D0012B959A9BE
:108F6400077D0112B959900064EFF07402FDFC7F93
:108F7400A812B95D900065EFF07D0312B959900015
:108F840066EFF0AF01A3E0F8A3E0F9A3E0FAA3E0F1
:108F94004FFFEAFEE9FDE8FC7808121C9590006793
:108FA400121CD4900064E0FF900067E0F8A3E0F99D
:108FB400A3E0FAA3E04FFFEAFEE9FDE8FC7808121B
:108FC4001C95900067121CD4900065E0FF90006728
:108FD400E0F8A3E0F9A3E0FAA3E04FFFEAFEE9FD1D
:108FE400E8FC7808121C95900067121CD490006667
:108FF400E0FFA3E0F8A3E0F9A3E0FAA3E04FFFEA5F
:10900400FEE9FDE8FC900067121CD4900067E0FCC8
:09901400A3E0FDA3E0FEA3E0FFD0
:01901D002230
:10BC1000128F54EF2401FFE43EFEE43DFDE43CFCC2
:10BC200090007A74FFF0A374BAF0A37482F0A312A8
:10BC30001CD47B017A007909123F8B7B017A007951
:04BC40000902833A38
:10AF1A0090009CEEF0A3EFF0A3EBF0A3EAF0A3E914
:01AF2A00F036
:10AF2B0090009CE0FCA3E0FD7FA812B95D90009E11
:10AF3B00E0FBA3E0FAA3E0F9EF121BF190009EE017
:10AF4B00FBA3E0FAA3E0F9121BABFF90009DE0041A
:10AF5B00F0700690009CE004F090009FE475F00107
:10AF6B00121C37EF70BA90009EE0FBA3E0FAA3E04F
:05AF7B00F9E4021BF1E6
:10ADD40090005DEEF0A3EFF0A3EBF0A3EAF0A3E99B
:10ADE400F090005FE0FBA3E0FAA3E0F9121BAB6074
:10ADF40024B40D04E4121BF112B20C90005EE004C2
:10AE0400F0700690005DE004F0900060E475F001DD
:10AE1400121C3780CC12B20C90005EE004F0700675
:10AE240090005DE004F0900060E475F001121C37BE
:0FAE340090005DE0FCA3E0FDE4FB7FA802B223E9
:10B8230090001174FFF0E4A3F0A3F0900012E0FC89
:10B83300A3E0FDC39450EC9403501A900011E0FB75
:10B843007FA812B223900013E004F070DE90001280
:0FB85300E004F080D6E4FBFD7C087FA802B2235E
:10842B0050756C7361646F722041637469766F0D64
:10843B000A0053656E736F726573204175746F20FC
:10844B00792073656E736F72312061637469766F17
:10845B00732E0A0D0053656E736F7220616374691E
:10846B00766F2073656E736F72312E0A0D00446543
:10847B007465637461646F2E2053656E736F722025
:10848B004175746F2E0A0D0053656E736F726573B1
:10849B00206E6F2064657465637461646F732E0A5C
:1084AB000D005665686963756C6F20457370657256
:1084BB00616E646F2053616C69722E0A0D005665F4
:1084CB00686963756C6F2053616C69656E646F2EA0
:1084DB0020556E206D6F6D656E746F2E0A0D006DDD
:1084EB00736A5F6C63645F696E666F726D617469EA
:1084FB00766F2072656C6F6A006D736A5F6C636474
:10850B005F696E666F726D617469766F20494400A6
:0A87FA00C10F41021E0041021F00E2
:07C05500C2B5C2B6C2B7225A
:07C05C00C2B5D2B6C2B72243
:07C06300D2B5D2B6C2B7222C
:07C06A00C2B5C2B6D2B72235
:07C07100D2B5C2B6D2B7221E
:07C07800C2B5D2B6D2B72217
:07C07F00D2B5D2B6D2B72200
:10BF9E0012C06320910B7BFF7A84792B12B3ECD203
:02BFAE000F2260
:10BE9D00E4FF7DF47C01309115EFFB3395E04B70A1
:0EBEAD000DED1D70011CED4C70EC7F0180E866
:01BEBB002264
:10BE1A007F017DF47C01209118EFFB3395E0FAEB6A
:10BE2A0064014A700CED1D70011CED4C70E8FF8036
:01BE3A00E522
:01BE3B0022E4
:10B65D009000337401F012C078309103E004F012C1
:10B66D00C07F309107900033E02402F0900033E06A
:10B67D00640170177D12FC7FA812B95DEF600CF4A8
:10B68D00900033700404F08002EFF0900033E0245A
:02B69D0030FF7C
:01B69F002288
:10BF26007D127C007FA812B95DEF6005F470027F78
:05BF360001EF2430FFC3
:01BF3B0022E3
:10B1B10012C07120912312C05C7BFF20910D7A8413
:10B1C100793D12B3ECE49001AE80227A8479601269
:10B1D100B3EC9001AE7401801412C05C7BFF20912E
:10B1E100187A84797912B3EC9001AE7401F0900071
:10B1F1001274FFF012BF9E800C7A84799312B3EC23
:0AB20100E4900012F0900012E0FF4C
:01B20B002220
:10BB340012C06A30912012BE9DEF3395E0FEEF648F
:10BB4400014E700A12B1B1900011EFF080147BFF26
:10BB54007A8479AD80067BFF7A8479C912B3EC7F4D
:07BB64000022900011E0FF38
:01BB6B0022B7
:1098FE00E4900001F090021EE004F0E0C394327494
:10990E0080948050030299ACE4F012C0553091035C
:10991E000299A1900001E0707A12BE1AEF3395E021
:10992E004F70707BFF7A8479EA12B3EC900001E0FD
:10993E00FF12B47290021FE0FF12B47290021FE089
:10994E00702A900001E0702430B30B04F012B34A79
:10995E0090021F7401F012BE9DEF3395E0FEEF648E
:10996E00014E702F7F0AFE12BAC1802790021FE0AF
:10997E006401701F900001E070197BFF7A857904F5
:10998E0012B3EC30B30DE4900001F0126DEFE490E1
:0E999E00021FF012C055309105E4900001F058
:0199AC002298
:10278700494E4752455345205441524A45544120EA
:10279700005441524A4554412053494E20494E471F
:1027A7005245534F20005441524A455441204E4F01
:1027B700205245474953545241205041474F20002A
:1027C700455843454445205449454D504F204445BD
:1027D7002047524143494120004D454E5355414CF6
:1027E700204E4F204553544120454E2050415251D1
:1027F7005545414445524F2000444952494A4153A7
:102807004520412043414A41200047524143494125
:10281700532E2E2E2000475241434941532E2E2E30
:10282700004D454E5355414C494441442056454E71
:102837004349444120004D454E5355414C4944417D
:10284700442045584345444520484F524152494F3B
:102857002041434552515545534520412043414A64
:102867004120004E4F204553204D454E5355414C76
:1028770049444144204E49205052455041474F005A
:102887004D454E5355414C204E4F205041474F2008
:102897004C4F434143494F4E20484F590053494EEF
:1028A7002050524553454E434941205645484943D8
:1028B700554C415220005441524A455441204E4FF5
:1028C7002045532044454C205041525155454144E1
:1028D70045524F20004249454E56454E49444F2EDA
:1028E7002050554C534520454C20424F544F4E20C5
:1028F700005441524A4554412053494E20464F52B5
:102907004D41544F20004655455241204445204CE7
:10291700494E45412000554E204D4F4D454E544F91
:1029270020504F52204641564F5220004E4F2045CF
:1029370053205441524A455441204D454E53554129
:102947004C20005441524A45544120494E56414C6F
:1029570049444120005441524A4554412053494E6D
:102967002053414C49444120005245474953545252
:102977004120494E475245534F20454E2050415222
:10298700515545414445524F20004D454E53554101
:102997004C20465545524120444520484F5241520C
:1029A700494F2000484F524152494F204E4F205027
:1029B700524F4752414D41444F200053494E2054F6
:1029C70041524A4554415320004249454E56454ECF
:1029D70049444F20004E4956454C2042414A4F201A
:1029E7004445205441524A455441532000613B38E5
:1029F700353B494E4752455345205441524A455469
:102A0700410A0000613B38363B5441524A45544124
:102A17002053494E20494E475245534F0A00006103
:102A27003B38373B5441524A455441204E4F205280
:102A370045474953545241205041474F0A000061CE
:102A47003B38383B455843454445205449454D504C
:102A57004F204445204752414349410A0000613B0A
:102A670038393B4D454E5355414C204E4F20455329
:102A7700544120454E2050415251554541444552FD
:102A87004F0A0000613B39303B444952494A4153A0
:102A97004520412043414A410A0000613B39313B0F
:102AA700475241434941532E2E2E200A0000613BD5
:102AB70039333B4D454E5355414C204E4F204553DE
:102AC700544120454E2050415251554541444552AD
:102AD7004F0A0000613B39333B4D454E5355414C3E
:102AE700204553544120454E2050415251554541B0
:102AF7004445524F0A0000613B39343B4D454E5324
:102B070055414C494441442056454E434944410AA6
:102B17000000613B39353B4D454E5355414C4944C7
:102B270041442045584345444520484F5241524966
:102B37004F2041434552515545534520412043417C
:102B47004A410A0000613B39363B4E4F204553202E
:102B57004D454E5355414C49444144204E49205020
:102B670052455041474F0A0000613B39373B4D45BD
:102B77004E5355414C204E4F205041474F204C4F0C
:102B8700434143494F4E20484F590A0000613B39A2
:102B9700383B53494E2050524553454E43494120F7
:102BA7005645484943554C41520A0000613B393864
:102BB7003B5441524A455441204E4F2045532044EF
:102BC700454C20504152515545414445524F0A000A
:102BD70000613B30303B4249454E56454E49444FD4
:102BE7002E2050554C534520454C20424F544F4EB4
:102BF7000A0000613B39383B5441524A4554412051
:102C070053494E20464F524D41544F0A0000613BF5
:102C170039383B4655455241204445204C494E459D
:102C2700410A0000613B39383B554E204D4F4D4519
:102C37004E544F20504F52204641564F520A0000E3
:102C4700613B30383B4E4F204553205441524A4553
:102C57005441204D454E5355414C0A0000613B39C4
:102C6700383B5441524A45544120494E56414C49FC
:102C770044410A0000613B39383B5441524A4554AC
:102C8700412053494E2053414C4944410A000061B9
:102C97003B39383B524547495354524120494E47E7
:102CA7005245534F20454E205041525155454144BE
:102CB70045524F0A0000613B30373BA1204D454E3E
:102CC7005355414C494441442056454E434944419C
:102CD70020210A0000613B30363B4D454E5355419C
:102CE7004C20465545524120444520484F524152B9
:102CF700494F0A0000613B39383B53494E20544144
:102D0700524A455441530A0000613B39383B4E490A
:102D170056454C2042414A4F204445205441524A8F
:102D2700455441530A0000613B39383B484F5241F3
:102D370052494F204E4F2050524F4752414D414428
:102D47004F0A0000613B39383B41434552515545D5
:102D5700205355205441524A455441204445204E62
:102D67005545564F0A0000613B30313B52455449A7
:102D77005245205355205441524A4554410A0000B8
:102D8700613B30333B4249454E56454E49444F0A15
:102D97000000613B39393B4C4F544520415349476B
:102DA7004E41444F2045535441204C4C454E4F0A09
:102DB700000057494547414E442000475241434987
:102DC70041532000613B39323B57494547414E4407
:102DD70020000A0000613B39313B475241434941DA
:102DE700532000613B30333B4249454E56454E49DF
:102DF700444F200020504C414341000A00613B30C2
:102E0700373B20A1204D454E5355414C4944414441
:102E17002056454E4349444120212056454E4349BB
:102E27004F20323000633B39303B00643B00AA80BF
:102E370018010200AA80180102000000000000002B
:102E4700000000000000000000000000000000007B
:102E5700000000000000000000000000000000006B
:0F2E67000000AA802807200000000000140000CF
:05204000900018EFF014
:1020450078197C007D017BFF7A2E79357E007F062D
:10205500121B85E4900020F0A3F0C2879001ABE04D
:10206500600302240C7B017A007919FD12B62190D8
:102075000018E0121D3123E70120D05520F056212C
:10208500105721305821505921705A21905B215009
:102095005D21B05E21D05F21F0602210612230AA5F
:1020A5002250AB2270AC2290AD22B0AE22D0AF222E
:1020B500F0B02310B12330B22350B32370B5239071
:1020C500B623A9FA23C8FE000024097BFF7A2779E5
:1020D5008712000E90001FEFF0E4FDFF12BDB41251
:1020E500BDAB7BFF7A2779870224047BFF7A2779AA
:1020F5009812000E90001FEFF0E4FDFF12BDB41220
:10210500BDAB7BFF7A2779980224047BFF7A277978
:10211500AD12000E90001FEFF0E4FDFF12BDB412EA
:10212500BDAB7BFF7A2779AD0224047BFF7A277943
:10213500C712000E90001FEFF0E4FDFF12BDB412B0
:10214500BDAB7BFF7A2779C70224047BFF7A277909
:10215500E012000E90001FEFF0E4FDFF12BDB41277
:10216500BDAB7BFF7A2779E00224047BFF7A2879CF
:102175000012000E90001FEFF0E4FDFF12BDB41237
:10218500BDAB7BFF7A2879000224047BFF7A28798E
:102195001112000E90001FEFF0E4FDFF12BDB41206
:1021A500BDAB7BFF7A28791D0224047BFF7A287951
:1021B5002812000E90001FEFF0E4FDFF12BDB412CF
:1021C500BDAB7BFF7A2879280224047BFF7A287926
:1021D5003D12000E90001FEFF0E4FDFF12BDB4129A
:1021E500BDAB7BFF7A28793D0224047BFF7A2879F1
:1021F5006A12000E90001FEFF0E4FDFF12BDB4124D
:10220500BDAB7BFF7A28796A0224047BFF7A2879A3
:102215008712000E90001FEFF0E4FDFF12BDB4120F
:10222500BDAB7BFF7A2879870224047BFF7A287966
:10223500A412000E90001FEFF0E4FDFF12BDB412D2
:10224500BDAB7BFF7A2879A40224047BFF7A287929
:10225500BD12000E90001FEFF0E4FDFF12BDB41299
:10226500BDAB7BFF7A2879BD0224047BFF7A2879F0
:10227500DC12000E90001FEFF0E4FDFF12BDB4125A
:10228500BDAB7BFF7A2879DC0224047BFF7A2879B1
:10229500F812000E90001FEFF0E4FDFF12BDB4121E
:1022A500BDAB7BFF7A2879F80224047BFF7A297974
:1022B5000D12000E90001FEFF0E4FDFF12BDB412E9
:1022C500BDAB7BFF7A29790D0224047BFF7A29793E
:1022D5001D12000E90001FEFF0E4FDFF12BDB412B9
:1022E500BDAB7BFF7A29791D0224047BFF7A29790E
:1022F5003312000E90001FEFF0E4FDFF12BDB41283
:10230500BDAB7BFF7A2979330224047BFF7A2979D7
:102315004A12000E90001FEFF0E4FDFF12BDB4124B
:10232500BDAB7BFF7A29794A0224047BFF7A2979A0
:102335005C12000E90001FEFF0E4FDFF12BDB41219
:10234500BDAB7BFF7A29795C0224047BFF7A29796E
:102355007012000E90001FEFF0E4FDFF12BDB412E5
:10236500BDAB7BFF7A2979700224047BFF7A29793A
:102375009112000E90001FEFF0E4FDFF12BDB412A4
:10238500BDAB7BFF7A2979910224047BFF7A2979F9
:10239500AB12000E90001FEFF012BDAF7BFF7A2944
:1023A50079AB805B7BFF7A2979C212000E90001F02
:1023B500EFF0E4FDFF12BDB412BDAB7BFF7A2979C6
:1023C500C2803C7BFF7A2979D012000E90001FEF66
:1023D500F0E4FDFF12BDB412BDAB7BFF7A2979D0C5
:1023E500801D7BFF7A2979DC12000E90001FEFF02B
:1023F500E4FDFF12BDB412BDAB7BFF7A2979DC7D0C
:102405000112B621D28722C287900018E0121D3131
:1024150026D201247C5524935624AA5724C1582436
:10242500D85924EF5A25065B251D5D254B5E25628F
:102435005F25796025906125346327579A27419C4C
:1024450026FF9E2715A125A7AA25BEAB25D5AC2518
:10245500ECAD2603AE261AAF2631B02648B1265F6D
:10246500B22676B3268DB426A4B526E9B626BBFAE0
:10247500272BFE0000277D900020E0FEA3E0AA06A2
:10248500F8AC027D017BFF7A2979F402276B900075
:1024950020E0FEA3E0AA06F8AC027D017BFF7A2AC4
:1024A500790B02276B900020E0FEA3E0AA06F8ACAA
:1024B500027D017BFF7A2A792602276B900020E0B6
:1024C500FEA3E0AA06F8AC027D017BFF7A2A7946D5
:1024D50002276B900020E0FEA3E0AA06F8AC027D7F
:1024E500017BFF7A2A796502276B900020E0FEA325
:1024F500E0AA06F8AC027D017BFF7A2A798B0227D8
:102505006B900020E0FEA3E0AA06F8AC027D017BFB
:10251500FF7A2A79A202276B900020E0FEA3E0AAA9
:1025250006F8AC027D017BFF7A2A79B502276B900C
:102535000020E0FEA3E0AA06F8AC027D017BFF7A4D
:102545002A79DB02276B900020E0FEA3E0AA06F8BB
:10255500AC027D017BFF7A2A79FE02276B90002071
:10256500E0FEA3E0AA06F8AC027D017BFF7A2B7999
:102575001902276B900020E0FEA3E0AA06F8AC0242
:102585007D017BFF7A2B794C02276B900020E0FEC2
:10259500A3E0AA06F8AC027D017BFF7A2B797002D5
:1025A500276B900020E0FEA3E0AA06F8AC027D01AF
:1025B5007BFF7A2B799402276B900020E0FEA3E045
:1025C500AA06F8AC027D017BFF7A2B79B302276B53
:1025D500900020E0FEA3E0AA06F8AC027D017BFF97
:1025E5007A2B79D802276B900020E0FEA3E0AA069B
:1025F500F8AC027D017BFF7A2B79FA02276B9000FC
:1026050020E0FEA3E0AA06F8AC027D017BFF7A2C50
:10261500791502276B900020E0FEA3E0AA06F8AC2E
:10262500027D017BFF7A2C792B02276B900020E03D
:10263500FEA3E0AA06F8AC027D017BFF7A2C794760
:1026450002276B900020E0FEA3E0AA06F8AC027D0D
:10265500017BFF7A2C796402276B900020E0FEA3B2
:10266500E0AA06F8AC027D017BFF7A2C797C022773
:102675006B900020E0FEA3E0AA06F8AC027D017B8A
:10268500FF7A2C799602276B900020E0FEA3E0AA42
:1026950006F8AC027D017BFF7A2C79BD02276B9091
:1026A5000020E0FEA3E0AA06F8AC027D017BFF7ADC
:1026B5002C79DC02276B900020E0FEA3E0AA06F847
:1026C500AC027D017BFF7A2C79FC02276B90002000
:1026D500E0FEA3E0AA06F8AC027D017BFF7A2D7926
:1026E5001002276B900020E0FEA3E0AA06F8AC02DA
:1026F5007D017BFF7A2D792E806C900020E0FEA372
:10270500E0AA06F8AC027D017BFF7A2D794B805655
:10271500900020E0FEA3E0AA06F8AC027D017BFF55
:102725007A2D796E8040900020E0FEA3E0AA06F89D
:10273500AC027D017BFF7A2D7987802A900020E00D
:10274500FEA3E0AA06F8AC027D017BFF7A2D7999FC
:102755008014900020E0FEA3E0AA06F8AC027D01FB
:102765007BFF7A2C79DC121FBE900020E0FEA3E0EF
:10277500AA06F97B0112A8EDE4900020F0A3F0D29F
:0127850087CC
:012786002230
:0E4CF800900011EFF0A3EBF0A3EAF0A3E9F0B7
:104D060078157C007D017BFF7A2E793B7E007F063D
:104D1600121B85781C7C007D017BFF7A2E79417EF3
:104D2600007F28121B85C2879001ABE06003024D0D
:104D3600CF900011E024A56040146003024DCC1210
:104D4600B6197BFF7A2D79B912000E90001BEFF091
:104D5600900012E0FBA3E0FAA3E0F912000E900027
:104D66001BE02F04F0E4FDFF12BDB490001B12BD42
:104D7600AE7BFF7A2D79B9803812B6197BFF7A2D72
:104D860079C212000E90001BEFF0900012E0FBA318
:104D9600E0FAA3E0F912000E90001BE02F04F0E405
:104DA600FDFF12BDB490001B12BDAE7BFF7A2D79BC
:104DB600C27D0112B621900012E0FBA3E0FAA3E047
:104DC600F97D0112B621D28722C287900011E02414
:104DD600A5602F24C07003024E9424FE7003024F78
:104DE6004E24E97003024EDB24B6602524A260033C
:104DF600024F95781C7C007D017BFF7A2D79CB02D2
:104E06004EA0781C7C007D017BFF7A2D79DC024E5A
:104E1600E7781C7C007D017BFF7A2D79EA12A8E4F5
:104E260020100B12B2FE781C7C007D018011781CCC
:104E36007C007D01900012E0FBA3E0FAA3E0F912EA
:104E4600A8E4781C7C007D017BFF300B377A2D7936
:104E5600FB121FBE900049E4F0A37400F0A3741186
:104E6600F07B017A00791C12AEAF90004974FFF016
:104E7600A3742DF0A374D9F07B017A00791C12AECD
:104E8600AF024F927A2E7902121FBE024F92781C01
:104E96007C007D017BFF7A2D79EA121FBE900012FD
:104EA600E0F9A3E0FAA3E0900049C9F0A3EAF0A371
:104EB600E9F07B017A00791C12AEAF90004974FFCD
:104EC600F0A3742DF0A374D9F07B017A00791C123B
:104ED600AEAF024F92781C7C007D017BFF7A2E7963
:104EE60004121FBE900012E0FBA3E0FAA3E0F91241
:104EF600000E90001BEFF024FFFFE434FFFE90004D
:104F060012E0FBA3E0FAA3E0F98F828E83E4121C81
:104F160003900012E0F9A3E0FAA3E0900049C9F07B
:104F2600A3EAF0A3E9F07B017A00791C12AEAF90F8
:104F3600004974FFF0A3742DF0A374D9F07B017AB5
:104F460000791C12AEAF8044781C7C007D017BFF8B
:104F56007A2E792C121FBE900012E0F9A3E0FAA374
:104F6600E0900049C9F0A3EAF0A3E9F07B017A00DA
:104F7600791C12AEAF90004974FFF0A3742DF0A314
:104F860074D9F07B017A00791C12AEAF12A8E7E45F
:064F960090001CF0D28720
:014F9C0022F2
:09BDAB0090001FE025E0FFE4FD1B
:05BDB400900049EDF0D4
:10BDB90012B86290004AEFF0900049E0600AE4FF8F
:08BDC90012B86290004AEFF08D
:01BDD100224F
:08B619007B017A007915E4FDC4
:0EB62100900044EBF0A3EAF0A3E9F0A3EDF0F3
:10B62F00E4A3F0900044E0FBA3E0FAA3E0F990005C
:10B63F0048E0F582758300121BC4FF60109000472D
:0DB64F00E0FD12BDB4900048E004F080D68C
:01B65C0022CB
:0EB58D0090001EEBF0A3EAF0A3E9F0A3EDF0AE
:10B59B00E4900023F0900021E0FF900023E0FEC335
:10B5AB009F502490001EE0FBA3E0FAA3E0F98E82EB
:10B5BB00758300121BC4FF900022E0FD12BDB490F6
:07B5CB000023E004F080CE34
:01B5D2002256
:09A8E400121FBE7B017A00791CF1
:0BA8ED00900044EBF0A3EAF0A3E9F0B8
:10A8F80012000E900048EFF0E4900047F0900048F6
:10A90800E0FF900047E0C39F503DE4900049F0907D
:10A918000049E0C39464748094805005E004F0809A
:10A92800EE900044E0FBA3E0FAA3E0F9A3E0F5828F
:10A93800758300121BC4FF12B862900049EFF090B3
:10A948000047E004F080B6E4900049F0900049E048
:0EA95800C39464748094805005E004F080EE97
:01A9660022CE
:10AC6B0078117C007D017BFF7A2E79697E007F0D48
:10AC7B00121B859001ABE07022C2877B017A0079B1
:10AC8B00161290E7C29C7B017A007911E4900022A6
:10AC9B00F07D0D12B58DD29CD28722C287E4900035
:10ACAB0011F078117C007D017BFF7A2E7932121F17
:10ACBB00BE7B017A00791312628890004974FFF011
:10ACCB00A3742DF0A374D9F07B017A00791112AE25
:0CACDB00AF7B017A00791112A8EDD2873E
:01ACE700224A
:10002600402321246046625E262A003A5B3C253F37
:1000360058545D3D29000D0A0A25733E20002563AC
:10004600002564000D0A0A2041435455414C2049BD
:10005600445F434C49454E54453D25730D0A0A00FD
:100066000D0A0A20444947495445205355204E5508
:1000760045564F2049445F434C49454E54453D0043
:100086000D0A0A204441544F204D4F4449464943E6
:1000960041444F2049445F434C49454E54453D2514
:1000A600730D0A0A000D0A0A2041435455414C209B
:1000B600434F445F5041524B3D25730D0A0A000DD4
:1000C6000A0A20444947495445205355204E554570
:1000D600564F20434F445F5041524B3D000D0A0A94
:1000E600204441544F204D4F444946494341444FD3
:1000F60020434F445F5041524B3D25730D0A0A0081
:100106000D0A0A2041435455414C205449454D504F
:100116004F5F4752414349413D25730D0A0A000D81
:100126000A0A20444947495445205355204E55450F
:10013600564F205449454D504F5F47524143494120
:100146003D000D0A0A204441544F204D4F44494674
:10015600494341444F205449454D504F5F47524112
:100166004349413D25730D0A0A000D0A0A20414301
:100176005455414C2053494E5F434F42524F2049FC
:100186004E484142494C495441444F3D25730D0A5E
:100196000A000D0A0A2041435455414C2053494E4A
:1001A6005F434F42524F204752415449533D2573B6
:1001B6000D0A0A000D0A0A2041435455414C2053AA
:1001C600494E5F434F42524F2047524154495320B4
:1001D600592053414C49444120454C204D49534DEB
:1001E6004F204449413D25730D0A0A000D0A0A2095
:1001F600444947495445205355204E5545564F20AE
:1002060053494E5F434F42524F3D000D0A0A20416B
:10021600435455414C20444542554720494E484198
:1002260042494C495441444F3D25730D0A0A000D7D
:100236000A0A2041435455414C2044454255472023
:10024600484142494C495441444F3D25730D0A0AE1
:10025600000D0A0A2044494749544520454C204E82
:100266005545564F2045535441444F20444520445C
:10027600454255473D000D0A0A2041435455414C1D
:10028600205553455F4C505220494E484142494CF7
:10029600495441444F3D25730D0A0A000D0A0A20B0
:1002A60041435455414C205553455F4C50522048CC
:1002B6004142494C495441444F3D25730D0A0A00B9
:1002C6000D0A0A2044494749544520454C204E55BD
:1002D60045564F2045535441444F204445205553DD
:1002E600455F4C50523D000D0A0A2050414E544184
:1002F6004C4C41204C434420484142494C495441CE
:1003060044413D25730D0A0A000D0A0A2050414E4C
:1003160054414C4C4120524153504245525259206F
:1003260020484142494C49544144413D25730D0AF8
:100336000A000D0A0A2044494749544520454C20E5
:100346004E5545564F2045535441444F2044452071
:100356004C412050414E54414C4C41203D000D0A29
:100366000A2041435455414C20434F4D5041524180
:1003760043494F4E2041435449564120204841426B
:10038600494C49544144413D25730D0A0A000D0A62
:100396000A20455850494445205441524A45544143
:1003A6002050554C53414E444F20424F544F4E0D12
:1003B6000A0A000D0A0A204558504944452054416E
:1003C600524A455441204155544F4D4154494341A9
:1003D6000D0A0A000D0A0A2044494749544520459A
:1003E6004C204E5545564F2045535441444F2044CA
:1003F600454C20455850454449444F523D000D0A4E
:100406000A2041435455414C20414E5449504153D2
:10041600534241434B20494E484142494C4954417D
:10042600444F3D25730D0A0A000D0A0A2041435424
:1004360055414C20414E5449504153534241434B40
:1004460020484142494C495441444F3D25730D0AC9
:100456000A000D0A0A2044494749544520454C20C4
:100466004E5545564F2045535441444F2044452050
:10047600414E5449504153534241434B3D000D0AAE
:100486000A2041435455414C20504C414341204998
:100496004E484142494C495441444F3D25730D0A4B
:1004A6000A000D0A0A2041435455414C20504C4144
:1004B600434120484142494C495441444F3D2573EC
:1004C6000D0A0A000D0A0A204449474954452045A9
:1004D6004C204E5545564F2045535441444F2044D9
:1004E6004520504C4143413D000D0A0A20414354EA
:1004F60055414C20414444524553535F484947486F
:100506005F424F4152443D25730D0A0A000D0A0A07
:1005160020444947495445204C41204E55455641B3
:1005260020414444524553535F484947485F424F30
:100536004152443D000D0A0A2041435455414C2086
:10054600484F524152494F20494E484142494C4931
:100556005441444F3D25730D0A0A000D0A0A2041F5
:10056600435455414C20484F524152494F2048412F
:1005760042494C495441444F3D25730D0A0A000D2A
:100586000A0A2044494749544520454C204E5545C2
:10059600564F2045535441444F20444520484F521E
:1005A6004152494F3D000D0A0A2044696769746546
:1005B60020486F72612030383A3030204D696E75B0
:1005C600746F732044657364653A20000D0A0A202F
:1005D600486F72612050726F6772616D616461204D
:1005E60044657364653A200025633A000D0A0A20C3
:1005F60044696769746520486F72613A4D696E7522
:10060600746F732048617374613A20000D0A0A20E2
:10061600486F72612050726F6772616D616461200C
:1006260048617374613A20000D0A2044657364655D
:10063600202048617374610D0A002025630025633C
:10064600202020000D0A0A20446967697465206C21
:100656006F73206469617320612070726F677261C5
:100666006D6172204C756E6573203D20322C200022
:100676004D6172746573203D20332C204D6965727F
:10068600636F6C6573203D20342C204A7565766552
:1006960073203D20352C2000566965726E657320E7
:1006A6003D20362C2053616261646F203D20372C3B
:1006B60020446F6D696E676F203D2031203A20001F
:1006C6000D0A0A20446961732050726F6772616D6A
:1006D60061646F73203A2000204C756E6573003D8F
:1006E6002025632C00204D617274657300204D69CE
:1006F6006572636F6C657300204A75657665730075
:1007060020566965726E6573002053616261646F7D
:100716000020446F6D696E676F003D2025630020E1
:100726004C756E6573203D2050726F6772616D6106
:10073600646F0D0A00204C756E6573203D204E6F68
:100746002070726F6772616D61646F0D0A00204DD3
:100756006172746573203D2050726F6772616D61BE
:10076600646F0D0A00204D6172746573203D204E42
:100776006F2070726F6772616D61646F0D0A002081
:100786004D696572636F6C6573203D2050726F67AB
:1007960072616D61646F0D0A00204D696572636F49
:1007A6006C6573203D204E6F2070726F6772616DAD
:1007B60061646F0D0A00204A7565766573203D20D9
:1007C60050726F6772616D61646F0D0A00204A7521
:1007D60065766573203D204E6F2070726F6772617B
:1007E6006D61646F0D0A0020566965726E6573202F
:1007F6003D2050726F6772616D61646F0D0A002053
:10080600566965726E6573203D204E6F2070726F5B
:100816006772616D61646F0D0A00205361626164E5
:100826006F203D2050726F6772616D61646F0D0AB3
:10083600002053616261646F203D204E6F2070720C
:100846006F6772616D61646F0D0A0020446F6D6998
:100856006E676F203D2050726F6772616D61646FC5
:100866000D0A0020446F6D696E676F203D204E6F44
:100876002070726F6772616D61646F0D0A000D0AF8
:100886000A2044696769746520656C206E756D651C
:10089600726F2064656C20486F726172696F2061A7
:1008A6002070726F6772616D6172203D20000D0AC3
:1008B6000A2050726F6772616D6172207365677589
:1008C6006E646F20486F726172696F2073693D288C
:1008D6003129206E6F3D2830293D20000D0A0A205F
:1008E60041435455414C205449504F5F5645484961
:1008F60043554C4F204D454E5355414C20494E488B
:100906004142494C495441444F3D25730D0A0A0062
:100916000D0A0A2041435455414C205449504F5F1B
:100926005645484943554C4F204D454E5355414C2D
:1009360020484142494C495441444F3D25730D0AD4
:100946000A000D0A0A2044494749544520454C20CF
:100956004E5545564F2045535441444F204445205B
:100966005449504F5F5645484943554C4F204D45D5
:100976004E5355414C3D000D0A0A20414354554102
:100986004C205449504F5F5645484943554C4F20DB
:10099600204D454E5355414C20484142494C4954FF
:1009A60041444F3D25730D0A0A000D0A0A204143B2
:1009B6005455414C20414E544950415353424143B2
:1009C6004B204D454E5355414C20494E48414249D6
:1009D6004C495441444F3D25730D0A0A000D0A0A3D
:1009E6002041435455414C20414E544950415353A4
:1009F6004241434B204D454E5355414C20484142C0
:100A0600494C495441444F3D25730D0A0A000D0ACD
:100A16000A2044494749544520454C204E554556E1
:100A26004F2045535441444F20444520414E54499C
:100A3600504153534241434B204D454E5355414C33
:100A46003D000D0A0A2041435455414C20414E5465
:100A560049504153534241434B20204D454E535537
:100A6600414C20484142494C495441444F3D25732D
:100A76000D0A0A000D0A0A2041435455414C2046EE
:100A8600454348412056454E43494D49454E544FEE
:100A96002050415353574F52443A25730D0A0A00CA
:100AA6000D0A0A2F3E496420526567697374726F96
:100AB6003A002573000D0A0A2F3E50617373776F53
:100AC60072643A000D0A0A20444947495445204CAD
:100AD60041204E5545564120464543484120444510
:100AE6002056454E43494D49454E544F3D000D0A4B
:100AF6000A2025730D0A0A000D0A0A202558000D42
:100B06000A0A2041435455414C204645434841205A
:100B160044452056454E43494D49454E544F205075
:100B2600524F4752414D414441203D25730D0A0A1B
:100B3600000D0A206E756D65726F2064656C204825
:100B46006F726172696F202070726F6772616D617A
:100B5600646F203D2025630D0A000D0A2020484FB2
:100B6600524152494F20484142494C495441444F11
:100B760020203D204F4E0D0A000D0A204469617366
:100B86002050726F6772616D61646F730D0A000D9C
:100B96000A2020534547554E444F20484F52415254
:100BA600494F20484142494C495441444F20203D39
:100BB600204F4E0D0A000D0A20534547554E444F0F
:100BC60020484F524152494F20484142494C4954CE
:100BD60041444F20203D204F46460D0A000D0A2075
:100BE60020484F524152494F20484142494C4954AE
:100BF60041444F20203D204F46460D0A000D0A0A6B
:100C06002041435455414C204D454E5355414C20AF
:100C1600504F5220424F434120494E484142494C91
:100C2600495441444F3D25730D0A0A000D0A0A2016
:100C360041435455414C204D454E5355414C20504F
:100C46004F5220424F434120484142494C4954416A
:100C5600444F3D25730D0A0A000D0A0A20444947F0
:100C660049544520454C204E5545564F2045535432
:100C760041444F2044454C204D454E5355414C3D33
:100C8600000D0A0A2041435455414C205052454319
:100C96004152474120494E484142494C49544144FA
:100CA6004F3D25730D0A0A000D0A0A20414354558B
:100CB600414C205052454341524741204841424908
:100CC6004C495441444F3D25730D0A0A000D0A0A4A
:100CD6002044494749544520454C204E5545564FDA
:100CE6002045535441444F204445205052454341EA
:100CF6005247413D000D0A2049445F434C49454E49
:100D060054455F50524F4752414D41444F203D207C
:100D160025730D0A000D0A20434F445F5041524B84
:100D26005F50524F4752414D41444F203D2025735D
:100D36000D0A000D0A2050524F4752414D41444F73
:100D4600204445425547203D204F4E0D0A000D0ACE
:100D56002050524F4752414D41444F204445425541
:100D660047203D204F46460D0A000D0A20555345A3
:100D76005F4C5052203D204F46460D0A000D0A207A
:100D86005553455F4C5052203D204F4E0D0A000DE5
:100D96000A2050414E54414C4C41204C4344205073
:100DA600524F4752414D4144410D0A000D0A205011
:100DB600414E54414C4C41205241535042455252AF
:100DC60059202050524F4752414D4144410D0A008F
:100DD6000D0A20455850494445205441524A45542D
:100DE600412050554C53414E444F20424F544F4E94
:100DF6000D0A000D0A2045585049444520544152D9
:100E06004A455441204155544F4D41544943410DA3
:100E16000A000D0A2020414E544950415353424185
:100E2600434B203D204F46460D0A000D0A20414EF9
:100E36005449504153534241434B203D204F4E0DA0
:100E46000A000D0A20504C414341203D204F4646A2
:100E56000D0A000D0A20504C414341203D204F4EC3
:100E66000D0A000D0A2041435455414C204144448B
:100E7600524553535F484947485F424F41524420C9
:100E86003D2025730D0A000D0A205449504F5F5628
:100E960045484943554C4F204D454E5355414C20EE
:100EA6003D204F46460D0A000D0A205449504F5F1B
:100EB6005645484943554C4F204D454E5355414C98
:100EC600203D204F4E0D0A000D0A20414E54495038
:100ED6004153534241434B204D454E5355414C20BF
:100EE6003D204F46460D0A000D0A2020414E54492A
:100EF600504153534241434B204D454E5355414C6F
:100F0600203D204F4E0D0A000D0A4D454E535541CA
:100F16004C20504F5220424F4341203D204F4646E1
:100F26000D0A000D0A20204D454E5355414C2050C8
:100F36004F5220424F4341203D204F4E0D0A000D97
:100F46000A2041435455414C2046454348412044DC
:100F5600452056454E43494D49454E544F20505223
:100F66004F4752414D414441203D25730D0A000D26
:100F76000A204E756D65726F206465207469636B17
:100F86006574203D25730D0A000D0A2049445F4310
:100F96004C49454E54452020202020202020202D3D
:100FA6002D2D20434D442030204964656E746966BA
:100FB600696361646F722064656C20636C69656E39
:100FC6007465206D6178696D6F20323535000D0AC4
:100FD60020434F445F5041524B20202020202020A8
:100FE600202020202D2D2D20434D44203120456CDE
:100FF600206E756D65726F2064656C20706172710C
:101006007565616465726F206D6178696D6F2032F8
:101016003535000D0A20545F47524143494120208F
:101026002020202020202020202D2D2D20434D441F
:101036002032205469656D706F2073696E20636F6E
:1010460062726F2030302C20206D6178696D6F20C0
:10105600323535000D0A2053494E5F434F42524FF9
:10106600202020202020202020202D2D2D20434D03
:1010760044203320496E686162696C697461646FEB
:101086003D20302C204772617469733D2031202C3D
:101096002047726174697320792073616C69646199
:1010A60020656C206D69736D6F206469613D203227
:1010B600000D0A20444542554720202020202020AC
:1010C600202020202020202D2D2D20434D4420346B
:1010D60020486162696C69746172203D20312C2060
:1010E600496E686162696C69746172203D203000E6
:1010F6000D0A205553455F4C5052202020202020B9
:101106002020202020202D2D2D20434D4420352029
:10111600486162696C69746172203D20312C2049F6
:101126006E686162696C69746172203D2030000DE1
:101136000A205449504F5F50414E54414C4C412077
:1011460020202020202D2D2D20434D4420362050B8
:10115600414E54414C4C41204C4344203D3020509C
:10116600414E54414C4C41205241535042455252FB
:10117600493D31000D0A20434152445F4155544FC9
:101186004D4154494341202020202D2D2D20434DF3
:1011960044203720424F54544F4E3D302041555441
:1011A6004F4D41544943413D31000D0A20414E54B3
:1011B60049504153534241434B20202020202020B8
:1011C6002D2D2D20434D44203820486162696C69DD
:1011D600746172203D20312C20496E686162696C11
:1011E60069746172203D2030000D0A20504C414345
:1011F6004120202020202020202020202020202DBB
:101206002D2D20434D44203920486162696C697454
:101216006172203D20312C20496E686162696C69DB
:10122600746172203D2030000D0A2041444452452D
:1012360053535F484947485F424F415244202D2D42
:101246002D20434D44203130204C61206469726565
:101256006363696F6E20616C74612064656C2062E3
:101266006F6172642064656C206E756D65726F20A7
:101276003520616C20392073696E6F207365207587
:101286007361206465626520697220656E20300096
:101296000D0A20484F524152494F2020202020203D
:1012A6002020202020202D2D2D20434D442031317B
:1012B6002050726F67616D6120313020686F7261F6
:1012C60072696F732064656C203120616C20313047
:1012D600000D0A2056414C4944415F564548495F36
:1012E6004D454E5355414C2D2D2D20434D44203117
:1012F6003220486162696C69746172203D20312C2C
:1013060020496E686162696C69746172203D2030A3
:10131600000D0A205553455F4150425F4D454E53DF
:1013260055414C202020202D2D2D20434D44203189
:101336003320486162696C69746172203D20312CEA
:1013460020496E686162696C69746172203D203063
:10135600000D0A204D454E5355414C455309090988
:1013660020202020202D2D2D20434D4420313420B7
:10137600486162696C69746172203D20312C204994
:101386006E686162696C69746172203D2030000D7F
:101396000A205645525F50524F4752414D414349EC
:1013A6004F4E2020202D2D2D20434D442031352019
:1013B6004D756573747261206C612070726F67720F
:1013C600616D6163696F6E000D0A20415955444194
:1013D60020202020202020202020202020202D2DED
:1013E6002D20434D44203136204D7565737472614E
:1013F600206C6F7320636F6D616E646F73000D0AEE
:101406002053414C495220202020202020202020FB
:10141600202020202D2D2D20434D442031372053D0
:10142600616C69722064652070726F6772616D61AC
:1014360063696F6E000D0A0A53697374656D6120E6
:1014460064652050726F6772616D6163696F6E20AB
:10145600457870656469646F72200D0A0D0A000D87
:101466000A436F6D616E646F206E6F2065786973D5
:1014760074652027257327003A5B3C253F58545D49
:101486003D2900232A594A41494D4563616D696CDE
:10149600744B0077727A32357136382D393166538E
:0F14A6002E4000200D0A00200D0A00220D0A0022
:108804005401C52F0000000000000000000000001B
:10881400000000000000004B01BA61646D696E0045
:108824000000000000603C01D9300000310000323B
:10883400000033000034000035000036000037002B
:10884400003800003900003130003131003132008D
:1088540031330031340031350031360031370031E5
:0588640038003139006D
:0B56D40090005DEBF0A3EAF0A3E9F00A
:1056DF0078627C007D017BFF7A14797E7E007F0BE0
:1056EF00121B85786D7C007D017BFF7A1479897E92
:1056FF00007F10121B85787D7C007D017BFF7A1463
:10570F0079997E007F10121B857B017A0079987F33
:10571F00507E0312AF1A7B017A00799812901EEF18
:10572F003395E0FEEF64014E78627C007D017BFFD4
:10573F0060067A00792680047A007931121FBE90B4
:10574F00005DE0FBA3E0FAA3E0F912000E90006009
:10575F00EFF0E4A3F0900061E0FFC3940A7480942B
:10576F008040030258C690005DE0FBA3E0FAA3E07F
:10577F00F98F82758300121BC4FD7C0074622FF5B4
:10578F0082E43400F583E02DFFEC339001B6F0A3F3
:10579F00EFF07E00540FFFA3EEF0A3EFF0700BE0DD
:1057AF0004F070069001B8E004F09001B8E0FEA399
:1057BF00E0246CF58274003EF583E07E002DFFEE51
:1057CF003C9001B6F0A3EFF07E00540FFFA3EEF074
:1057DF00A3EFF0700BE004F070069001B8E004F056
:1057EF009001B8E0FEA3E0247CF58274003EF583BF
:1057FF00E0FF9001B6E0FEA3E06FFF9001B6EEF080
:10580F00FEA3EFF0D394FFEE940040059001B6E4B1
:10581F00F09001B6E0FEA3E0FFC3947AEE9400404F
:10582F0015D3EF94FFEE9400500CEF547AFF9001D4
:10583F00B6E4F0A3EFF0C39001B7E094309001B657
:10584F00E09400500CA3E02440F09001B6E0340047
:10585F00F09001B6E0FEA3E0FFC3945BEE9400402E
:10586F0014D3EF9460EE9400500BE02407F09001F6
:10587F00B6E03400F09001B6E0FEA3E0FFC3943A27
:10588F00EE94004014D3EF9440EE9400500BE024BC
:10589F00F9F09001B6E034FFF09001B6A3E0FF906D
:1058AF000061E0248DF582E43400F583EFF0900081
:1058BF0061E004F0025764900061E0248DF582E40A
:0C58CF003400F583E4F07B017A00798D51
:0158DB0022AA
:0BAF8000900046EBF0A3EAF0A3E9F01C
:10AF8B00E490004CF090004CE0FFC3941474809458
:10AF9B00805041EF75F003A424D9F9740135F0FA10
:10AFAB007B0178497C007D01121FBE78497C007DB6
:10AFBB0001900046E0FBA3E0FAA3E0F9121ED5EFE7
:10AFCB003395E04F700690004CE0FF2290004CE070
:06AFDB0004F080B17FFFCD
:01AFE100224D
:08B6A000E0FBA3E0FAA3E0F9CE
:0BB6A80090005DEBF0A3EAF0A3E9F0D6
:10B6B30078607C007D017B017A0179BA121FBE7824
:10B6C300607C007D0190005DE0FBA3E0FAA3E0F95C
:0EB6D300121ED5EF3395E04F7002FF227FFF6D
:01B6E1002246
:06B764007B017A0079323E
:0BB76A0090005DEBF0A3EAF0A3E9F013
:10B7750078607C007D017BFF7A1479A97E007F04C7
:10B78500121B859000677401F0A37400F0A3746028
:0FB79500F090005DE0FBA3E0FAA3E0F902860567
:10A38500E0FBA3E0FAA3E02FF9EA3EFAE92401F99C
:03A39500E43AFAAD
:0BA39800900046EBF0A3EAF0A3E9F010
:10A3A30078497C007D017BFF7A1479AD7E007F04C0
:10A3B300121B85784D7C007D017BFF7A1479B17E79
:10A3C300007F04121B85900046E0FBA3E0FAA3E0A4
:10A3D300F9121BABFFB4200C900047E475F0011297
:10A3E3001C3780E2EF900067B4220D7401F0A37470
:10A3F30000F0A3744DF080167401F0A37400F0A371
:10A403007449F0900046E0FBA3E0FAA3E0F912865A
:01A413000543
:01A414002225
:10BF0F0090007A7401F0A37401F0A374C5F07BFF65
:07BF1F007A00793C023F911A
:08AAEB007A0079637B01E4FDB0
:0EAAF300900071EBF0A3EAF0A3E9F0A3EDF000
:10AB010012C025900071E0FBA3E0FAA3E0F9EF1277
:10AB11001BF1900074E0701D900071E0FBA3E0FA5E
:10AB2100A3E0F9121BAB90007AF07BFF7A00794425
:10AB3100123F9180057F2A12B862900071E0FBA359
:10AB4100E0FAA3E0F9121BABFF7E00900072E475FE
:10AB5100F001121C37900071E0FBA3E0FAA3E0F9C9
:09AB6100E4121BF1EF640D709782
:01AB6A0022C8
:10979600E4FDFC7FA812B95D7E00900050EEF0A3B8
:1097A600EFF090007A74FFF0A37400F0A37447F012
:1097B600A3EEF0A3EFF07B017A007946123F8B907F
:1097C600007A7401F0A37400F0A37446F07BFF7A6C
:1097D60000794A123F917BFF7A007966123F917AAF
:1097E60000794612AAEF7B017A00794612898090A9
:1097F6000050EEF0A3EFF0FBE4FDFC7FA812B223CD
:10980600E4FDFC7FA812B95D7E00900050EEF0A347
:10981600EFF090007A74FFF0A37400F0A37447F0A1
:10982600A3EEF0A3EFF07B017A007946123F8B900E
:10983600007A7401F0A37400F0A37446F07BFF7AFB
:06984600007986023F914B
:1093EE007D027C007FA812B95D7E00900050EEF0E9
:1093FE00A3EFF090007A74FFF0A37400F0A374470B
:10940E00F0A3EEF0A3EFF07B017A007946123F8BCA
:10941E0090007A7401F0A37400F0A37446F07BFF01
:10942E007A0079AB123F917BFF7A0079C5123F919A
:10943E007B017A007946E4FD12AAF37B017A00796A
:10944E0046128980900050EEF0A3EFF0FB7D027C77
:10945E00007FA812B2237D027C007FA812B95D7E28
:10946E0000900050EEF0A3EFF090007A74FFF0A39E
:10947E007400F0A37447F0A3EEF0A3EFF07B017A33
:10948E00007946123F8B90007A7401F0A37400F0BD
:0D949E00A37446F07BFF7A0079E3023F9152
:1094AB007D047C007FA812B95D7E00900050EEF029
:1094BB00A3EFF090007A74FFF0A37400F0A374474D
:1094CB00F0A3EEF0A3EFF07B017A007946123F8B0D
:1094DB0090007A7401F0A37400F0A37446F07BFF44
:1094EB007A017906123F917BFF7A017925123F9120
:1094FB007B017A007946E4FD12AAF37B017A0079AD
:10950B0046128980900050EEF0A3EFF0FB7D047CB7
:10951B00007FA812B2237D047C007FA812B95D7E68
:10952B0000900050EEF0A3EFF090007A74FFF0A3E0
:10953B007400F0A37447F0A3EEF0A3EFF07B017A75
:10954B00007946123F8B90007A7401F0A37400F0FF
:0D955B00A37446F07BFF7A017948023F912E
:106B73007D067C007FA812B95D7E00900050EEF088
:106B8300A3EFF090007A74FFF0A37400F0A37447AE
:106B9300F0A3EEF0A3EFF07B017A007946123F8B6E
:106BA300900050E07002A3E0701590007A04F0A307
:106BB3007400F0A37446F07BFF7A017970803590FE
:106BC3000050E07004A3E06401701590007A04F0B3
:106BD300A37400F0A37446F07BFF7A0179988014C4
:106BE30090007A7401F0A37400F0A37446F07BFF65
:106BF3007A0179BA123F917BFF7A0179F2123F91C0
:106C03007B017A007946E4FD12AAF37B017A0079CD
:106C130046128980900050EEF0A3EFF0FB7D067CD6
:106C2300007FA812B2237D067C007FA812B95D7E87
:106C330000900050EEF0A3EFF090007A74FFF0A301
:106C43007400F0A37447F0A3EEF0A3EFF07B017A96
:106C5300007946123F8B900050E07002A3E070155C
:106C630090007A04F0A37400F0A37446F07BFF7ADB
:106C73000179708035900050E07004A3E0640170E6
:106C83001590007A04F0A37400F0A37446F07BFF20
:106C93007A017998801490007A7401F0A37400F05B
:0D6CA300A37446F07BFF7A0179BA123F918D
:016CB00022C1
:107A5E007D087C007FA812B95D7E00900050EEF08C
:107A6E00A3EFF090007A74FFF0A37400F0A37447B4
:107A7E00F0A3EEF0A3EFF07B017A007946123F8B74
:107A8E00900050E07002A3E0701590007A04F0A30D
:107A9E007400F0A37446F07BFF7A02791180149083
:107AAE00007A7401F0A37400F0A37446F07BFF7AA1
:107ABE00027935123F917BFF7A027957123F917B03
:107ACE00017A007946E4FD12AAF37B017A00794629
:107ADE00128980900050EEF0A3EFF0FB7D087C0041
:107AEE007FA812B2237D087C007FA812B95D7E00AC
:107AFE00900050EEF0A3EFF090007A74FFF0A374B4
:107B0E0000F0A37447F0A3EEF0A3EFF07B017A0030
:107B1E007946123F8B900050E07002A3E0701590F2
:107B2E00007A04F0A37400F0A37446F07BFF7A028F
:107B3E007911801490007A7401F0A37400F0A3748C
:0B7B4E0046F07BFF7A027935123F9170
:017B59002209
:107B5A007D0A7C007FA812B95D7E00900050EEF08D
:107B6A00A3EFF090007A74FFF0A37400F0A37447B7
:107B7A00F0A3EEF0A3EFF07B017A007946123F8B77
:107B8A00900050E07002A3E0701590007A04F0A310
:107B9A007400F0A37446F07BFF7A02797C8014901B
:107BAA00007A7401F0A37400F0A37446F07BFF7AA4
:107BBA000279A2123F917BFF7A0279C6123F917B2A
:107BCA00017A007946E4FD12AAF37B017A0079462C
:107BDA00128980900050EEF0A3EFF0FB7D0A7C0042
:107BEA007FA812B2237D0A7C007FA812B95D7E00AD
:107BFA00900050EEF0A3EFF090007A74FFF0A374B7
:107C0A0000F0A37447F0A3EEF0A3EFF07B017A0033
:107C1A007946123F8B900050E07002A3E0701590F5
:107C2A00007A04F0A37400F0A37446F07BFF7A0292
:107C3A00797C801490007A7401F0A37400F0A37424
:0B7C4A0046F07BFF7A0279A2123F9106
:017C5500220C
:107C56007D0E7C007FA812B95D7E00900050EEF08C
:107C6600A3EFF090007A74FFF0A37400F0A37447BA
:107C7600F0A3EEF0A3EFF07B017A007946123F8B7A
:107C8600900050E07002A3E0701590007A04F0A313
:107C96007400F0A37446F07BFF7A0279ED801490AD
:107CA600007A7401F0A37400F0A37446F07BFF7AA7
:107CB60003790F123F917BFF7A037938123F917B4C
:107CC600017A007946E4FD12AAF37B017A0079462F
:107CD600128980900050EEF0A3EFF0FB7D0E7C0041
:107CE6007FA812B2237D0E7C007FA812B95D7E00AC
:107CF600900050EEF0A3EFF090007A74FFF0A374BA
:107D060000F0A37447F0A3EEF0A3EFF07B017A0036
:107D16007946123F8B900050E07002A3E0701590F8
:107D2600007A04F0A37400F0A37446F07BFF7A0295
:107D360079ED801490007A7401F0A37400F0A374B6
:0B7D460046F07BFF7A037964123F9146
:017D5100220F
:10926E007D0F7C007FA812B95D7E00900050EEF05D
:10927E00A3EFF090007A74FFF0A37400F0A374478C
:10928E00F0A3EEF0A3EFF07B017A007946123F8B4C
:10929E00900050E07002A3E07BFF70067A03799491
:1092AE0080047A0379B9123F917BFF7A0379DA123F
:1092BE003F917B017A007946E4FD12AAF37B017A95
:1092CE00007946128980900050EEF0A3EFF0FB7DFE
:1092DE000F7C007FA812B2237D0F7C007FA812B9ED
:1092EE005D7E00900050EEF0A3EFF090007A74FFD8
:1092FE00F0A37400F0A37447F0A3EEF0A3EFF07B9D
:10930E00017A007946123F8B900050E07002A3E084
:10931E007BFF70067A03799480047A0379B9123F41
:01932E0091AD
:01932F00221B
:107D52007D107C007FA812B95D7E00900050EEF08D
:107D6200A3EFF090007A74FFF0A37400F0A37447BD
:107D7200F0A3EEF0A3EFF07B017A007946123F8B7D
:107D8200900050E07002A3E0701590007A04F0A316
:107D92007400F0A37446F07BFF7A04790480149097
:107DA200007A7401F0A37400F0A37446F07BFF7AAA
:107DB20004792F123F917BFF7A047958123F917B0D
:107DC200017A007946E4FD12AAF37B017A00794632
:107DD200128980900050EEF0A3EFF0FB7D107C0042
:107DE2007FA812B2237D107C007FA812B95D7E00AD
:107DF200900050EEF0A3EFF090007A74FFF0A374BD
:107E020000F0A37447F0A3EEF0A3EFF07B017A0039
:107E12007946123F8B900050E07002A3E0701590FB
:107E2200007A04F0A37400F0A37446F07BFF7A0496
:107E32007904801490007A7401F0A37400F0A374A2
:0B7E420046F07BFF7A04792F123F917D
:017E4D002212
:107E4E007D117C007FA812B95D7E00900050EEF08F
:107E5E00A3EFF090007A74FFF0A37400F0A37447C0
:107E6E00F0A3EEF0A3EFF07B017A007946123F8B80
:107E7E00900050E07002A3E0701590007A04F0A319
:107E8E007400F0A37446F07BFF7A0479848014901A
:107E9E00007A7401F0A37400F0A37446F07BFF7AAD
:107EAE000479A8123F917BFF7A0479CA123F917B25
:107EBE00017A007946E4FD12AAF37B017A00794635
:107ECE00128980900050EEF0A3EFF0FB7D117C0044
:107EDE007FA812B2237D117C007FA812B95D7E00AF
:107EEE00900050EEF0A3EFF090007A74FFF0A374C0
:107EFE0000F0A37447F0A3EEF0A3EFF07B017A003D
:107F0E007946123F8B900050E07002A3E0701590FE
:107F1E00007A04F0A37400F0A37446F07BFF7A0499
:107F2E007984801490007A7401F0A37400F0A37425
:0B7F3E0046F07BFF7A0479A8123F9107
:017F49002215
:1086E9007D127C007FA812B95D7E00900050EEF0EB
:1086F900A3EFF090007A74FFF0A37400F0A374471D
:10870900F0A3EEF0A3EFF07B017A007946123F8BDC
:10871900900050E07002A3E0700690007A04800592
:1087290090007A7401F0A37400F0A37446F07BFF03
:108739007A0479EF123F917BFF7A057913123F9101
:108749007B017A007946E4FD12AAF37B017A00796C
:1087590046128980900050EEF0A3EFF0FB7D127C69
:10876900007FA812B2237D127C007FA812B95D7E1A
:1087790000900050EEF0A3EFF090007A74FFF0A3A0
:108789007400F0A37447F0A3EEF0A3EFF07B017A35
:10879900007946123F8B900050E07002A3E070060A
:1087A90090007A04800590007A7401F0A37400F0B7
:0D87B900A37446F07BFF7A0479EF123F9124
:0187C6002290
:10BC44009000747419F0A37432F0A3744BF0A374CD
:10BC540064F0A3747DF0A37496F0A374AFF0A3749E
:10BC6400C8F0A374E1F0A374FAF0E4A3F07B017AC2
:03BC7400007974E0
:01BC770022AA
:0A750A00900061EEF0FCA3EFF0FD2D
:107514007FA812B95D7E0090006DEEF0A3EFF090AD
:10752400007A74FFF0A37400F0A37447F0A3EEF0A4
:10753400A3EFF07B017A007963123F8B90006DE03A
:107544007002A3E0701590007A04F0A37400F0A315
:107554007463F07BFF7A05793B801490007A7401A0
:10756400F0A37400F0A37463F07BFF7A05796112D1
:107574003F917BFF7A057985123F917B017A0079EF
:1075840063E4FD12AAF37B017A0079631289809087
:10759400006DEEF0A3EFF0900061E0FCA3E0FDAB22
:1075A400077FA812B223900061E0FCA3E0FD7FA84E
:1075B40012B95D7E0090006DEEF0A3EFF090007ABA
:1075C40074FFF0A37400F0A37447F0A3EEF0A3EFEC
:1075D400F07B017A007963123F8B90006DE07002BA
:1075E400A3E090006F7018F0A3F090007A04F0A369
:1075F4007400F0A37463F07BFF7A05793B8017E491
:10760400F0A304F090007AF0A37400F0A37463F084
:0F7614007BFF7A057961123F9190006FA3E0FF31
:017623002244
:0858DC00900061EEF0A3EFF073
:1058E4007BFF7A0579AC123F9112AAEB7BFF7A0514
:1058F40079D2123F91900062E02407FD900061E0AC
:105904003400FC900063E0FB7FA812B22390006295
:10591400E02407FD900061E03400FC7FA812B95D2B
:105924007BFF7A00794490007AEFF0123F91900067
:1059340062E02408FD900061E03400FC900064E023
:10594400FB7FA812B223900062E02408FD9000615E
:10595400E03400FC7FA812B95D7BFF7A0579EE90F4
:10596400007AEFF0123F91900062E02409FD90006C
:1059740061E03400FC900066E0FB7FA812B2239043
:105984000062E02409FD900061E03400FC7FA8126D
:10599400B95D7BFF7A00794490007AEFF0123F9171
:1059A400900062E0240AFD900061E03400FC900065
:1059B40067E0FB7FA812B223900062E0240AFD9006
:1059C4000061E03400FC7FA812B95D7BFF7A0079A6
:1059D4004490007AEFF0123F917BFF7A0579F2123E
:1059E4003F9112AAEB7BFF7A067912123F91900045
:1059F40062E0240BFD900061E03400FC900063E061
:105A0400FB7FA812B223900062E0240BFD9000619A
:105A1400E03400FC7FA812B95D7BFF7A00794490E2
:105A2400007AEFF0123F91900062E0240CFD9000A8
:105A340061E03400FC900064E0FB7FA812B2239084
:105A44000062E0240CFD900061E03400FC7FA812A9
:105A5400B95D7BFF7A0579EE90007AEFF0123F9101
:105A6400900062E0240DFD900061E03400FC9000A1
:105A740066E0FB7FA812B223900062E0240DFD9043
:105A84000061E03400FC7FA812B95D7BFF7A0079E5
:105A94004490007AEFF0123F91900062E0240EFDF2
:105AA400900061E03400FC900067E0FB7FA812B234
:105AB40023900062E0240EFD900061E03400FC7F3E
:105AC400A812B95D7BFF7A00794490007AEFF00266
:025AD4003F9100
:08762400900074EEF0A3EFF0FA
:10762C007BFF7A06792E123F91900075E02407FDBE
:10763C00900074E03400FC7FA812B95D7BFF7A06E1
:10764C00794090007AEFF0123F91900075E0240899
:10765C00FD900074E03400FC7FA812B95D7BFF7ACA
:10766C000579EE90007AEFF0123F91900075E024CE
:10767C0009FD900074E03400FC7FA812B95D7BFF1B
:10768C007A00794490007AEFF0123F91900075E007
:10769C00240AFD900074E03400FC7FA812B95D7BD5
:1076AC00FF7A06794490007AEFF0123F91900075C2
:1076BC00E0240BFD900074E03400FC7FA812B95D4F
:1076CC007BFF7A00794490007AEFF0123F919000A2
:1076DC0075E0240CFD900074E03400FC7FA812B916
:1076EC005D7BFF7A0579EE90007AEFF0123F919076
:1076FC000075E0240DFD900074E03400FC7FA812AE
:10770C00B95D7BFF7A00794490007AEFF0123F91DB
:10771C00900075E0240EFD900074E03400FC7FA80E
:10772C0012B95D7BFF7A00794490007AEFF0023F4A
:01773C0091BB
:084A4100900061EEF0A3EFF01C
