:1087CA004101720A4101A5004101B1004101A6001F
:1087DA004101AE004201A700004101B0064101B5C6
:1087EA00034101B4F241017102C10AC10BC109413D
:0387FA000170000B
:03000B0002BABE78
:10BABE00C0E0C083C082900172E014F0E0640170B7
:10BACE00069001A5E004F09001A8E004F070069045
:0EBADE0001A7E004F0C28DD082D083D0E03208
:10BDA300E58954F04401F589E4F58CF58AD28C22B7
:05BE4B00C28DD2A92206
:03BE5500C2A9225D
:0BBDE20012BB8FEFF47002EEF460F56E
:01BDED002233
:05B616009000A7EFF019
:10B61B009000A7E0FF12B83BEF3395E04F6024E4B6
:10B62B009000A8F0A3F0C39000A9E094E89000A8C4
:10B63B00E0940350DBA3E004F070EB9000A8E0046F
:08B64B00F080E39000A7E0FF8E
:01B6530022D4
:0EB2F800900027EBF0A3EAF0A3E9F0A3EDF03D
:10B30600E4A3F090002AE0FFA3E0C39F5029900039
:10B3160027E0FBA3E0FAA3E0F9121B4CFF12B616D6
:10B3260090002CEFF0900028E475F001121BD890E5
:07B33600002BE004F080CCC5
:01B33D0022ED
:10BDB30012BE5012BE0D12BDEEC283D287C29722AD
:10AFCE007D047C007FA812B7119001B2E4F0A3EFCC
:10AFDE00F07D067C007FA812B7119001ACE4F0A3BF
:10AFEE00EFF07D087C007FA812B7119001AAEFF058
:10AFFE007D0A7C007FA812B7119001A9EFF07D0E9B
:0DB00E007C007FA812B7119001ABEFF0227B
:10A7810012BDA312BE4B12BAEC12B65412BDB3D213
:10A79100AF12BCFF7F217E0012BD3712BDC37F61A6
:10A7A10012B103D28212BE142091031252F512AFDC
:10A7B100CE126B1EEF70FA9001727405F0208003C7
:10A7C10012B8B0900170E0FF1238AF900170EFF055
:10A7D10020B3292009267B017A017948129CA29095
:10A7E1000000EFF0FD7B017A01794812B5977B01FA
:10A7F1007A017948900000E0FD12337D1295A28024
:01A80100BC9A
:10B800007072696D6172696F204243433D20000D83
:10B810000A0063616C63756C6F204243433D2000F6
:10B820005245454E56494152207472616D6120481F
:0BB830006F72613A20004C4956450041
:0E337D00900001EBF0A3EAF0A3E9F0A3EDF05D
:10338B00E4A3F0ED641A60030234C3900001E0FB88
:10339B00A3E0FAA3E0F9121B4C640260030234C3EE
:1033AB00900002121B65644860030234C390000452
:1033BB00E07E0024FEF582EE34FFF583121B65647C
:1033CB000360030234C37BFF7AB8790012B15690C5
:1033DB000001E0FBA3E0FAA3E0F9900019121B65D2
:1033EB00FF12B1DC7BFF7AB8790F12B156E4FC9077
:1033FB000004E014FEECC39E501F900001E0FBA301
:10340B00E0FAA3E0F9AF048F82758300121B65FE0F
:10341B00900005E06EF00C80D67BFF7AB879121223
:10342B00B156900005E0FF12B1DC7BFF7AB8790F43
:10343B0012B156900001E0FBA3E0FAA3E0F9900073
:10344B0019121B65FF900005E0B50726E92403F967
:10345B00E43AFA1275AAEF60030238AE900001E06D
:10346B00FBA3E0FAA3E02403F9E43AFA12999102E0
:10347B00AA039000067402F0A37405F0A37403F082
:10348B00E4A3F07B017A0079067D041294F07BFFB4
:10349B007AB8792012B156900006E0FF12B1DC9099
:1034AB000007E0FF12B1DC900008E0FF12B1DC7BFB
:1034BB00FF7AB8790F02B156900001E0FBA3E0FA56
:1034CB00A3E0F9121B4C64B170057F600236E190EA
:1034DB000001E0FBA3E0FAA3E0F9121B4C64B2700D
:1034EB00057F5D0236E1900001E0FBA3E0FAA3E06B
:1034FB00F9121B4C64B370057F630236E190000434
:10350B00E064017017900001E0FBA3E0FAA3E0F97F
:10351B00121B4C64B470057F5E0236E1900004E030
:10352B0064017017900001E0FBA3E0FAA3E0F9122D
:10353B001B4C64B570057F620236E1900001E0FB25
:10354B00A3E0FAA3E0F9121B4C64B6702690021D9F
:10355B00E004F0E0D394047480948050030238AEFE
:10356B007FAE122D51E49001A5F0C297C283900259
:10357B001DF022900001E0FBA3E0FAA3E0F9121B7F
:10358B004CFF64B76005EF64AA70469001A5E0C3D9
:10359B009414748094804006E4F0C297C283900127
:1035AB00AAE060030238AEC39001A8E094589001E2
:1035BB00A7E0940250030238AEE4F0A3F09001AA06
:1035CB0004F07BFF7AB8793612B156E49001AAF079
:1035DB0022900004E064017017900001E0FBA3E06F
:1035EB00FAA3E0F9121B4C64B870057F9A0236E11E
:1035FB00900004E0FF6403702A900001E0FBA3E05D
:10360B00FAA3E0F9900001121B6564557015FE7466
:10361B00FF2FF582EE34FFF583121B6564037003F5
:10362B0002B7C4900004E064017017900001E0FB46
:10363B00A3E0FAA3E0F9121B4C64A170057F5A02B8
:10364B0036E1900004E064017016900001E0FBA3EA
:10365B00E0FAA3E0F9121B4C640570047F9C8076A2
:10366B00900004E064017016900001E0FBA3E0FA07
:10367B00A3E0F9121B4C640670047F9E80589000E7
:10368B0004E064017016900001E0FBA3E0FAA3E0F4
:10369B00F9121B4C640770047F5F803A900004E0C2
:1036AB0064017016900001E0FBA3E0FAA3E0F912AD
:1036BB001B4C640870047F61801C900004E0640163
:1036CB007017900001E0FBA3E0FAA3E0F9121B4C8A
:1036DB00640970057FAF022D51900004E0FF641365
:1036EB00703C900001E0FBA3E0FAA3E0F99000012D
:1036FB00121B6564567027EF24FFFFE434FFFE8F27
:10370B0082F583121B65640370148F828E83E4121F
:10371B001BA4E92402F9E43AFA7F5B02386F9000AC
:10372B0004E0FF6413703C900001E0FBA3E0FAA3FC
:10373B00E0F9900001121B65644F7027EF24FFFF27
:10374B00E434FFFE8F82F583121B65640370148FC4
:10375B00828E83E4121BA4E92402F9E43AFA7F9BDC
:10376B0002386F900004E0FF640660030238269075
:10377B000001E0FBA3E0FAA3E0F9121B4C6402602A
:10378B0003023826900001121B6564576003023850
:10379B0026FE74FF2FF582EE34FFF583121B656452
:1037AB00037078900001A3A3900002121B65FD7BB0
:1037BB00017A00790612AD0E9000097420F090008A
:1037CB0001E0FBA3E0FAA3E0F9900003121B65FDF7
:1037DB00900001A3A3900004121B6590001CF07BCA
:1037EB00017A00790A1245D09001A9E06401702199
:1037FB0012B8E9EFF460077FAA122D5180097B0103
:10380B007A007906128A557B017A0079067F5C80F3
:10381B00537B017A0079067F5C8049900004E0FFBE
:10382B0064077043900001E0FBA3E0FAA3E0F912F8
:10383B001B4C64027031900001121B65646370278E
:10384B00EF24FFFFE434FFFE8F82F583121B6564C8
:10385B000370148F828E83E4121BA4E92402F9E413
:10386B003AFA7F9D024B57900004E0FF640C7033D3
:10387B00900001E0FBA3E0FAA3E0F9121B4C6402F9
:10388B007021FE74FF2FF582EE34FFF583121B655A
:10389B006403700F900001A3A3E02401F9E43AFA4A
:0338AB00128B2B52
:0138AE0022F7
:0EB4D500900033EBF0A3EAF0A3E9F0A3EDF052
:10B4E300E4A3F0900036E0FFA3E0C39F5024900054
:10B4F30033E0FBA3E0FAA3E0F9121B4CFF12B10304
:10B50300900034E475F001121BD8900037E004F08A
:02B5130080D1E5
:01B515002213
:0B8A5500900011EBF0A3EAF0A3E9F0A1
:108A60009000327403F090001414F012B40E9000D1
:108A700015EFF0A37453F09001AEE0900032601354
:108A8000E0FF04F074142FF582E43400F583744D94
:108A9000F08011E0FF04F074142FF582E43400F547
:108AA000837443F09000327404F0900011E0FBA353
:108AB000E0FAA3E0F9121B4CFF6021900032E024A1
:108AC00014F582E43400F583EFF0900012E475F0C1
:108AD00001121BD8900032E004F080CE900032E00A
:108AE000FF04F074142FF582E43400F583743AF037
:108AF000900032E02414F9E43400FA7B0112647827
:108B0000900032E0FF241EF582E43400F583743ACD
:108B1000F0741F2FF582E43400F5837403F07B01B9
:0B8B20007A007914EF240CFD02B4D59C
:10BD0F0050524F4752414D414D4F5320484F524192
:04BD1F00000D0A0009
:08000300D29412BE58C29422EF
:05B5D7009000B4EFF04C
:10B5DC00E4A3F0A3F09000B4E0FFA2E713F030D79F
:10B5EC0004D2958002C2951200039000B6E004F0DC
:10B5FC0070069000B5E004F0C39000B6E09408909B
:09B60C0000B5E06480948040CC9C
:01B615002212
:0A9EF500EBF0A3EAF0A3E9F07F8D83
:059EFF009000B1EFF03E
:109F0400D2967F037E0012BD379000B1E0FF12B5F8
:109F1400D7E49000B2F0A3F09000B2E0FCA3E0FD1F
:109F2400C39408EC64809480504F30951690021EC0
:109F3400E04480F0ED9406EC648094805005E0FFEA
:109F4400C313F020952090021EE0547FF0D39000BC
:109F5400B3E094069000B2E06480948050089002CC
:109F64001EE0FFC313F01200039000B3E004F0708E
:109F7400A79000B2E004F0809FC29690021EE0FF1A
:019F840022BA
:10BB4000900014EFF0A3EDF0D2967F037E0012BDBB
:10BB500037900014E0FF12B5D7900015E0FF900079
:08BB600014F012B5D7C29622C1
:10B51600900012E475F001121BD8900012E475F049
:10B5260001121BD8900012E475F001121BD890008E
:10B5360011E0FBA3E0FAA3E0F9121B4CFF90000117
:04B54600121B65FD72
:0CB54A00EF540FC454F0FFED540F4FFFFE
:01B5560022D2
:1075AA00E4FF121B4CFEC3943050030276BCEED3A8
:1075BA00943940030276BC900001121B65FEC39405
:1075CA003050030276B9EED3943940030276B9906B
:1075DA000003121B65FEC3943050030276B6EED345
:1075EA00943940030276B6900004121B65FEC394D8
:1075FA003050030276BEEED3943940030276BE9031
:10760A000008121B65FEC3943050030276B3EED312
:10761A00943940030276B390000B121B65FEC394A3
:10762A003050030276B0EED39439507A90000C129F
:10763A001B65FEC39430406BEED3943950659000BD
:10764A000E121B65FEC394304056EED39439505047
:10765A0090000F121B65FEC394304041EED394395B
:10766A00503B900011121B65FEC39430402CEED3A0
:10767A0094395026900012121B65FEC394304017AD
:10768A00EED394395011900014121B65FEC3943046
:10769A004022EED39439227F01227F01227F0122E8
:1076AA007F01227F01227F01227F01227F01227F27
:0476BA0001227F0129
:0176BE0022A9
:0B999100900011EBF0A3EAF0A3E9F056
:10999C007BFF7ABD790F12B1567BFF7ABD7920120D
:1099AC00B15612B534AD077F8612BB4012B516AD59
:1099BC00077F8812BB40900012E475F001121BD88F
:1099CC00900012E475F001121BD812B516AD077F8A
:1099DC008C12BB4012B516AD077F8412BB4012B57A
:1099EC0016AD077F8212BB4012B516AD077F8012F1
:1099FC00BB40900012E475F001121BD8900012E4E9
:109A0C0075F001121BD8900012E475F001121BD8EE
:109A1C00900011E0FBA3E0FAA3E0F9121B4C5407F1
:069A2C00FD7F8A02BB4031
:10BC7900AE07EEC4540F540FFE6012EF540FFFE4E9
:0DBC8900FDEDC39E5007740A2FFF0D80F4DF
:01BC9600228B
:10B6D000121BA490005EE475F001121BD890005D6F
:0CB6E000E0FBA3E0FAA3E0F9121B4CFF12
:10B6EC00E4FEFDFCECC39F500B0DED640A7002FDF3
:10B6FC000E0C80F0EEC454F054F0FEED540F4EFFDF
:01B70C00221A
:0B9DD30090005DEBF0A3EAF0A3E9F0C4
:109DDE0012B6DDEF54F0C4540F4430FE900060E034
:109DEE00FBA3E0FAA3E0F9EE121B92EF540F4430FE
:109DFE00FF900060E0FBA3E0FAA3E0F9900001EF12
:109E0E0012B6D0EF54F0C4540F4430FE900060E010
:109E1E00FBA3E0FAA3E0F9900002EE121BA4EF54AC
:109E2E000F443090000312B6D0EF54F0C4540F44D8
:109E3E0030FE900060E0FBA3E0FAA3E0F99000048E
:109E4E00EE121BA4EF540F4430900005121BA49089
:069E5E000006E4021BA453
:10AD0E00E4FFFE900018EDF0900018E0C394647418
:10AD1E008094804007E0249CF00F80ECEF443012CA
:10AD2E001B92740129F9E43AFA900018E0C3940AD0
:10AD3E00748094804007E024F6F00E80ECEE4430F0
:10AD4E00121B92740129F9E43AFA900018E044308B
:0EAD5E00121B92740129F9E43AFAE4021B92E6
:0E45D000900018EBF0A3EAF0A3E9F0A3EDF0E1
:1045DE00E490001DF0A3F0900020F0A3F0A3F0A350
:1045EE00F090001FEDF054F0F0E0FFC4540FF09087
:1045FE000028121C81404000007F007E007D807CE0
:10460E00411265E6C004C005C006C00790001FE059
:10461E00FCE412165ED003D002D001D00012154E6B
:10462E00C004C005C006C00790001DE0FCA3E0FD5D
:10463E00E4121659D003D002D001D00012145D122C
:10464E00169290001DEEF0A3EFF090001BE090008C
:10465E001FF0540FF0900028121C81400000007FC4
:10466E00007E007D807C411265E6C004C005C00658
:10467E00C00790001FE0FCE412165ED003D002D0FB
:10468E0001D00012154EC004C005C006C007900030
:10469E001DE0FCA3E0FDE4121659D003D002D001B8
:1046AE00D00012145D12169290001DEEF0A3EFF0E2
:1046BE0090001CE090001FF054F0F0E0FFC4540F87
:1046CE00F0900028121C813F8000007F007E007D4C
:1046DE00807C411265E6C004C005C006C00790008C
:1046EE001FE0FCE412165ED003D002D001D00012FF
:1046FE00154EC004C005C006C00790001DE0FCA307
:10470E00E0FDE4121659D003D002D001D0001214ED
:10471E005D12169290001DEEF0A3EFF090001CE0DB
:10472E0090001FF0540FF0900028121C8100000022
:10473E00007F007E007D807C411265E6C004C005CE
:10474E00C006C00790001FE0FCE412165ED003D036
:10475E0002D001D00012154EC004C005C006C0071D
:10476E0090001DE0FCA3E0FDE4121659D003D00228
:10477E00D001D00012145D12169290001DEEF0A31F
:10478E00EFF0C3EF9410EE9427401074F02FFF74E7
:10479E00D83EFE900020E004F080E7900020E04438
:1047AE0030FD900018E0FBA3E0FAA3E0F9ED121B38
:1047BE0092900019E475F001121BD8C3EF94E8EE45
:1047CE009403401074182FFF74FC3EFE900021E0FD
:1047DE0004F080E7900021E04430FD900018E0FBEB
:1047EE00A3E0FAA3E0F9ED121B92900019E475F024
:1047FE0001121BD8C3EF9464EE94004010749C2FEA
:10480E00FF74FF3EFE900022E004F080E79000224D
:10481E00E04430FD900018E0FBA3E0FAA3E0F9EDD0
:10482E00121B92900019E475F001121BD8C3EF947D
:10483E000AEE9400401074F62FFF74FF3EFE9000B7
:10484E0023E004F080E7900023E04430FD90001850
:10485E00E0FBA3E0FAA3E0F9ED121B92900019E43D
:10486E0075F001121BD8EF4430FF900018E0FBA347
:10487E00E0FAA3E0F9EF121B92900019E475F00133
:10488E00121BD8900018E0FBA3E0FAA3E0F9E402B3
:02489E001B926B
:0364780090005140
:10647B00129EF5EF54F0C4540F4430FE900051E0DF
:10648B00FBA3E0FAA3E0F9EE121B92900052E47525
:10649B00F001121BD8EF540F4430FF900051E0FB7A
:1064AB00A3E0FAA3E0F9EF121B92900052E475F00F
:1064BB0001121BD87F89129EFFEF54F0C4540F4476
:1064CB0030FE900051E0FBA3E0FAA3E0F9EE121BC3
:1064DB0092900052E475F001121BD8EF540F443028
:1064EB00FF900051E0FBA3E0FAA3E0F9EF121B923F
:1064FB00900052E475F001121BD87F87129EFFEFBC
:10650B0054F0C4540F4430FE900051E0FBA3E0FA6A
:10651B00A3E0F9EE121B92900052E475F001121BEE
:10652B00D8EF540F4430FF900051E0FBA3E0FAA3E7
:10653B00E0F9EF121B92900052E475F001121BD898
:10654B007F85129EFFEF54F0C4540F4430FE900031
:10655B0051E0FBA3E0FAA3E0F9EE121B929000527C
:10656B00E475F001121BD8EF540F4430FF9000512B
:10657B00E0FBA3E0FAA3E0F9EF121B92900052E4C8
:10658B0075F001121BD87F83129EFFEF54F0C45499
:10659B000F4430FE900051E0FBA3E0FAA3E0F9EECC
:1065AB00121B92900052E475F001121BD8EF540F9E
:1065BB004430FF900051E0FBA3E0FAA3E0F9EF12A7
:1065CB001B92900052E475F001121BD8900051E021
:0B65DB00FBA3E0FAA3E0F9E4021B922E
:0B60FD0090001EEBF0A3EAF0A3E9F016
:106108007F89129EFFEF54F0C4540F4430FE900074
:106118001EE0FBA3E0FAA3E0F9EE121B9290001F29
:10612800E475F001121BD8EF540F4430FF90001EA5
:10613800E0FBA3E0FAA3E0F9EF121B9290001FE442
:1061480075F001121BD87F87129EFFEF54F0C454DC
:106158000F4430FE90001EE0FBA3E0FAA3E0F9EE46
:10616800121B9290001FE475F001121BD8EF540F18
:106178004430FF90001EE0FBA3E0FAA3E0F9EF1221
:106188001B9290001FE475F001121BD87F8D129EA0
:10619800FFEF54F0C4540F4430FE90001EE0FBA300
:1061A800E0FAA3E0F9EE121B9290001FE475F001EB
:1061B800121BD8EF540F4430FF90001EE0FBA3E001
:1061C800FAA3E0F9EF121B9290001FE475F0011298
:1061D8001BD87F85129EFFEF54F0C4540F4430FE45
:1061E80090001EE0FBA3E0FAA3E0F9EE121B9290E8
:1061F800001FE475F001121BD8EF540F4430FF90D4
:10620800001EE0FBA3E0FAA3E0F9EF121B92900056
:106218001FE475F001121BD87F83129EFFEF54F024
:10622800C4540F4430FE90001EE0FBA3E0FAA3E044
:10623800F9EE121B9290001FE475F001121BD8EFC3
:10624800540F4430FF90001EE0FBA3E0FAA3E0F9EE
:10625800EF121B9290001FE475F001121BD89000FA
:106268001EE0FBA3E0FAA3E0F9742E121B92900043
:106278001FE475F001121BD87F81129EFFEF54F0C6
:10628800C4540F4430FE90001EE0FBA3E0FAA3E0E4
:10629800F9EE121B9290001FE475F001121BD8EF63
:1062A800540F4430FF90001EE0FBA3E0FAA3E0F98E
:1062B800EF121B9290001FE475F001121BD890009A
:0D62C8001EE0FBA3E0FAA3E0F9E4021B9244
:1097A4009000AE129EF512BC799000AEE0FBA3E0EF
:1097B400FAA3E0F9EF121B929000AFE475F00112E6
:1097C4001BD87F89129EFF12BC799000AEE0FBA3E8
:1097D400E0FAA3E0F9EF121B929000AFE475F001F8
:1097E400121BD87F87129EFF12BC799000AEE0FB5B
:1097F400A3E0FAA3E0F9EF121B929000AFE475F036
:1098040001121BD87F85129EFF12BC799000AEE036
:10981400FBA3E0FAA3E0F9EF121B929000AFE4750A
:10982400F001121BD87F83129EFF12BC799000AE08
:10983400E0FBA3E0FAA3E0F9EF121B929000AFE47F
:0698440075F001021BD8C3
:10AAF800900009129EF5900009E0FBA3E0FAA3E09C
:10AB0800F990000EEF121BA47F89129EFF90000996
:10AB1800E0FBA3E0FAA3E0F990000FEF121BA47F7B
:10AB280087129EFF900009E0FBA3E0FAA3E0F990EA
:10AB38000010EF121BA47F85129EFF900009E0FB16
:10AB4800A3E0FAA3E0F9900011EF121BA47F83128F
:10AB58009EFF900009E0FBA3E0FAA3E0F990001241
:04AB6800EF021BA439
:108D8A0090001E129EF590001EE0FBA3E0FAA3E0FD
:108D9A00F9EF121B9290001FE475F001121BD87FA5
:108DAA0089129EFF90001EE0FBA3E0FAA3E0F9EF10
:108DBA00121B9290001FE475F001121BD87F8712D4
:108DCA009EFF90001EE0FBA3E0FAA3E0F9EF121B5E
:108DDA009290001FE475F001121BD87F85129EFF46
:108DEA0090001EE0FBA3E0FAA3E0F9EF121B9290B9
:108DFA00001FE475F001121BD87F83129EFF9000BA
:108E0A001EE0FBA3E0FAA3E0F9EF121B9290001F09
:108E1A00E475F001121BD87F81129EFF90001EE0BC
:108E2A00FBA3E0FAA3E0F9EF121B9290001FE4758E
:108E3A00F001121BD890001EE0FBA3E0FAA3E0F9B0
:048E4A00E4021B9291
:07BE0D00C294C296D29522F7
:0B8CC10090009CEBF0A3EAF0A3E9F0A8
:108CCC007B017A0079A71297A49000A7E0FF7E00A1
:108CDC007C017D6D121BC6AC06AD07A3E075F01EC2
:108CEC00A42DFFEC35F0FEA3E07C002FFFEC3EFE44
:108CFC00E4FD90009F121C7590009CE0FBA3E0FA31
:108D0C00A3E0F9900001121B65FF3395E0FE7C0097
:108D1C007D1E121BC6C006C007121B4CFF3395E00C
:108D2C00FE0C7D6D121BC6D0E02FFFD0E03EFE90F6
:108D3C000002121B65FD3395E0FCEF2DFFEE3CFEAF
:108D4C003395E0FDFC9000A3121C7590009FE0FC95
:108D5C00A3E0FDA3E0FEA3E0FFA3E0F8A3E0F9A3EA
:108D6C00E0FAA3E0FBC3121C1240089000AD7401A2
:0D8D7C00F08005E49000ADF09000ADE0FF48
:018D890022C7
:10BD3700E4FDFCC3ED9FEC9E50070DBD00010C8098
:01BD4700F209
:01BD480022D8
:04BC9700AB07AA0647
:10BC9B00900000C3E5829BE5839A500A7F967E0055
:06BCAB0012BD37A380ED7D
:01BCB1002270
:08B87600900017EEF0A3EFF0C3
:10B87E00E4A3F0A3F0900017E0FEA3E0FFC3900056
:10B88E001AE09F900019E09E50177F0A7E0012BCAE
:10B89E009790001AE004F070DC900019E004F0803C
:01B8AE00D4C5
:01B8AF002276
:01BE580022C7
:10B451004572726F72206465207469636B65740054
:10B461000A0D004E756D65726F2064652074696305
:10B471006B65743A004E6F206465207469636B6577
:10B4810074204845583A00256C75006E6174616CF2
:02B49100790040
:03BC1A0012BBB5A5
:10BC1D00D20ED293D292E4FFFE209205C20EC293B1
:0CBC2D00220FBF00010EBE04F0BF4CED62
:01BC390022E8
:03BC3A0012BBB585
:10BC3D00D293D292D20EE4FFFE209205C20EC29391
:0CBC4D00220FBF00010EBE02F0BF8AED06
:01BC590022C8
:06BE4500D29300C293221B
:10BBB500E4FEEEC39408748094805015EF25E0FFF1
:10BBC50030D704D2928002C292D29312BE450E8023
:01BBD500E18E
:01BBD600224C
:08BD4900ECFD7C00C293C292E4
:0ABD5100D292D29300C292C2932254
:0ABDFA00C293C29200D293D29222AB
:10B01B00E4FBEBFDC39408748094805038C29330EA
:10B02B009216900213E04401F0ED94067480948024
:10B03B005006E025E0F0D293209217900213E054D3
:10B04B00FEF0EBD39406748094805006E025E0F07C
:0CB05B00D2930B80BDC293900213E0FF63
:01B0670022C6
:10AED80090005DE0FCA3E0FDA3E0FBA3E0FAA3E0A3
:07AEE800F9121B4CFB7FA8CF
:02AEEF00AA07B0
:10AEF100AF05A90712BD49AF0212BC1AAF0512BCBA
:10AF01001AAF0112BBB512BC1DAF0312BBB512BC07
:10AF11001D12BDFA7F0D7E0012BC97D293D2927F93
:0DAF2100627E0012BD377F627E0002BD37E8
:04B70D007C027FA893
:02B71100AB0784
:10B71300AF05AA0712BD49AF0312BC3AAF0512BC6D
:10B723003AAF0212BBB512BC3D12BD51EB04FF127E
:10B73300BBB512BC1DC29312B01B12BDFAD293D279
:06B7430092900213E0FFEA
:01B7490022DD
:0B8B2B00900011EBF0A3EAF0A3E9F0CA
:108B3600E4900015F0900011E0FBA3E0FAA3E0F941
:108B460090000AE4121BA4E4900014F0900014E0D4
:108B5600FFD39409748094805057900011E0FBA3D2
:108B6600E0FAA3E0F98F82758300121B65FF7E0091
:108B7600C3943074809480400AD3EF9439748094FF
:108B86008040269000157401F07BFF7AB47951126B
:108B9600B156900011E0FBA3E0FAA3E0F912B1563A
:108BA6007BFF7AB4796112B156900014E004F0802C
:108BB6009B900015E0700E900011E0FBA3E0FAA375
:108BC600E0F90280ABE4FBFD7C027FA812AEEFE485
:108BD600FB7D017C027FA812AEEFE4FB7402FDFC74
:108BE6007FA812AEEFE4FB7D037C027FA812AEEFF6
:018BF600225C
:0B80AB00900016EBF0A3EAF0A3E9F050
:1080B6007F007E007D007C007BFF7AB4796412B17C
:1080C60056900016E0FBA3E0FAA3E0F912B1567B46
:1080D600FF7AB4796112B156900016E0FBA3E0FA7C
:1080E600A3E0F91276BF90001D121C757BFF7AB4CF
:1080F600797612B15690001DE0FCA3E0FDA3E0FEE8
:10810600A3E0FF7818121C23900019EFF012B1DCDF
:1081160090001DE0FCA3E0FDA3E0FEA3E0FF7810C5
:10812600121C2390001AEFF012B1DC90001DE0FC47
:10813600A3E0FDA3E0FEA3E0FF7808121C23900055
:108146001BEFF012B1DC90001DA3A3A3E0FF90008B
:108156001CF012B1DC7BFF7AB4796112B156900043
:1081660019E0FB7D007C027FA812AEEF90001AE0BA
:10817600FB7D017C027FA812AEEF90001BE0FB7432
:1081860002FDFC7FA812AEEF90001CE0FB7D037C95
:06819600027FA802AEEF1B
:10B06800128BF790007A74FFF0A374B4F0A374887D
:10B07800F0A3121C757B017A007959123DEA7B0115
:10B088007A00795912000E74592FF582E43400F5CC
:10B0980083E4F07B017A00795912B1567BFF7AB4C8
:0BB0A800796112B1567B017A007959E2
:01B0B300227A
:108BF700900067121C81000000007D0012B70DA9CC
:108C0700077D0112B70D900064EFF07402FDFC7F41
:108C1700A812B711900065EFF07D0312B70D900011
:108C270066EFF0AF01A3E0F8A3E0F9A3E0FAA3E051
:108C37004FFFEAFEE9FDE8FC7808121C3690006752
:108C4700121C75900064E0FF900067E0F8A3E0F95C
:108C5700A3E0FAA3E04FFFEAFEE9FDE8FC7808127B
:108C67001C36900067121C75900065E0FF90006746
:108C7700E0F8A3E0F9A3E0FAA3E04FFFEAFEE9FD7D
:108C8700E8FC7808121C36900067121C7590006685
:108C9700E0FFA3E0F8A3E0F9A3E0FAA3E04FFFEABF
:108CA700FEE9FDE8FC900067121C75900067E0FC88
:098CB700A3E0FDA3E0FEA3E0FF31
:018CC0002291
:10B9C500128BF7EF2401FFE43EFEE43DFDE43CFC71
:10B9D50090007A74FFF0A374B4F0A37488F0A312F6
:10B9E5001C757B017A007909123DEA7B017A0079A1
:04B9F500090280AB18
:10AC460090009CEEF0A3EFF0A3EBF0A3EAF0A3E9EB
:01AC5600F00D
:10AC570090009CE0FCA3E0FD7FA812B71190009E36
:10AC6700E0FBA3E0FAA3E0F9EF121B9290009EE04D
:10AC7700FBA3E0FAA3E0F9121B4CFF90009DE00450
:10AC8700F0700690009CE004F090009FE475F001DE
:10AC9700121BD8EF70BA90009EE0FBA3E0FAA3E086
:05ACA700F9E4021B921C
:10AB6C0090005DEEF0A3EFF0A3EBF0A3EAF0A3E905
:10AB7C00F090005FE0FBA3E0FAA3E0F9121B4C603D
:10AB8C0024B40D04E4121B9212AED890005EE004C3
:10AB9C00F0700690005DE004F0900060E475F00148
:10ABAC00121BD880CC12AED890005EE004F0700678
:10ABBC0090005DE004F0900060E475F001121BD889
:0FABCC0090005DE0FCA3E0FDE4FB7FA802AEEF8C
:10B7C400E4FF7B017A007911126478900011E0247F
:10B7D400D064027026A3E024D0C3940274809480C1
:10B7E4004019A3E024D0FF700FA3E024D0C3940237
:0BB7F400748094804005800012AE813C
:01B7FF002227
:10AE810090001C74FFF0E4A3F0A3F090001DE0FC1F
:10AE9100A3E0FDC39450EC9403501A90001CE0FB16
:10AEA1007FA812AEEF90001EE004F070DE90001D4E
:10AEB100E004F080D6E4FBFD7C087FA812AEEF78B9
:10AEC1001F7C007D017BFF7AB4798C121F5F7B01AF
:07AED1007A00791F02938152
:10819C0050756C7361646F722041637469766F0DF6
:1081AC000A0053656E736F726573204175746F208E
:1081BC00792073656E736F72312061637469766FA9
:1081CC00732E0A0D0053656E736F722061637469B0
:1081DC00766F2073656E736F72312E0A0D004465D5
:1081EC007465637461646F2E2053656E736F7220B7
:1081FC004175746F2E0A0D0053656E736F72657343
:10820C00206E6F2064657465637461646F732E0AED
:10821C000D005665686963756C6F204573706572E7
:10822C00616E646F2053616C69722E0A0D00566585
:10823C00686963756C6F2053616C69656E646F2E31
:10824C0020556E206D6F6D656E746F2E0A0D006D6E
:10825C00736A5F6C63645F696E666F726D6174697B
:10826C00766F2072656C6F6A006D736A5F6C636405
:10827C005F696E666F726D617469766F2049440038
:0A87FD00C10F41021B0041021C00E5
:07BE1400C2B5C2B6C2B7229D
:07BE1B00C2B5D2B6C2B72286
:07BE2200D2B5D2B6C2B7226F
:07BE2900C2B5C2B6D2B72278
:07BE3000D2B5C2B6D2B72261
:07BE3700C2B5D2B6D2B7225A
:07BE3E00D2B5D2B6D2B72243
:10BD5B0012BE2220910B7BFF7A81799C12B156D2B5
:02BD6B000F22A5
:10BC5A00E4FF7DF47C01309115EFFB3395E04B70E6
:0EBC6A000DED1D70011CED4C70EC7F0180E8AB
:01BC780022A9
:10BBD7007F017DF47C01209118EFFB3395E0FAEBB0
:10BBE70064014A700CED1D70011CED4C70E8FF807C
:01BBF700E568
:01BBF800222A
:10B40E009000337401F012BE37309103E004F01255
:10B41E00BE3E309107900033E02402F0900033E0FE
:10B42E00640170177D12FC7FA812B711EF600CF447
:10B43E00900033700404F08002EFF0900033E024AB
:02B44E0030FFCD
:01B4500022D9
:10BCE3007D127C007FA812B711EF6005F470027F0C
:05BCF30001EF2430FF09
:01BCF8002229
:10AE260012BE3020912312BE1B7BFF20910D7A812A
:10AE360079AE12B156E49001AE80227A8179D112B0
:10AE4600B1569001AE7401801412BE1B7BFF209197
:10AE5600187A8179EA12B1569001AE7401F0900029
:10AE66001274FFF012BD5B800C7A82790412B1561F
:0AAE7600E4900012F0900012E0FFDB
:01AE800022AF
:10B8E90012BE2930912012BC5AEF3395E0FEEF6465
:10B8F900014E700A12AE26900011EFF080147BFF02
:10B909007A82791E80067BFF7A82793A12B1567F54
:07B919000022900011E0FF85
:01B920002204
:1095A200E4900001F090021BE004F0E0C3943274F6
:1095B2008094805003029650E4F012BE143091035E
:1095C200029645900001E0707A12BBD7EF3395E026
:1095D2004F70707BFF7A82795B12B156900001E086
:1095E200FF12B1DC90021CE0FF12B1DC90021CE021
:1095F200702A900001E0702430B30B04F012B0B472
:1096020090021C7401F012BC5AEF3395E0FEEF6435
:10961200014E702F7F0AFE12B876802790021CE05E
:109622006401701F900001E070197BFF7A827975E6
:1096320012B15630B30DE4900001F0126C5CE4906C
:0E964200021CF012BE14309105E4900001F0FD
:0196500022F7
:101FE100494E4752455345205441524A4554412098
:101FF100005441524A4554412053494E20494E47CD
:102001005245534F20005441524A455441204E4FAE
:10201100205245474953545241205041474F2000D7
:10202100455843454445205449454D504F2044456A
:102031002047524143494120004D454E5355414CA3
:10204100204E4F204553544120454E20504152517E
:102051005545414445524F2000444952494A415354
:102061004520412043414A412000475241434941D3
:10207100532E2E2E2000475241434941532E2E2EDE
:10208100004D454E5355414C494441442056454E1F
:102091004349444120004D454E5355414C4944412B
:1020A100442045584345444520484F524152494FE9
:1020B1002041434552515545534520412043414A12
:1020C1004120004E4F204553204D454E5355414C24
:1020D10049444144204E49205052455041474F0008
:1020E1004D454E5355414C204E4F205041474F20B6
:1020F1004C4F434143494F4E20484F590053494E9D
:102101002050524553454E43494120564548494385
:10211100554C415220005441524A455441204E4FA2
:102121002045532044454C2050415251554541448E
:1021310045524F20004249454E56454E49444F2E87
:102141002050554C534520454C20424F544F4E2072
:10215100005441524A4554412053494E20464F5262
:102161004D41544F20004655455241204445204C95
:10217100494E45412000554E204D4F4D454E544F3F
:1021810020504F52204641564F5220004E4F20457D
:1021910053205441524A455441204D454E535541D7
:1021A1004C20005441524A45544120494E56414C1D
:1021B10049444120005441524A4554412053494E1B
:1021C1002053414C49444120005245474953545200
:1021D1004120494E475245534F20454E20504152D0
:1021E100515545414445524F20004D454E535541AF
:1021F1004C20465545524120444520484F524152BA
:10220100494F2000484F524152494F204E4F2050D4
:10221100524F4752414D41444F200053494E2054A3
:1022210041524A4554415320004249454E56454E7C
:1022310049444F20004E4956454C2042414A4F20C7
:102241004445205441524A455441532000613B3892
:10225100353B494E4752455345205441524A455416
:10226100410A0000613B38363B5441524A455441D2
:102271002053494E20494E475245534F0A000061B1
:102281003B38373B5441524A455441204E4F20522E
:1022910045474953545241205041474F0A0000617C
:1022A1003B38383B455843454445205449454D50FA
:1022B1004F204445204752414349410A0000613BB8
:1022C10038393B4D454E5355414C204E4F204553D7
:1022D100544120454E2050415251554541444552AB
:1022E1004F0A0000613B39303B444952494A41534E
:1022F1004520412043414A410A0000613B39313BBD
:10230100475241434941532E2E2E200A0000613B82
:1023110039333B4D454E5355414C204E4F2045538B
:10232100544120454E20504152515545414445525A
:102331004F0A0000613B39333B4D454E5355414CEB
:10234100204553544120454E20504152515545415D
:102351004445524F0A0000613B39343B4D454E53D1
:1023610055414C494441442056454E434944410A54
:102371000000613B39353B4D454E5355414C494475
:1023810041442045584345444520484F5241524914
:102391004F2041434552515545534520412043412A
:1023A1004A410A0000613B39363B4E4F20455320DC
:1023B1004D454E5355414C49444144204E492050CE
:1023C10052455041474F0A0000613B39373B4D456B
:1023D1004E5355414C204E4F205041474F204C4FBA
:1023E100434143494F4E20484F590A0000613B3950
:1023F100383B53494E2050524553454E43494120A5
:102401005645484943554C41520A0000613B393811
:102411003B5441524A455441204E4F20455320449C
:10242100454C20504152515545414445524F0A00B7
:1024310000613B30303B4249454E56454E49444F81
:102441002E2050554C534520454C20424F544F4E61
:102451000A0000613B39383B5441524A45544120FE
:1024610053494E20464F524D41544F0A0000613BA3
:1024710039383B4655455241204445204C494E454B
:10248100410A0000613B39383B554E204D4F4D45C7
:102491004E544F20504F52204641564F520A000091
:1024A100613B30383B4E4F204553205441524A4501
:1024B1005441204D454E5355414C0A0000613B3972
:1024C100383B5441524A45544120494E56414C49AA
:1024D10044410A0000613B39383B5441524A45545A
:1024E100412053494E2053414C4944410A00006167
:1024F1003B39383B524547495354524120494E4795
:102501005245534F20454E2050415251554541446B
:1025110045524F0A0000613B30373BA1204D454EEB
:102521005355414C494441442056454E4349444149
:1025310020210A0000613B30363B4D454E53554149
:102541004C20465545524120444520484F52415266
:10255100494F0A0000613B39383B53494E205441F1
:10256100524A455441530A0000613B39383B4E49B8
:1025710056454C2042414A4F204445205441524A3D
:10258100455441530A0000613B39383B484F5241A1
:1025910052494F204E4F2050524F4752414D4144D6
:1025A1004F0A0000613B39383B4143455251554583
:1025B100205355205441524A455441204445204E10
:1025C1005545564F0A0000613B30313B5245544955
:1025D1005245205355205441524A4554410A000066
:1025E100613B30333B4249454E56454E49444F0AC3
:1025F1000000613B39393B4C4F5445204153494719
:102601004E41444F2045535441204C4C454E4F0AB6
:10261100000057494547414E442000475241434934
:1026210041532000613B39323B57494547414E44B4
:1026310020000A0000613B39313B47524143494187
:10264100532000613B30333B4249454E56454E498C
:10265100444F200020504C414341000A00613B306F
:10266100373B20A1204D454E5355414C49444144EF
:102671002056454E4349444120212056454E434969
:102681004F20323000633B39303B00643B00AA806D
:1026910018010200AA8018010200000000000000D9
:1026A1000000000000000000000000000000000029
:1026B1000000000000000000000000000000000019
:0F26C1000000AA8028072000000000001400007D
:052D5100900018EFF0F6
:102D560078197C007D017BFF7A26798F7E007F06BD
:102D6600121B26C2879001ABE060030231167B017D
:102D76007A007919FD12B3D2900018E0121CD230F5
:102D8600F1012DDA552DFA562E1A572E3A582E5A8B
:102D9600592E7A5A2E9A5B2E5A5D2EBA5E2EDA5F1D
:102DA6002EFA602F1A612F3AAA2F5AAB2F7AAC2F20
:102DB6009AAD2FBAAE2FDAAF2FFAB0301AB1303A39
:102DC600B2305AB3307AB5309AB630B3FA30D2FE52
:102DD600000031137BFF7A1F79E112000E90001F6D
:102DE600EFF0E4FDFF12BB7112BB687BFF7A1F791F
:102DF600E102310E7BFF7A1F79F212000E90001F5E
:102E0600EFF0E4FDFF12BB7112BB687BFF7A1F79FE
:102E1600F202310E7BFF7A20790712000E90001F16
:102E2600EFF0E4FDFF12BB7112BB687BFF7A2079DD
:102E36000702310E7BFF7A20792112000E90001FC7
:102E4600EFF0E4FDFF12BB7112BB687BFF7A2079BD
:102E56002102310E7BFF7A20793A12000E90001F74
:102E6600EFF0E4FDFF12BB7112BB687BFF7A20799D
:102E76003A02310E7BFF7A20795A12000E90001F1B
:102E8600EFF0E4FDFF12BB7112BB687BFF7A20797D
:102E96005A02310E7BFF7A20796B12000E90001FCA
:102EA600EFF0E4FDFF12BB7112BB687BFF7A20795D
:102EB6007702310E7BFF7A20798212000E90001F76
:102EC600EFF0E4FDFF12BB7112BB687BFF7A20793D
:102ED6008202310E7BFF7A20799712000E90001F36
:102EE600EFF0E4FDFF12BB7112BB687BFF7A20791D
:102EF6009702310E7BFF7A2079C412000E90001FD4
:102F0600EFF0E4FDFF12BB7112BB687BFF7A2079FC
:102F1600C402310E7BFF7A2079E112000E90001F69
:102F2600EFF0E4FDFF12BB7112BB687BFF7A2079DC
:102F3600E102310E7BFF7A2079FE12000E90001F0F
:102F4600EFF0E4FDFF12BB7112BB687BFF7A2079BC
:102F5600FE02310E7BFF7A21791712000E90001FB8
:102F6600EFF0E4FDFF12BB7112BB687BFF7A21799B
:102F76001702310E7BFF7A21793612000E90001F60
:102F8600EFF0E4FDFF12BB7112BB687BFF7A21797B
:102F96003602310E7BFF7A21795212000E90001F05
:102FA600EFF0E4FDFF12BB7112BB687BFF7A21795B
:102FB6005202310E7BFF7A21796712000E90001FB4
:102FC600EFF0E4FDFF12BB7112BB687BFF7A21793B
:102FD6006702310E7BFF7A21797712000E90001F6F
:102FE600EFF0E4FDFF12BB7112BB687BFF7A21791B
:102FF6007702310E7BFF7A21798D12000E90001F29
:10300600EFF0E4FDFF12BB7112BB687BFF7A2179FA
:103016008D02310E7BFF7A2179A412000E90001FDB
:10302600EFF0E4FDFF12BB7112BB687BFF7A2179DA
:10303600A402310E7BFF7A2179B612000E90001F92
:10304600EFF0E4FDFF12BB7112BB687BFF7A2179BA
:10305600B602310E7BFF7A2179CA12000E90001F4C
:10306600EFF0E4FDFF12BB7112BB687BFF7A21799A
:10307600CA02310E7BFF7A2179EB12000E90001FF7
:10308600EFF0E4FDFF12BB7112BB687BFF7A21797A
:10309600EB02310E7BFF7A22790512000E90001F9B
:1030A600EFF012BB6C7BFF7A227905805B7BFF7A9F
:1030B60022791C12000E90001FEFF0E4FDFF12BBF8
:1030C6007112BB687BFF7A22791C803C7BFF7A22D7
:1030D600792A12000E90001FEFF0E4FDFF12BB717B
:1030E60012BB687BFF7A22792A801D7BFF7A2279C0
:1030F6003612000E90001FEFF0E4FDFF12BB7112B6
:10310600BB687BFF7A2279367D0112B3D2D2872241
:10311600C287900018E0121CD2330901318655315E
:10312600955631A45731B35831C25931D15A31E08D
:103136005B31EF5D320D5E321C5F322B60323A61DD
:1031460031FE63335D9A334F9C33259E3333A13270
:1031560049AA3258AB3267AC3276AD3285AE32947C
:10316600AF32A3B032B2B132C1B232D0B332DFB471
:1031760032EDB53317B632FBFA3341FE0000337534
:1031860078207C007D017BFF7A22794E02336978B4
:10319600207C007D017BFF7A2279650233697820E5
:1031A6007C007D017BFF7A22798002336978207C5E
:1031B600007D017BFF7A2279A002336978207C00AA
:1031C6007D017BFF7A2279BF02336978207C007DFE
:1031D600017BFF7A2279E502336978207C007D0144
:1031E6007BFF7A2279FC02336978207C007D017BA3
:1031F600FF7A23790F02336978207C007D017BFFFB
:103206007A23793502336978207C007D017BFF7A49
:1032160023795802336978207C007D017BFF7A236D
:10322600797302336978207C007D017BFF7A2379EC
:10323600A602336978207C007D017BFF7A2379CA58
:1032460002336978207C007D017BFF7A2379EE02C8
:10325600336978207C007D017BFF7A24790D023367
:103266006978207C007D017BFF7A247932023369FC
:1032760078207C007D017BFF7A24795402336978BB
:10328600207C007D017BFF7A24796F0233697820E8
:103296007C007D017BFF7A24798502336978207C66
:1032A600007D017BFF7A2479A102336978207C00B6
:1032B6007D017BFF7A2479BE02336978207C007D0C
:1032C600017BFF7A2479D602336978207C007D0160
:1032D6007BFF7A2479F002336978207C007D017BBC
:1032E600FF7A257917807C78207C007D017BFF7A28
:1032F600257936806E78207C007D017BFF7A2579E2
:1033060056806078207C007D017BFF7A25796A8073
:103316005278207C007D017BFF7A2579888044786D
:10332600207C007D017BFF7A2579A5803678207C7C
:10333600007D017BFF7A2579C8802878207C007D76
:10334600017BFF7A2579E1801A78207C007D017B5C
:10335600FF7A2579F3800C78207C007D017BFF7A4B
:10336600257936121F5F7B017A00792012A685E443
:06337600900020F0D28758
:01337C00222E
:0E4B5700900011EFF0A3EBF0A3EAF0A3E9F059
:104B650078157C007D017BFF7A2679957E007F068E
:104B7500121B26781C7C007D017BFF7A26799B7EA3
:104B8500007F28121B26C2879001ABE06003024C10
:104B95002E900011E024A56040146003024C2B12F6
:104BA500B3CA7BFF7A26791312000E90001BEFF033
:104BB500900012E0FBA3E0FAA3E0F912000E9000CA
:104BC5001BE02F04F0E4FDFF12BB7190001B12BB2C
:104BD5006B7BFF7A267913803812B3CA7BFF7A265E
:104BE500791C12000E90001BEFF0900012E0FBA361
:104BF500E0FAA3E0F912000E90001BE02F04F0E4A8
:104C0500FDFF12BB7190001B12BB6B7BFF7A2679EF
:104C15001C7D0112B3D2900012E0FBA3E0FAA3E0E1
:104C2500F97D0112B3D2D28722C287900011E02408
:104C3500A5602F24C07003024CF324FE7003024DBF
:104C4500AD24E97003024D3A24B6602524A2600321
:104C5500024DF4781C7C007D017BFF7A26792502C4
:104C65004CFF781C7C007D017BFF7A267936024D4E
:104C750046781C7C007D017BFF7A26794412A67C50
:104C850020100B12B068781C7C007D018011781C07
:104C95007C007D01900012E0FBA3E0FAA3E0F9128D
:104CA500A67C781C7C007D017BFF300B377A26794A
:104CB50055121F5F900049E4F0A37400F0A374112E
:104CC500F07B017A00791C12ABDB90004974FFF090
:104CD500A37426F0A37433F07B017A00791C12AB20
:104CE500DB024DF17A26795C121F5F024DF1781CCB
:104CF5007C007D017BFF7A267944121F5F900012AC
:104D0500E0F9A3E0FAA3E0900049C9F0A3EAF0A313
:104D1500E9F07B017A00791C12ABDB90004974FF46
:104D2500F0A37426F0A37433F07B017A00791C128A
:104D3500ABDB024DF1781C7C007D017BFF7A267987
:104D45005E121F5F900012E0FBA3E0FAA3E0F912E8
:104D5500000E90001BEFF024FFFFE434FFFE9000EF
:104D650012E0FBA3E0FAA3E0F98F828E83E4121B25
:104D7500A4900012E0F9A3E0FAA3E0900049C9F07D
:104D8500A3EAF0A3E9F07B017A00791C12ABDB9072
:104D9500004974FFF0A37426F0A37433F07B017A05
:104DA50000791C12ABDB8044781C7C007D017BFF05
:104DB5007A267986121F5F900012E0F9A3E0FAA324
:104DC500E0900049C9F0A3EAF0A3E9F07B017A007D
:104DD500791C12ABDB90004974FFF0A37426F0A395
:104DE5007433F07B017A00791C12ABDB12A67FE4E9
:064DF50090001CF0D287C3
:014DFB002295
:09BB680090001FE025E0FFE4FD60
:05BB710090004DEDF015
:10BB760012B61690004EEFF090004DE0600AE4FF1A
:08BB860012B61690004EEFF01C
:01BB8E002294
:08B3CA007B017A007915E4FD16
:0EB3D200900048EBF0A3EAF0A3E9F0A3EDF041
:10B3E000E4A3F0900048E0FBA3E0FAA3E0F99000AA
:10B3F0004CE0F582758300121B65FF601090004BD6
:0DB40000E0FD12BB7190004CE004F080D61E
:01B40D00221C
:0EB33E0090001EEBF0A3EAF0A3E9F0A3EDF0FF
:10B34C00E4900023F0900021E0FF900023E0FEC386
:10B35C009F502490001EE0FBA3E0FAA3E0F98E823C
:10B36C00758300121B65FF900022E0FD12BB7190EB
:07B37C000023E004F080CE85
:01B3830022A7
:09A67C00121F5F7B017A00791CBA
:0BA68500900048EBF0A3EAF0A3E9F01E
:10A6900012000E90004CEFF0E490004BF090004C54
:10A6A000E0FF90004BE0C39F503DE490004DF090E0
:10A6B000004DE0C39464748094805005E004F08001
:10A6C000EE900048E0FBA3E0FAA3E0F9A3E0F582F6
:10A6D000758300121B65FF12B61690004DEFF090C7
:10A6E000004BE004F080B6E490004DF090004DE0A7
:0EA6F000C39464748094805005E004F080EE02
:01A6FE002239
:10AA030078117C007D017BFF7A2679C37E007F0D60
:10AA1300121B269001ABE07022C2877B017A00797A
:10AA230016128D8AC29C7B017A007911E490002270
:10AA3300F07D0D12B33ED29CD28722C287E49000F0
:10AA430011F078117C007D017BFF7A26798C121F2F
:10AA53005F7B017A0079131260FD90004974FFF067
:10AA6300A37426F0A37433F07B017A00791112AB3F
:0CAA7300DB7B017A00791112A685D287E6
:01AA7F0022B4
:10002600402321246046625E262A003A5B3C253F37
:1000360058545D3D29000D0A0A25733E20002563AC
:10004600002564000D0A0A2041435455414C2049BD
:10005600445F434C49454E54453D25730D0A0A00FD
:100066000D0A0A20444947495445205355204E5508
:1000760045564F2049445F434C49454E54453D0043
:100086000D0A0A204441544F204D4F4449464943E6
:1000960041444F2049445F434C49454E54453D2514
:1000A600730D0A0A000D0A0A2041435455414C209B
:1000B600434F445F5041524B3D25730D0A0A000DD4
:1000C6000A0A20444947495445205355204E554570
:1000D600564F20434F445F5041524B3D000D0A0A94
:1000E600204441544F204D4F444946494341444FD3
:1000F60020434F445F5041524B3D25730D0A0A0081
:100106000D0A0A2041435455414C205449454D504F
:100116004F5F4752414349413D25730D0A0A000D81
:100126000A0A20444947495445205355204E55450F
:10013600564F205449454D504F5F47524143494120
:100146003D000D0A0A204441544F204D4F44494674
:10015600494341444F205449454D504F5F47524112
:100166004349413D25730D0A0A000D0A0A20414301
:100176005455414C2053494E5F434F42524F2049FC
:100186004E484142494C495441444F3D25730D0A5E
:100196000A000D0A0A2041435455414C2053494E4A
:1001A6005F434F42524F204752415449533D2573B6
:1001B6000D0A0A000D0A0A2041435455414C2053AA
:1001C600494E5F434F42524F2047524154495320B4
:1001D600592053414C49444120454C204D49534DEB
:1001E6004F204449413D25730D0A0A000D0A0A2095
:1001F600444947495445205355204E5545564F20AE
:1002060053494E5F434F42524F3D000D0A0A20416B
:10021600435455414C20444542554720494E484198
:1002260042494C495441444F3D25730D0A0A000D7D
:100236000A0A2041435455414C2044454255472023
:10024600484142494C495441444F3D25730D0A0AE1
:10025600000D0A0A2044494749544520454C204E82
:100266005545564F2045535441444F20444520445C
:10027600454255473D000D0A0A2041435455414C1D
:10028600205553455F4C505220494E484142494CF7
:10029600495441444F3D25730D0A0A000D0A0A20B0
:1002A60041435455414C205553455F4C50522048CC
:1002B6004142494C495441444F3D25730D0A0A00B9
:1002C6000D0A0A2044494749544520454C204E55BD
:1002D60045564F2045535441444F204445205553DD
:1002E600455F4C50523D000D0A0A2050414E544184
:1002F6004C4C41204C434420484142494C495441CE
:1003060044413D25730D0A0A000D0A0A2050414E4C
:1003160054414C4C4120524153504245525259206F
:1003260020484142494C49544144413D25730D0AF8
:100336000A000D0A0A2044494749544520454C20E5
:100346004E5545564F2045535441444F2044452071
:100356004C412050414E54414C4C41203D000D0A29
:100366000A2041435455414C20434F4D5041524180
:1003760043494F4E2041435449564120204841426B
:10038600494C49544144413D25730D0A0A000D0A62
:100396000A20455850494445205441524A45544143
:1003A6002050554C53414E444F20424F544F4E0D12
:1003B6000A0A000D0A0A204558504944452054416E
:1003C600524A455441204155544F4D4154494341A9
:1003D6000D0A0A000D0A0A2044494749544520459A
:1003E6004C204E5545564F2045535441444F2044CA
:1003F600454C20455850454449444F523D000D0A4E
:100406000A2041435455414C20414E5449504153D2
:10041600534241434B20494E484142494C4954417D
:10042600444F3D25730D0A0A000D0A0A2041435424
:1004360055414C20414E5449504153534241434B40
:1004460020484142494C495441444F3D25730D0AC9
:100456000A000D0A0A2044494749544520454C20C4
:100466004E5545564F2045535441444F2044452050
:10047600414E5449504153534241434B3D000D0AAE
:100486000A2041435455414C20504C414341204998
:100496004E484142494C495441444F3D25730D0A4B
:1004A6000A000D0A0A2041435455414C20504C4144
:1004B600434120484142494C495441444F3D2573EC
:1004C6000D0A0A000D0A0A204449474954452045A9
:1004D6004C204E5545564F2045535441444F2044D9
:1004E6004520504C4143413D000D0A0A20414354EA
:1004F60055414C20414444524553535F484947486F
:100506005F424F4152443D25730D0A0A000D0A0A07
:1005160020444947495445204C41204E55455641B3
:1005260020414444524553535F484947485F424F30
:100536004152443D000D0A0A2041435455414C2086
:10054600484F524152494F20494E484142494C4931
:100556005441444F3D25730D0A0A000D0A0A2041F5
:10056600435455414C20484F524152494F2048412F
:1005760042494C495441444F3D25730D0A0A000D2A
:100586000A0A2044494749544520454C204E5545C2
:10059600564F2045535441444F20444520484F521E
:1005A6004152494F3D000D0A0A2044696769746546
:1005B60020486F72612030383A3030204D696E75B0
:1005C600746F732044657364653A20000D0A0A202F
:1005D600486F72612050726F6772616D616461204D
:1005E60044657364653A200025633A000D0A0A20C3
:1005F60044696769746520486F72613A4D696E7522
:10060600746F732048617374613A20000D0A0A20E2
:10061600486F72612050726F6772616D616461200C
:1006260048617374613A20000D0A2044657364655D
:10063600202048617374610D0A002025630025633C
:10064600202020000D0A0A20446967697465206C21
:100656006F73206469617320612070726F677261C5
:100666006D6172204C756E6573203D20322C200022
:100676004D6172746573203D20332C204D6965727F
:10068600636F6C6573203D20342C204A7565766552
:1006960073203D20352C2000566965726E657320E7
:1006A6003D20362C2053616261646F203D20372C3B
:1006B60020446F6D696E676F203D2031203A20001F
:1006C6000D0A0A20446961732050726F6772616D6A
:1006D60061646F73203A2000204C756E6573003D8F
:1006E6002025632C00204D617274657300204D69CE
:1006F6006572636F6C657300204A75657665730075
:1007060020566965726E6573002053616261646F7D
:100716000020446F6D696E676F003D2025630020E1
:100726004C756E6573203D2050726F6772616D6106
:10073600646F0D0A00204C756E6573203D204E6F68
:100746002070726F6772616D61646F0D0A00204DD3
:100756006172746573203D2050726F6772616D61BE
:10076600646F0D0A00204D6172746573203D204E42
:100776006F2070726F6772616D61646F0D0A002081
:100786004D696572636F6C6573203D2050726F67AB
:1007960072616D61646F0D0A00204D696572636F49
:1007A6006C6573203D204E6F2070726F6772616DAD
:1007B60061646F0D0A00204A7565766573203D20D9
:1007C60050726F6772616D61646F0D0A00204A7521
:1007D60065766573203D204E6F2070726F6772617B
:1007E6006D61646F0D0A0020566965726E6573202F
:1007F6003D2050726F6772616D61646F0D0A002053
:10080600566965726E6573203D204E6F2070726F5B
:100816006772616D61646F0D0A00205361626164E5
:100826006F203D2050726F6772616D61646F0D0AB3
:10083600002053616261646F203D204E6F2070720C
:100846006F6772616D61646F0D0A0020446F6D6998
:100856006E676F203D2050726F6772616D61646FC5
:100866000D0A0020446F6D696E676F203D204E6F44
:100876002070726F6772616D61646F0D0A000D0AF8
:100886000A2044696769746520656C206E756D651C
:10089600726F2064656C20486F726172696F2061A7
:1008A6002070726F6772616D6172203D20000D0AC3
:1008B6000A2050726F6772616D6172207365677589
:1008C6006E646F20486F726172696F2073693D288C
:1008D6003129206E6F3D2830293D20000D0A0A205F
:1008E60041435455414C205449504F5F5645484961
:1008F60043554C4F204D454E5355414C20494E488B
:100906004142494C495441444F3D25730D0A0A0062
:100916000D0A0A2041435455414C205449504F5F1B
:100926005645484943554C4F204D454E5355414C2D
:1009360020484142494C495441444F3D25730D0AD4
:100946000A000D0A0A2044494749544520454C20CF
:100956004E5545564F2045535441444F204445205B
:100966005449504F5F5645484943554C4F204D45D5
:100976004E5355414C3D000D0A0A20414354554102
:100986004C205449504F5F5645484943554C4F20DB
:10099600204D454E5355414C20484142494C4954FF
:1009A60041444F3D25730D0A0A000D0A0A204143B2
:1009B6005455414C20414E544950415353424143B2
:1009C6004B204D454E5355414C20494E48414249D6
:1009D6004C495441444F3D25730D0A0A000D0A0A3D
:1009E6002041435455414C20414E544950415353A4
:1009F6004241434B204D454E5355414C20484142C0
:100A0600494C495441444F3D25730D0A0A000D0ACD
:100A16000A2044494749544520454C204E554556E1
:100A26004F2045535441444F20444520414E54499C
:100A3600504153534241434B204D454E5355414C33
:100A46003D000D0A0A2041435455414C20414E5465
:100A560049504153534241434B20204D454E535537
:100A6600414C20484142494C495441444F3D25732D
:100A76000D0A0A000D0A0A2041435455414C2046EE
:100A8600454348412056454E43494D49454E544FEE
:100A96002050415353574F52443A25730D0A0A00CA
:100AA6000D0A0A2F3E496420526567697374726F96
:100AB6003A002573000D0A0A2F3E50617373776F53
:100AC60072643A000D0A0A20444947495445204CAD
:100AD60041204E5545564120464543484120444510
:100AE6002056454E43494D49454E544F3D000D0A4B
:100AF6000A2025730D0A0A000D0A0A202558000D42
:100B06000A0A2041435455414C204645434841205A
:100B160044452056454E43494D49454E544F205075
:100B2600524F4752414D414441203D25730D0A0A1B
:100B3600000D0A206E756D65726F2064656C204825
:100B46006F726172696F202070726F6772616D617A
:100B5600646F203D2025630D0A000D0A2020484FB2
:100B6600524152494F20484142494C495441444F11
:100B760020203D204F4E0D0A000D0A204469617366
:100B86002050726F6772616D61646F730D0A000D9C
:100B96000A2020534547554E444F20484F52415254
:100BA600494F20484142494C495441444F20203D39
:100BB600204F4E0D0A000D0A20534547554E444F0F
:100BC60020484F524152494F20484142494C4954CE
:100BD60041444F20203D204F46460D0A000D0A2075
:100BE60020484F524152494F20484142494C4954AE
:100BF60041444F20203D204F46460D0A000D0A0A6B
:100C06002041435455414C204D454E5355414C20AF
:100C1600504F5220424F434120494E484142494C91
:100C2600495441444F3D25730D0A0A000D0A0A2016
:100C360041435455414C204D454E5355414C20504F
:100C46004F5220424F434120484142494C4954416A
:100C5600444F3D25730D0A0A000D0A0A20444947F0
:100C660049544520454C204E5545564F2045535432
:100C760041444F2044454C204D454E5355414C3D33
:100C8600000D0A2049445F434C49454E54455F5088
:100C9600524F4752414D41444F203D2025730D0A86
:100CA600000D0A20434F445F5041524B5F50524F54
:100CB6004752414D41444F203D2025730D0A000DFA
:100CC6000A2050524F4752414D41444F204445421D
:100CD6005547203D204F4E0D0A000D0A2050524F19
:100CE6004752414D41444F204445425547203D20FF
:100CF6004F46460D0A000D0A205553455F4C50528B
:100D0600203D204F46460D0A000D0A205553455FEB
:100D16004C5052203D204F4E0D0A000D0A205041E6
:100D26004E54414C4C41204C43442050524F475264
:100D3600414D4144410D0A000D0A2050414E544197
:100D46004C4C41205241535042455252592020505A
:100D5600524F4752414D4144410D0A000D0A20456C
:100D66005850494445205441524A45544120505513
:100D76004C53414E444F20424F544F4E0D0A000DE6
:100D86000A20455850494445205441524A45544149
:100D9600204155544F4D41544943410D0A000D0A17
:100DA6002020414E5449504153534241434B203D2C
:100DB600204F46460D0A000D0A20414E5449504127
:100DC60053534241434B203D204F4E0D0A000D0A1E
:100DD60020504C414341203D204F46460D0A000D10
:100DE6000A20504C414341203D204F4E0D0A000D34
:100DF6000A2041435455414C2041444452455353E3
:100E06005F484947485F424F415244203D20257381
:100E16000D0A000D0A205449504F5F564548494374
:100E2600554C4F204D454E5355414C203D204F4685
:100E3600460D0A000D0A205449504F5F5645484951
:100E460043554C4F204D454E5355414C203D204F68
:100E56004E0D0A000D0A20414E544950415353424B
:100E660041434B204D454E5355414C203D204F4666
:100E7600460D0A000D0A2020414E54495041535355
:100E86004241434B204D454E5355414C203D204F4A
:100E96004E0D0A000D0A4D454E5355414C20504FFC
:100EA6005220424F4341203D204F46460D0A000D39
:100EB6000A20204D454E5355414C20504F5220425A
:100EC6004F4341203D204F4E0D0A000D0A2041435D
:100ED6005455414C204645434841204445205645FB
:100EE6004E43494D49454E544F2050524F4752416B
:100EF6004D414441203D25730D0A000D0A204E75D3
:100F06006D65726F206465207469636B6574203D3E
:100F160025730D0A000D0A2049445F434C49454E8E
:100F260054452020202020202020202D2D2D204318
:100F36004D442030204964656E7469666963616456
:100F46006F722064656C20636C69656E7465206DD4
:100F56006178696D6F20323535000D0A20434F44A4
:100F66005F5041524B20202020202020202020208E
:100F76002D2D2D20434D44203120456C206E756D5E
:100F860065726F2064656C2070617271756561644D
:100F960065726F206D6178696D6F20323535000D91
:100FA6000A20545F475241434941202020202020F7
:100FB60020202020202D2D2D20434D44203220544A
:100FC60069656D706F2073696E20636F62726F2042
:100FD60030302C20206D6178696D6F2032353500F8
:100FE6000D0A2053494E5F434F42524F2020202086
:100FF6002020202020202D2D2D20434D442033203D
:10100600496E686162696C697461646F3D20302C59
:10101600204772617469733D2031202C204772612C
:1010260074697320792073616C69646120656C2032
:101036006D69736D6F206469613D2032000D0A2071
:1010460044454255472020202020202020202020D3
:101056002020202D2D2D20434D4420342048616230
:10106600696C69746172203D20312C20496E68617B
:1010760062696C69746172203D2030000D0A20554A
:1010860053455F4C50522020202020202020202035
:1010960020202D2D2D20434D4420352048616269A6
:1010A6006C69746172203D20312C20496E68616242
:1010B600696C69746172203D2030000D0A20544924
:1010C600504F5F50414E54414C4C4120202020202F
:1010D600202D2D2D20434D4420362050414E544185
:1010E6004C4C41204C4344203D302050414E54410D
:1010F6004C4C41205241535042455252493D3100D9
:101106000D0A20434152445F4155544F4D415449C5
:101116004341202020202D2D2D20434D44203720D3
:10112600424F54544F4E3D30204155544F4D41543B
:101136004943413D31000D0A20414E544950415327
:10114600534241434B202020202020202D2D2D20AE
:10115600434D44203820486162696C69746172208D
:101166003D20312C20496E686162696C6974617238
:10117600203D2030000D0A20504C414341202020C4
:1011860020202020202020202020202D2D2D20430F
:101196004D44203920486162696C69746172203D52
:1011A60020312C20496E686162696C697461722015
:1011B6003D2030000D0A20414444524553535F48B8
:1011C6004947485F424F415244202D2D2D20434D23
:1011D60044203130204C6120646972656363696F15
:1011E6006E20616C74612064656C20626F6172644C
:1011F6002064656C206E756D65726F203520616C9C
:1012060020392073696E6F207365207573612064C1
:1012160065626520697220656E2030000D0A2048DF
:101226004F524152494F20202020202020202020AC
:1012360020202D2D2D20434D442031312050726F1A
:1012460067616D6120313020686F726172696F73FA
:101256002064656C203120616C203130000D0A203D
:1012660056414C4944415F564548495F4D454E53AA
:1012760055414C2D2D2D20434D44203132204861BF
:1012860062696C69746172203D20312C20496E6858
:101296006162696C69746172203D2030000D0A201C
:1012A6005553455F4150425F4D454E5355414C2085
:1012B6002020202D2D2D20434D4420313320486100
:1012C60062696C69746172203D20312C20496E6818
:1012D6006162696C69746172203D2030000D0A20DC
:1012E6004D454E5355414C455309090920202020B0
:1012F600202D2D2D20434D44203134204861626934
:101306006C69746172203D20312C20496E686162DF
:10131600696C69746172203D2030000D0A205645C3
:10132600525F50524F4752414D4143494F4E202044
:10133600202D2D2D20434D44203135204D756573CC
:10134600747261206C612070726F6772616D616387
:10135600696F6E000D0A2041595544412020202016
:10136600202020202020202020202D2D2D20434D00
:1013760044203136204D756573747261206C6F732D
:1013860020636F6D616E646F73000D0A2053414CCC
:1013960049522020202020202020202020202020EC
:1013A6002D2D2D20434D442031372053616C697219
:1013B6002064652070726F6772616D6163696F6E1C
:1013C600000D0A0A53697374656D612064652050C7
:1013D600726F6772616D6163696F6E2045787065C3
:1013E6006469646F72200D0A0D0A000D0A56616C5D
:1013F6006964616E646F20436F6D616E646F730024
:101406000D0A436F6D616E646F206E6F206578699B
:101416007374652027257327003A5B3C253F585493
:101426005D3D2900232A594A41494D4563616D694D
:101436006C744B0077727A32357136382D393166D5
:10144600532E4000200D0A00200D0A00220D0A002E
:108807005401C52F00000000000000000000000018
:10881700000000000000004B01BA61646D696E0042
:108827000000000000603901D9300000310000323B
:108837000000330000340000350000360000370028
:10884700003800003900003130003131003132008A
:1088570031330031340031350031360031370031E2
:028867003800D7
:0B55490090005DEBF0A3EAF0A3E9F096
:1055540078627C007D017BFF7A14791F7E007F0BCB
:10556400121B26786D7C007D017BFF7A14792A7EDC
:10557400007F10121B26787D7C007D017BFF7A144E
:10558400793A7E007F10121B267B017A0079987F7E
:10559400507E0312AC467B017A007998128CC1EFDD
:1055A4003395E0FEEF64014E78627C007D017BFF61
:1055B40060067A00792680047A007931121F5F90A0
:1055C400005DE0FBA3E0FAA3E0F912000E90006096
:1055D400EFF0E4A3F0900061E0FFC3940A748094B8
:1055E40080400302573B90005DE0FBA3E0FAA3E098
:1055F400F98F82758300121B65FD7C0074622FF5A0
:1056040082E43400F583E02DFFEC339001B6F0A37F
:10561400EFF07E00540FFFA3EEF0A3EFF0700BE069
:1056240004F070069001B8E004F09001B8E0FEA325
:10563400E0246CF58274003EF583E07E002DFFEEDD
:105644003C9001B6F0A3EFF07E00540FFFA3EEF000
:10565400A3EFF0700BE004F070069001B8E004F0E2
:105664009001B8E0FEA3E0247CF58274003EF5834B
:10567400E0FF9001B6E0FEA3E06FFF9001B6EEF00C
:10568400FEA3EFF0D394FFEE940040059001B6E43E
:10569400F09001B6E0FEA3E0FFC3947AEE940040DC
:1056A40015D3EF94FFEE9400500CEF547AFF900161
:1056B400B6E4F0A3EFF0C39001B7E094309001B6E4
:1056C400E09400500CA3E02440F09001B6E03400D4
:1056D400F09001B6E0FEA3E0FFC3945BEE940040BB
:1056E40014D3EF9460EE9400500BE02407F0900183
:1056F400B6E03400F09001B6E0FEA3E0FFC3943AB4
:10570400EE94004014D3EF9440EE9400500BE02448
:10571400F9F09001B6E034FFF09001B6A3E0FF90F9
:105724000061E0248DF582E43400F583EFF090000D
:1057340061E004F00255D9900061E0248DF582E423
:0C5744003400F583E4F07B017A00798DDD
:015750002236
:0BACAC00900046EBF0A3EAF0A3E9F0F3
:10ACB700E490004CF090004CE0FFC3941374809430
:10ACC700805041EF75F003A424D9F9740135F0FAE7
:10ACD7007B0178497C007D01121F5F78497C007DEC
:10ACE70001900046E0FBA3E0FAA3E0F9121E76EF1D
:10ACF7003395E04F700690004CE0FF2290004CE047
:06AD070004F080B17FFFA3
:01AD0D002223
:08B49300E0FBA3E0FAA3E0F9DD
:0BB49B0090005DEBF0A3EAF0A3E9F0E5
:10B4A60078607C007D017B017A0179BA121F5F7892
:10B4B600607C007D0190005DE0FBA3E0FAA3E0F96B
:0EB4C600121E76EF3395E04F7002FF227FFFDB
:01B4D4002255
:06B557007B017A0079324D
:0BB55D0090005DEBF0A3EAF0A3E9F022
:10B5680078607C007D017BFF7A14794A7E007F0435
:10B57800121B269000677401F0A37400F0A3746096
:0FB58800F090005DE0FBA3E0FAA3E0F902837608
:109F8500E0FBA3E0FAA3E02FF9EA3EFAE92401F9A0
:039F9500E43AFAB1
:0B9F9800900046EBF0A3EAF0A3E9F014
:109FA30078497C007D017BFF7A14794E7E007F0423
:109FB300121B26784D7C007D017BFF7A1479527E3B
:109FC300007F04121B26900046E0FBA3E0FAA3E007
:109FD300F9121B4CFFB4200C900047E475F00112FA
:109FE3001BD880E2EF900067B4220D7401F0A374D4
:109FF30000F0A3744DF080167401F0A37400F0A375
:10A003007449F0900046E0FBA3E0FAA3E0F9128361
:01A0130076D6
:01A014002229
:10BCCC0090007A7401F0A37401F0A374C5F07BFFAB
:07BCDC007A00793C023DF003
:08A883007A0079637B01E4FD1A
:0EA88B00900071EBF0A3EAF0A3E9F0A3EDF06A
:10A8990012BDE2900071E0FBA3E0FAA3E0F9EF1228
:10A8A9001B92900074E0701D900071E0FBA3E0FA28
:10A8B900A3E0F9121B4C90007AF07BFF7A007944EF
:10A8C900123DF080057F2A12B616900071E0FBA3B5
:10A8D900E0FAA3E0F9121B4CFF7E00900072E475C8
:10A8E900F001121BD8900071E0FBA3E0FAA3E0F994
:09A8F900E4121B92EF640D70974C
:01A902002232
:10943A00E4FDFC7FA812B7117E00900050EEF0A365
:10944A00EFF090007A74FFF0A37400F0A37447F071
:10945A00A3EEF0A3EFF07B017A007946123DEA9081
:10946A00007A7401F0A37400F0A37446F07BFF7ACB
:10947A0000794A123DF07BFF7A007966123DF07A54
:10948A0000794612A8877B017A0079461286EF9006
:10949A000050EEF0A3EFF0FBE4FDFC7FA812AEEF64
:1094AA00E4FDFC7FA812B7117E00900050EEF0A3F5
:1094BA00EFF090007A74FFF0A37400F0A37447F001
:1094CA00A3EEF0A3EFF07B017A007946123DEA9011
:1094DA00007A7401F0A37400F0A37446F07BFF7A5B
:0694EA00007986023DF04E
:109091007D027C007FA812B7117E00900050EEF097
:1090A100A3EFF090007A74FFF0A37400F0A374476B
:1090B100F0A3EEF0A3EFF07B017A007946123DEACE
:1090C10090007A7401F0A37400F0A37446F07BFF62
:1090D1007A0079AB123DF07BFF7A0079C5123DF041
:1090E1007B017A007946E4FD12A88B7B017A007935
:1090F100461286EF900050EEF0A3EFF0FB7D027C6C
:10910100007FA812AEEF7D027C007FA812B7117E0E
:1091110000900050EEF0A3EFF090007A74FFF0A3FE
:109121007400F0A37447F0A3EEF0A3EFF07B017A93
:10913100007946123DEA90007A7401F0A37400F0C0
:0D914100A37446F07BFF7A0079E3023DF055
:10914E007D047C007FA812B7117E00900050EEF0D7
:10915E00A3EFF090007A74FFF0A37400F0A37447AD
:10916E00F0A3EEF0A3EFF07B017A007946123DEA10
:10917E0090007A7401F0A37400F0A37446F07BFFA4
:10918E007A017906123DF07BFF7A017925123DF0C6
:10919E007B017A007946E4FD12A88B7B017A007977
:1091AE00461286EF900050EEF0A3EFF0FB7D047CAC
:1091BE00007FA812AEEF7D047C007FA812B7117E4F
:1091CE0000900050EEF0A3EFF090007A74FFF0A341
:1091DE007400F0A37447F0A3EEF0A3EFF07B017AD6
:1091EE00007946123DEA90007A7401F0A37400F003
:0D91FE00A37446F07BFF7A017948023DF032
:1069E0007D067C007FA812B7117E00900050EEF06B
:1069F000A3EFF090007A74FFF0A37400F0A3744743
:106A0000F0A3EEF0A3EFF07B017A007946123DEAA5
:106A1000900050E07002A3E0701590007A04F0A39B
:106A20007400F0A37446F07BFF7A01797080359092
:106A30000050E07004A3E06401701590007A04F047
:106A4000A37400F0A37446F07BFF7A017998801458
:106A500090007A7401F0A37400F0A37446F07BFFF9
:106A60007A0179BA123DF07BFF7A0179F2123DF09A
:106A70007B017A007946E4FD12A88B7B017A0079CC
:106A8000461286EF900050EEF0A3EFF0FB7D067CFF
:106A9000007FA812AEEF7D067C007FA812B7117EA2
:106AA00000900050EEF0A3EFF090007A74FFF0A396
:106AB0007400F0A37447F0A3EEF0A3EFF07B017A2B
:106AC000007946123DEA900050E07002A3E0701594
:106AD00090007A04F0A37400F0A37446F07BFF7A70
:106AE0000179708035900050E07004A3E06401707B
:106AF0001590007A04F0A37400F0A37446F07BFFB5
:106B00007A017998801490007A7401F0A37400F0EF
:0D6B1000A37446F07BFF7A0179BA123DF0C4
:016B1D002255
:1078CB007D087C007FA812B7117E00900050EEF06F
:1078DB00A3EFF090007A74FFF0A37400F0A3744749
:1078EB00F0A3EEF0A3EFF07B017A007946123DEAAC
:1078FB00900050E07002A3E0701590007A04F0A3A2
:10790B007400F0A37446F07BFF7A02791180149017
:10791B00007A7401F0A37400F0A37446F07BFF7A35
:10792B00027935123DF07BFF7A027957123DF07BDD
:10793B00017A007946E4FD12A88B7B017A00794627
:10794B001286EF900050EEF0A3EFF0FB7D087C0069
:10795B007FA812AEEF7D087C007FA812B7117E00C6
:10796B00900050EEF0A3EFF090007A74FFF0A37448
:10797B0000F0A37447F0A3EEF0A3EFF07B017A00C5
:10798B007946123DEA900050E07002A3E07015902A
:10799B00007A04F0A37400F0A37446F07BFF7A0224
:1079AB007911801490007A7401F0A37400F0A37421
:0B79BB0046F07BFF7A027935123DF0A8
:0179C600229E
:1079C7007D0A7C007FA812B7117E00900050EEF070
:1079D700A3EFF090007A74FFF0A37400F0A374474C
:1079E700F0A3EEF0A3EFF07B017A007946123DEAAF
:1079F700900050E07002A3E0701590007A04F0A3A5
:107A07007400F0A37446F07BFF7A02797C801490AF
:107A1700007A7401F0A37400F0A37446F07BFF7A38
:107A27000279A2123DF07BFF7A0279C6123DF07B04
:107A3700017A007946E4FD12A88B7B017A0079462A
:107A47001286EF900050EEF0A3EFF0FB7D0A7C006A
:107A57007FA812AEEF7D0A7C007FA812B7117E00C7
:107A6700900050EEF0A3EFF090007A74FFF0A3744B
:107A770000F0A37447F0A3EEF0A3EFF07B017A00C8
:107A87007946123DEA900050E07002A3E07015902D
:107A9700007A04F0A37400F0A37446F07BFF7A0227
:107AA700797C801490007A7401F0A37400F0A374B9
:0B7AB70046F07BFF7A0279A2123DF03E
:017AC20022A1
:107AC3007D0E7C007FA812B7117E00900050EEF06F
:107AD300A3EFF090007A74FFF0A37400F0A374474F
:107AE300F0A3EEF0A3EFF07B017A007946123DEAB2
:107AF300900050E07002A3E0701590007A04F0A3A8
:107B03007400F0A37446F07BFF7A0279ED80149041
:107B1300007A7401F0A37400F0A37446F07BFF7A3B
:107B230003790F123DF07BFF7A037938123DF07B26
:107B3300017A007946E4FD12A88B7B017A0079462D
:107B43001286EF900050EEF0A3EFF0FB7D0E7C0069
:107B53007FA812AEEF7D0E7C007FA812B7117E00C6
:107B6300900050EEF0A3EFF090007A74FFF0A3744E
:107B730000F0A37447F0A3EEF0A3EFF07B017A00CB
:107B83007946123DEA900050E07002A3E070159030
:107B9300007A04F0A37400F0A37446F07BFF7A022A
:107BA30079ED801490007A7401F0A37400F0A3744B
:0B7BB30046F07BFF7A037964123DF07E
:017BBE0022A4
:108F11007D0F7C007FA812B7117E00900050EEF00B
:108F2100A3EFF090007A74FFF0A37400F0A37447EC
:108F3100F0A3EEF0A3EFF07B017A007946123DEA4F
:108F4100900050E07002A3E07BFF70067A037994F1
:108F510080047A0379B9123DF07BFF7A0379DA1242
:108F61003DF07B017A007946E4FD12A88B7B017A02
:108F71000079461286EF900050EEF0A3EFF0FB7DF2
:108F81000F7C007FA812AEEF7D0F7C007FA812B787
:108F9100117E00900050EEF0A3EFF090007A74FF84
:108FA100F0A37400F0A37447F0A3EEF0A3EFF07BFD
:108FB100017A007946123DEA900050E07002A3E088
:108FC1007BFF70067A03799480047A0379B9123DA4
:018FD100F0AF
:018FD200227C
:107BBF007D107C007FA812B7117E00900050EEF070
:107BCF00A3EFF090007A74FFF0A37400F0A3744752
:107BDF00F0A3EEF0A3EFF07B017A007946123DEAB5
:107BEF00900050E07002A3E0701590007A04F0A3AB
:107BFF007400F0A37446F07BFF7A0479048014902C
:107C0F00007A7401F0A37400F0A37446F07BFF7A3E
:107C1F0004792F123DF07BFF7A047958123DF07BE7
:107C2F00017A007946E4FD12A88B7B017A00794630
:107C3F001286EF900050EEF0A3EFF0FB7D107C006A
:107C4F007FA812AEEF7D107C007FA812B7117E00C7
:107C5F00900050EEF0A3EFF090007A74FFF0A37451
:107C6F0000F0A37447F0A3EEF0A3EFF07B017A00CE
:107C7F007946123DEA900050E07002A3E070159033
:107C8F00007A04F0A37400F0A37446F07BFF7A042B
:107C9F007904801490007A7401F0A37400F0A37437
:0B7CAF0046F07BFF7A04792F123DF0B5
:017CBA0022A7
:107CBB007D117C007FA812B7117E00900050EEF072
:107CCB00A3EFF090007A74FFF0A37400F0A3744755
:107CDB00F0A3EEF0A3EFF07B017A007946123DEAB8
:107CEB00900050E07002A3E0701590007A04F0A3AE
:107CFB007400F0A37446F07BFF7A047984801490AF
:107D0B00007A7401F0A37400F0A37446F07BFF7A41
:107D1B000479A8123DF07BFF7A0479CA123DF07BFF
:107D2B00017A007946E4FD12A88B7B017A00794633
:107D3B001286EF900050EEF0A3EFF0FB7D117C006C
:107D4B007FA812AEEF7D117C007FA812B7117E00C9
:107D5B00900050EEF0A3EFF090007A74FFF0A37454
:107D6B0000F0A37447F0A3EEF0A3EFF07B017A00D1
:107D7B007946123DEA900050E07002A3E070159036
:107D8B00007A04F0A37400F0A37446F07BFF7A042E
:107D9B007984801490007A7401F0A37400F0A374BA
:0B7DAB0046F07BFF7A0479A8123DF03F
:017DB60022AA
:10845A007D127C007FA812B7117E00900050EEF0CA
:10846A00A3EFF090007A74FFF0A37400F0A37447AE
:10847A00F0A3EEF0A3EFF07B017A007946123DEA11
:10848A00900050E07002A3E0700690007A04800524
:10849A0090007A7401F0A37400F0A37446F07BFF95
:1084AA007A0479EF123DF07BFF7A057913123DF0D9
:1084BA007B017A007946E4FD12A88B7B017A007968
:1084CA00461286EF900050EEF0A3EFF0FB7D127C8F
:1084DA00007FA812AEEF7D127C007FA812B7117E32
:1084EA0000900050EEF0A3EFF090007A74FFF0A332
:1084FA007400F0A37447F0A3EEF0A3EFF07B017AC7
:10850A00007946123DEA900050E07002A3E070063E
:10851A0090007A04800590007A7401F0A37400F048
:0D852A00A37446F07BFF7A0479EF123DF058
:018537002221
:10B9F9009000747419F0A37432F0A3744BF0A3741B
:10BA090064F0A3747DF0A37496F0A374AFF0A374EB
:10BA1900C8F0A374E1F0A374FAF0E4A3F07B017A0F
:03BA29000079742D
:01BA2C0022F7
:0A737700900061EEF0FCA3EFF0FDC2
:107381007FA812B7117E0090006DEEF0A3EFF09090
:10739100007A74FFF0A37400F0A37447F0A3EEF039
:1073A100A3EFF07B017A007963123DEA90006DE072
:1073B1007002A3E0701590007A04F0A37400F0A3AA
:1073C1007463F07BFF7A05793B801490007A740135
:1073D100F0A37400F0A37463F07BFF7A0579611266
:1073E1003DF07BFF7A057985123DF07B017A0079CA
:1073F10063E4FD12A88B7B017A0079631286EF901A
:10740100006DEEF0A3EFF0900061E0FCA3E0FDABB6
:10741100077FA812AEEF900061E0FCA3E0FD7FA81A
:1074210012B7117E0090006DEEF0A3EFF090007A9C
:1074310074FFF0A37400F0A37447F0A3EEF0A3EF80
:10744100F07B017A007963123DEA90006DE07002F1
:10745100A3E090006F7018F0A3F090007A04F0A3FD
:107461007400F0A37463F07BFF7A05793B8017E425
:10747100F0A304F090007AF0A37400F0A37463F019
:0F7481007BFF7A057961123DF090006FA3E0FF69
:0174900022D9
:08575100900061EEF0A3EFF0FF
:105759007BFF7A0579AC123DF012A8837BFF7A05AD
:1057690079D2123DF0900062E02407FD900061E0DB
:105779003400FC900063E0FB7FA812AEEF9000625A
:10578900E02407FD900061E03400FC7FA812B71106
:105799007BFF7A00794490007AEFF0123DF0900097
:1057A90062E02408FD900061E03400FC900064E0B0
:1057B900FB7FA812AEEF900062E02408FD90006123
:1057C900E03400FC7FA812B7117BFF7A0579EE90CF
:1057D900007AEFF0123DF0900062E02409FD90009C
:1057E90061E03400FC900066E0FB7FA812AEEF9008
:1057F9000062E02409FD900061E03400FC7FA812FA
:10580900B7117BFF7A00794490007AEFF0123DF0EE
:10581900900062E0240AFD900061E03400FC9000F1
:1058290067E0FB7FA812AEEF900062E0240AFD90CA
:105839000061E03400FC7FA812B7117BFF7A007980
:105849004490007AEFF0123DF07BFF7A0579F2126D
:105859003DF012A8837BFF7A067912123DF0900081
:1058690062E0240BFD900061E03400FC900063E0ED
:10587900FB7FA812AEEF900062E0240BFD9000615F
:10588900E03400FC7FA812B7117BFF7A00794490BD
:10589900007AEFF0123DF0900062E0240CFD9000D8
:1058A90061E03400FC900064E0FB7FA812AEEF9049
:1058B9000062E0240CFD900061E03400FC7FA81236
:1058C900B7117BFF7A0579EE90007AEFF0123DF07F
:1058D900900062E0240DFD900061E03400FC90002E
:1058E90066E0FB7FA812AEEF900062E0240DFD9008
:1058F9000061E03400FC7FA812B7117BFF7A0079C0
:105909004490007AEFF0123DF0900062E0240EFD21
:10591900900061E03400FC900067E0FB7FA812AEC4
:10592900EF900062E0240EFD900061E03400FC7FFE
:10593900A812B7117BFF7A00794490007AEFF00240
:025949003DF02F
:08749100900074EEF0A3EFF08F
:107499007BFF7A06792E123DF0900075E02407FDF6
:1074A900900074E03400FC7FA812B7117BFF7A06C4
:1074B900794090007AEFF0123DF0900075E02408D1
:1074C900FD900074E03400FC7FA812B7117BFF7AAD
:1074D9000579EE90007AEFF0123DF0900075E02406
:1074E90009FD900074E03400FC7FA812B7117BFFFE
:1074F9007A00794490007AEFF0123DF0900075E03F
:10750900240AFD900074E03400FC7FA812B7117BB7
:10751900FF7A06794490007AEFF0123DF0900075F9
:10752900E0240BFD900074E03400FC7FA812B71131
:107539007BFF7A00794490007AEFF0123DF09000D9
:1075490075E0240CFD900074E03400FC7FA812B7AC
:10755900117BFF7A0579EE90007AEFF0123DF090F9
:107569000075E0240DFD900074E03400FC7FA81242
:10757900B7117BFF7A00794490007AEFF0123DF061
:10758900900075E0240EFD900074E03400FC7FA8A3
:1075990012B7117BFF7A00794490007AEFF0023D2F
:0175A900F0F1
:0848A000900061EEF0A3EFF0BF
:1048A8007BFF7A06794A123DF07BFF7A0679761209
:1048B8003DF07BFF7A06799E123DF07B017A007904
:1048C80063E4FD12A88B7BFF7A0679C6123DF0E4FB
:1048D80090006EF090006EE0FFC39408748094809E
:1048E8004003024B5674632FF582E43400F583E0ED
:1048F80090006FF0643270437BFF7A0679DE123DD8
:10490800F0900062E02401FD900061E03400FC7B3F
:10491800327FA812AEEF900062E02401FD900061A2
:10492800E03400FC7FA812B71190006DEFF07BFF18
:104938007A0679E590007AF0123DF090006EE02456
:1049480063F582E43400F583E090006FF06433701F
:10495800437BFF7A0679EB123DF0900062E0240277
:10496800FD900061E03400FC7B337FA812AEEF902D
:104978000062E02402FD900061E03400FC7FA81290
:10498800B71190006DEFF07BFF7A0679E590007A19
:10499800F0123DF090006EE02463F582E43400F5F7
:1049A80083E090006FF0643470437BFF7A0679F3FC
:1049B800123DF0900062E02403FD900061E03400B5
:1049C800FC7B347FA812AEEF900062E02403FD90D8
