:108917004101720A4101A5004101B1004101A600D0
:108927004101AE004201A700004101B0064101B577
:10893700034101B4F241017102C10AC10BC10941EE
:03894700017000BC
:03000B0002BC80B4
:10BC8000C0E0C083C082900172E014F0E0640170F3
:10BC9000069001A5E004F09001A8E004F070069081
:0EBCA00001A7E004F0C28DD082D083D0E03244
:10BF8D00E58954F04401F589E4F58CF58AD28C22CB
:05C03300C28DD2A9221C
:03C03D00C2A92273
:0BBFCC0012BD79EFF47002EEF460F596
:01BFD7002247
:05B844009000A7EFF0E9
:10B849009000A7E0FF12BA2DEF3395E04F6024E492
:10B859009000A8F0A3F0C39000A9E094E89000A894
:10B86900E0940350DBA3E004F070EB9000A8E0043F
:08B87900F080E39000A7E0FF5E
:01B8810022A4
:0EB52600900034EBF0A3EAF0A3E9F0A3EDF0FF
:10B53400E4A3F0900037E0FFA3E0C39F50299000FC
:10B5440034E0FBA3E0FAA3E0F9121B4CFF12B84469
:10B55400900039EFF0900035E475F001121BD8909B
:07B564000038E004F080CC88
:01B56B0022BD
:10BF9D0012C03812BFF512BFE2C283D287C29722F8
:10B243007D047C007FA812B93F9001B2E4F0A3EF24
:10B25300F07D067C007FA812B93F9001ACE4F0A317
:10B26300EFF07D087C007FA812B93F9001AAEFF0B0
:10B273007D0A7C007FA812B93F9001A9EFF07D0EF3
:0DB283007C007FA812B93F9001ABEFF022D4
:10A97F0012BF8D12C03312BCAE12B88212BF9DD25D
:10A98F00AF12BEE97F217E0012BF2112BFAD7F61E2
:10A99F0012B378D28212BFFC20910312543712B235
:10A9AF0043126C68EF70FA9001727405F020800307
:10A9BF0012BAA2900170E0FF1239E4900170EFF02B
:10A9CF0020B3292009267B017A01794812A03890FB
:10A9DF000000EFF0FD7B017A01794812B7C57B01CA
:10A9EF007A017948900000E0FD1234A71298948004
:01A9FF00BC9B
:10B9F2007072696D6172696F204243433D20000D90
:10BA02000A0063616C63756C6F204243433D200002
:10BA12005245454E56494152207472616D6120482B
:0BBA22006F72613A20004C495645004D
:0E34A700900001EBF0A3EAF0A3E9F0A3EDF032
:1034B500E4A3F0ED641A60030235ED900001E0FB32
:1034C500A3E0FAA3E0F9121B4C640260030235ED98
:1034D500900002121B65644860030235ED900004FC
:1034E500E07E0024FEF582EE34FFF583121B656451
:1034F5000360030235ED7BFF7AB979F212B3CB9005
:103505000001E0FBA3E0FAA3E0F9900019121B65A6
:10351500FF12B4517BFF7ABA790112B3CBE4FC9068
:103525000004E014FEECC39E501F900001E0FBA3D5
:10353500E0FAA3E0F9AF048F82758300121B65FEE4
:10354500900005E06EF00C80D67BFF7ABA79041204
:10355500B3CB900005E0FF12B4517BFF7ABA790135
:1035650012B3CB900001E0FBA3E0FAA3E0F99000D1
:1035750019121B65FF900005E0B50726E92403F93C
:10358500E43AFA1276F4EF60030239E3900001E0C1
:10359500FBA3E0FAA3E02403F9E43AFA129D27021B
:1035A500AC019000067402F0A37405F0A37403F057
:1035B500E4A3F07B017A0079067D041297E27BFF94
:1035C5007ABA791212B3CB900006E0FF12B451908B
:1035D5000007E0FF12B451900008E0FF12B4517BE0
:1035E500FF7ABA790102B3CB900001E0FBA3E0FAC0
:1035F500A3E0F9121B4C64B170057F600238169088
:103605000001E0FBA3E0FAA3E0F9121B4C64B270E1
:10361500057F5D023816900001E0FBA3E0FAA3E008
:10362500F9121B4C64B370057F63023816900004D1
:10363500E064017017900001E0FBA3E0FAA3E0F954
:10364500121B4C64B470057F5E023816900004E0CE
:1036550064017017900001E0FBA3E0FAA3E0F91202
:103665001B4C64B570057F62023816900001E0FBC3
:10367500A3E0FAA3E0F9121B4C64B6702690021D74
:10368500E004F0E0D394047480948050030239E39D
:103695007FAE121FE1E49001A5F0C297C2839002AC
:1036A5001DF022900001E0FBA3E0FAA3E0F9121B54
:1036B5004CFF64B76005EF64AA70519001A5E0C3A3
:1036C5009414748094804006E4F0C297C2839001FC
:1036D500AAE060030239E39001A9E06401600302F6
:1036E50039E3C39001A8E094589001A7E0940250F3
:1036F500030239E3E4F0A3F09001AA04F07BFF7A1A
:10370500BA792812B3CBE49001AAF022900004E024
:1037150064017017900001E0FBA3E0FAA3E0F91241
:103725001B4C64B870057F9A023816900004E0FFC0
:103735006403702A900001E0FBA3E0FAA3E0F9908E
:103745000001121B6564557015FE74FF2FF582EE9E
:1037550034FFF583121B656403700302B1479000C3
:1037650004E064017017900001E0FBA3E0FAA3E018
:10377500F9121B4C64A170057F5A0238169000049B
:10378500E064017016900001E0FBA3E0FAA3E0F904
:10379500121B4C640570047F9C8076900004E064E5
:1037A500017016900001E0FBA3E0FAA3E0F9121BFB
:1037B5004C640670047F9E8058900004E06401709C
:1037C50016900001E0FBA3E0FAA3E0F9121B4C649C
:1037D5000770047F5F803A900004E06401701690E2
:1037E5000001E0FBA3E0FAA3E0F9121B4C640870AA
:1037F500047F61801C900004E06401701790000153
:10380500E0FBA3E0FAA3E0F9121B4C640970057F05
:10381500AF021FE1900004E0FF6413703C900001CB
:10382500E0FBA3E0FAA3E0F9900001121B656456E2
:103835007027EF24FFFFE434FFFE8F82F583121B10
:1038450065640370148F828E83E4121BA4E924023D
:10385500F9E43AFA7F5B0239A4900004E0FF6413AF
:10386500703C900001E0FBA3E0FAA3E0F9900001B1
:10387500121B65644F7027EF24FFFFE434FFFE8FB2
:1038850082F583121B65640370148F828E83E412A4
:103895001BA4E92402F9E43AFA7F9B0239A49000BB
:1038A50004E0FF6406600302395B900001E0FBA3BE
:1038B500E0FAA3E0F9121B4C6402600302395B9045
:1038C5000001121B656457600302395BFE74FF2F0C
:1038D500F582EE34FFF583121B6564037078900062
:1038E50001A3A3900002121B65FD7B017A007906F6
:1038F50012AF789000097420F0900001E0FBA3E07E
:10390500FAA3E0F9900003121B65FD900001A3A343
:10391500900004121B6590001CF07B017A00790A67
:103925001247129001A9E06401702112BADBEFF48D
:1039350060077FAA121FE180097B017A00790612D0
:103945008C797B017A0079067F5C80537B017A0054
:1039550079067F5C8049900004E0FF64077043901E
:103965000001E0FBA3E0FAA3E0F9121B4C6402702E
:1039750031900001121B6564637027EF24FFFFE49B
:1039850034FFFE8F82F583121B65640370148F82EA
:103995008E83E4121BA4E92402F9E43AFA7F9D021E
:1039A5004C99900004E0FF640C7033900001E0FB3B
:1039B500A3E0FAA3E0F9121B4C64027021FE74FF28
:1039C5002FF582EE34FFF583121B656403700F90AB
:0E39D5000001A3A3E02401F9E43AFA128E1EC9
:0139E30022C1
:0EB70300900033EBF0A3EAF0A3E9F0A3EDF021
:10B71100E4A3F0900036E0FFA3E0C39F5024900023
:10B7210033E0FBA3E0FAA3E0F9121B4CFF12B3785C
:10B73100900034E475F001121BD8900037E004F05A
:02B7410080D1B5
:01B7430022E3
:0B8C7900900011EBF0A3EAF0A3E9F07B
:108C84009000327403F090001414F012B63C90007B
:108C940015EFF0A37453F09001AEE090003260132E
:108CA400E0FF04F074142FF582E43400F583744D6E
:108CB400F08011E0FF04F074142FF582E43400F521
:108CC400837443F09000327404F0900011E0FBA32D
:108CD400E0FAA3E0F9121B4CFF6021900032E0247B
:108CE40014F582E43400F583EFF0900012E475F09B
:108CF40001121BD8900032E004F080CE900032E0E4
:108D0400FF04F074142FF582E43400F583743AF010
:108D1400900032E02414F9E43400FA7B011265BABD
:108D2400900032E0FF241EF582E43400F583743AA7
:108D3400F0741F2FF582E43400F5837403F07B0193
:0B8D44007A007914EF240CFD02B70345
:10BEF90050524F4752414D414D4F5320484F5241A7
:04BF0900000D0A001D
:08000300D29412C040C2942205
:05B805009000B4EFF01B
:10B80A00E4A3F0A3F09000B4E0FFA2E713F030D76E
:10B81A0004D2958002C2951200039000B6E004F0AB
:10B82A0070069000B5E004F0C39000B6E09408906A
:09B83A0000B5E06480948040CC6C
:01B8430022E2
:0AA28B00EBF0A3EAF0A3E9F07F8DE9
:05A295009000B1EFF0A4
:10A29A00D2967F037E0012BF219000B1E0FF12B870
:10A2AA0005E49000B2F0A3F09000B2E0FCA3E0FD58
:10A2BA00C39408EC64809480504F30951690021E27
:10A2CA00E04480F0ED9406EC648094805005E0FF51
:10A2DA00C313F020952090021EE0547FF0D3900023
:10A2EA00B3E094069000B2E0648094805008900233
:10A2FA001EE0FFC313F01200039000B3E004F070F5
:10A30A00A79000B2E004F0809FC29690021EE0FF80
:01A31A002220
:10BD0200900014EFF0A3EDF0D2967F037E0012BFF5
:10BD120021900014E0FF12B805900015E0FF90009A
:08BD220014F012B805C29622CC
:10B74400900012E475F001121BD8900012E475F019
:10B7540001121BD8900012E475F001121BD890005E
:10B7640011E0FBA3E0FAA3E0F9121B4CFF900001E7
:04B77400121B65FD42
:0CB77800EF540FC454F0FFED540F4FFFCE
:01B7840022A2
:1076F400E4FF121B4CFEC394305003027806EED311
:1077040094394003027806900001121B65FEC3946D
:10771400305003027803EED3943940030278039087
:107724000003121B65FEC394305003027800EED3AD
:1077340094394003027800900004121B65FEC39440
:10774400305003027808EED394394003027808904D
:107754000008121B65FEC3943050030277FDEED37C
:10776400943940030277FD90000B121B65FEC3940D
:107774003050030277FAEED39439507A90000C1209
:107784001B65FEC39430406BEED394395065900072
:107794000E121B65FEC394304056EED394395050FC
:1077A40090000F121B65FEC394304041EED3943910
:1077B400503B900011121B65FEC39430402CEED355
:1077C40094395026900012121B65FEC39430401762
:1077D400EED394395011900014121B65FEC39430FB
:1077E4004022EED39439227F01227F01227F01229D
:1077F4007F01227F01227F01227F01227F01227FDC
:0478040001227F01DD
:01780800225D
:0B9D2700900011EBF0A3EAF0A3E9F0BC
:109D32007BFF7ABE79F912B3CB7BFF7ABF790A1225
:109D4200B3CB12B762AD077F8612BD0212B744AD24
:109D5200077F8812BD02900012E475F001121BD831
:109D6200900012E475F001121BD812B744AD077FC0
:109D72008C12BD0212B744AD077F8412BD0212B726
:109D820044AD077F8212BD0212B744AD077F801235
:109D9200BD02900012E475F001121BD8900012E48B
:109DA20075F001121BD8900012E475F001121BD855
:109DB200900011E0FBA3E0FAA3E0F9121B4C540758
:069DC200FD7F8A02BD02D4
:10BE6300AE07EEC4540F540FFE6012EF540FFFE4FD
:0DBE7300FDEDC39E5007740A2FFF0D80F4F3
:01BE8000229F
:10B8FE00121BA490005EE475F001121BD890005D3F
:0CB90E00E0FBA3E0FAA3E0F9121B4CFFE1
:10B91A00E4FEFDFCECC39F500B0DED640A7002FDC2
:10B92A000E0C80F0EEC454F054F0FEED540F4EFFAE
:01B93A0022EA
:0BA1690090005DEBF0A3EAF0A3E9F02A
:10A1740012B90BEF54F0C4540F4430FE900060E069
:10A18400FBA3E0FAA3E0F9EE121B92EF540F443064
:10A19400FF900060E0FBA3E0FAA3E0F9900001EF78
:10A1A40012B8FEEF54F0C4540F4430FE900060E047
:10A1B400FBA3E0FAA3E0F9900002EE121BA4EF5413
:10A1C4000F443090000312B8FEEF54F0C4540F440F
:10A1D40030FE900060E0FBA3E0FAA3E0F9900004F5
:10A1E400EE121BA4EF540F4430900005121BA490F0
:06A1F4000006E4021BA4BA
:10AF7800E4FFFE900018EDF0900018E0C3946474AC
:10AF88008094804007E0249CF00F80ECEF4430125E
:10AF98001B92740129F9E43AFA900018E0C3940A64
:10AFA800748094804007E024F6F00E80ECEE443084
:10AFB800121B92740129F9E43AFA900018E044301F
:0EAFC800121B92740129F9E43AFAE4021B927A
:0E471200900018EBF0A3EAF0A3E9F0A3EDF09D
:10472000E490001DF0A3F0900020F0A3F0A3F0A30C
:10473000F090001FEDF054F0F0E0FFC4540FF09043
:104740000028121C81404000007F007E007D807C9C
:1047500041126728C004C005C006C00790001FE0D2
:10476000FCE412165ED003D002D001D00012154E28
:10477000C004C005C006C00790001DE0FCA3E0FD1A
:10478000E4121659D003D002D001D00012145D12E9
:10479000169290001DEEF0A3EFF090001BE0900049
:1047A0001FF0540FF0900028121C81400000007F81
:1047B000007E007D807C41126728C004C005C006D1
:1047C000C00790001FE0FCE412165ED003D002D0B8
:1047D00001D00012154EC004C005C006C0079000ED
:1047E0001DE0FCA3E0FDE4121659D003D002D00175
:1047F000D00012145D12169290001DEEF0A3EFF09F
:1048000090001CE090001FF054F0F0E0FFC4540F43
:10481000F0900028121C813F8000007F007E007D08
:10482000807C41126728C004C005C006C007900004
:104830001FE0FCE412165ED003D002D001D00012BB
:10484000154EC004C005C006C00790001DE0FCA3C3
:10485000E0FDE4121659D003D002D001D0001214AA
:104860005D12169290001DEEF0A3EFF090001CE098
:1048700090001FF0540FF0900028121C81000000DF
:10488000007F007E007D807C41126728C004C00547
:10489000C006C00790001FE0FCE412165ED003D0F3
:1048A00002D001D00012154EC004C005C006C007DA
:1048B00090001DE0FCA3E0FDE4121659D003D002E5
:1048C000D001D00012145D12169290001DEEF0A3DC
:1048D000EFF0C3EF9410EE9427401074F02FFF74A4
:1048E000D83EFE900020E004F080E7900020E044F5
:1048F00030FD900018E0FBA3E0FAA3E0F9ED121BF5
:1049000092900019E475F001121BD8C3EF94E8EE01
:104910009403401074182FFF74FC3EFE900021E0B9
:1049200004F080E7900021E04430FD900018E0FBA7
:10493000A3E0FAA3E0F9ED121B92900019E475F0E0
:1049400001121BD8C3EF9464EE94004010749C2FA6
:10495000FF74FF3EFE900022E004F080E79000220A
:10496000E04430FD900018E0FBA3E0FAA3E0F9ED8D
:10497000121B92900019E475F001121BD8C3EF943A
:104980000AEE9400401074F62FFF74FF3EFE900074
:1049900023E004F080E7900023E04430FD9000180D
:1049A000E0FBA3E0FAA3E0F9ED121B92900019E4FA
:1049B00075F001121BD8EF4430FF900018E0FBA304
:1049C000E0FAA3E0F9EF121B92900019E475F001F0
:1049D000121BD8900018E0FBA3E0FAA3E0F9E40270
:0249E0001B9228
:0365BA00900051FD
:1065BD0012A28BEF54F0C4540F4430FE900051E002
:1065CD00FBA3E0FAA3E0F9EE121B92900052E475E2
:1065DD00F001121BD8EF540F4430FF900051E0FB37
:1065ED00A3E0FAA3E0F9EF121B92900052E475F0CC
:1065FD0001121BD87F8912A295EF54F0C4540F4499
:10660D0030FE900051E0FBA3E0FAA3E0F9EE121B7F
:10661D0092900052E475F001121BD8EF540F4430E4
:10662D00FF900051E0FBA3E0FAA3E0F9EF121B92FB
:10663D00900052E475F001121BD87F8712A295EFDE
:10664D0054F0C4540F4430FE900051E0FBA3E0FA27
:10665D00A3E0F9EE121B92900052E475F001121BAB
:10666D00D8EF540F4430FF900051E0FBA3E0FAA3A4
:10667D00E0F9EF121B92900052E475F001121BD855
:10668D007F8512A295EF54F0C4540F4430FE900054
:10669D0051E0FBA3E0FAA3E0F9EE121B9290005239
:1066AD00E475F001121BD8EF540F4430FF900051E8
:1066BD00E0FBA3E0FAA3E0F9EF121B92900052E485
:1066CD0075F001121BD87F8312A295EF54F0C454BC
:1066DD000F4430FE900051E0FBA3E0FAA3E0F9EE89
:1066ED00121B92900052E475F001121BD8EF540F5B
:1066FD004430FF900051E0FBA3E0FAA3E0F9EF1264
:10670D001B92900052E475F001121BD8900051E0DD
:0B671D00FBA3E0FAA3E0F9E4021B92EA
:0B623F0090001EEBF0A3EAF0A3E9F0D2
:10624A007F8912A295EF54F0C4540F4430FE900097
:10625A001EE0FBA3E0FAA3E0F9EE121B9290001FE6
:10626A00E475F001121BD8EF540F4430FF90001E62
:10627A00E0FBA3E0FAA3E0F9EF121B9290001FE4FF
:10628A0075F001121BD87F8712A295EF54F0C454FF
:10629A000F4430FE90001EE0FBA3E0FAA3E0F9EE03
:1062AA00121B9290001FE475F001121BD8EF540FD5
:1062BA004430FF90001EE0FBA3E0FAA3E0F9EF12DE
:1062CA001B9290001FE475F001121BD87F8D12A259
:1062DA0095EF54F0C4540F4430FE90001EE0FBA327
:1062EA00E0FAA3E0F9EE121B9290001FE475F001A8
:1062FA00121BD8EF540F4430FF90001EE0FBA3E0BE
:10630A00FAA3E0F9EF121B9290001FE475F0011254
:10631A001BD87F8512A295EF54F0C4540F4430FE67
:10632A0090001EE0FBA3E0FAA3E0F9EE121B9290A4
:10633A00001FE475F001121BD8EF540F4430FF9090
:10634A00001EE0FBA3E0FAA3E0F9EF121B92900013
:10635A001FE475F001121BD87F8312A295EF54F047
:10636A00C4540F4430FE90001EE0FBA3E0FAA3E001
:10637A00F9EE121B9290001FE475F001121BD8EF80
:10638A00540F4430FF90001EE0FBA3E0FAA3E0F9AB
:10639A00EF121B9290001FE475F001121BD89000B7
:1063AA001EE0FBA3E0FAA3E0F9742E121B92900000
:1063BA001FE475F001121BD87F8112A295EF54F0E9
:1063CA00C4540F4430FE90001EE0FBA3E0FAA3E0A1
:1063DA00F9EE121B9290001FE475F001121BD8EF20
:1063EA00540F4430FF90001EE0FBA3E0FAA3E0F94B
:1063FA00EF121B9290001FE475F001121BD8900057
:0D640A001EE0FBA3E0FAA3E0F9E4021B9200
:109A96009000AE12A28B12BE639000AEE0FBA3E074
:109AA600FAA3E0F9EF121B929000AFE475F00112F1
:109AB6001BD87F8912A29512BE639000AEE0FBA36D
:109AC600E0FAA3E0F9EF121B929000AFE475F00103
:109AD600121BD87F8712A29512BE639000AEE0FBE0
:109AE600A3E0FAA3E0F9EF121B929000AFE475F041
:109AF60001121BD87F8512A29512BE639000AEE0BC
:109B0600FBA3E0FAA3E0F9EF121B929000AFE47515
:109B1600F001121BD87F8312A29512BE639000AE8D
:109B2600E0FBA3E0FAA3E0F9EF121B929000AFE48A
:069B360075F001021BD8CE
:10ACF60090000912A28B900009E0FBA3E0FAA3E002
:10AD0600F990000EEF121BA47F8912A295900009FC
:10AD1600E0FBA3E0FAA3E0F990000FEF121BA47F7B
:10AD26008712A295900009E0FBA3E0FAA3E0F99050
:10AD36000010EF121BA47F8512A295900009E0FB7C
:10AD4600A3E0FAA3E0F9900011EF121BA47F83128F
:10AD5600A295900009E0FBA3E0FAA3E0F9900012A7
:04AD6600EF021BA439
:10907D0090001E12A28B90001EE0FBA3E0FAA3E06D
:10908D00F9EF121B9290001FE475F001121BD87FAF
:10909D008912A29590001EE0FBA3E0FAA3E0F9EF80
:1090AD00121B9290001FE475F001121BD87F8712DE
:1090BD00A29590001EE0FBA3E0FAA3E0F9EF121BCE
:1090CD009290001FE475F001121BD87F8512A295B6
:1090DD0090001EE0FBA3E0FAA3E0F9EF121B9290C3
:1090ED00001FE475F001121BD87F8312A29590002A
:1090FD001EE0FBA3E0FAA3E0F9EF121B9290001F14
:10910D00E475F001121BD87F8112A29590001EE02C
:10911D00FBA3E0FAA3E0F9EF121B9290001FE47598
:10912D00F001121BD890001EE0FBA3E0FAA3E0F9BA
:04913D00E4021B929B
:07BFF500C294C296D295220E
:0B8FB40090009CEBF0A3EAF0A3E9F0B2
:108FBF007B017A0079A7129A969000A7E0FF7E00B6
:108FCF007C017D6D121BC6AC06AD07A3E075F01ECC
:108FDF00A42DFFEC35F0FEA3E07C002FFFEC3EFE4E
:108FEF00E4FD90009F121C7590009CE0FBA3E0FA3B
:108FFF00A3E0F9900001121B65FF3395E0FE7C00A2
:10900F007D1E121BC6C006C007121B4CFF3395E016
:10901F00FE0C7D6D121BC6D0E02FFFD0E03EFE9000
:10902F000002121B65FD3395E0FCEF2DFFEE3CFEB9
:10903F003395E0FDFC9000A3121C7590009FE0FC9F
:10904F00A3E0FDA3E0FEA3E0FFA3E0F8A3E0F9A3F4
:10905F00E0FAA3E0FBC3121C1240089000AD7401AC
:0D906F00F08005E49000ADF09000ADE0FF52
:01907C0022D1
:10BF2100E4FDFCC3ED9FEC9E50070DBD00010C80AC
:01BF3100F21D
:01BF320022EC
:04BE8100AB07AA065B
:10BE8500900000C3E5829BE5839A500A7F967E0069
:06BE950012BF21A380EDA5
:01BE9B002284
:08BA680090001DEEF0A3EFF0C9
:10BA7000E4A3F0A3F090001DE0FEA3E0FFC390005C
:10BA800020E09F90001FE09E50177F0A7E0012BEAC
:10BA900081900020E004F070DC90001FE004F08052
:01BAA000D4D1
:01BAA1002282
:01C0400022DD
:10B67F004572726F72206465207469636B65740024
:10B68F000A0D004E756D65726F20646520746963D5
:10B69F006B65743A004E6F206465207469636B6547
:10B6AF0074204845583A00256C75006E6174616CC2
:02B6BF00790010
:03BE040012BD9FCD
:10BE0700D20ED293D292E4FFFE209205C20EC293C5
:0CBE1700220FBF00010EBE04F0BF4CED76
:01BE230022FC
:03BE240012BD9FAD
:10BE2700D293D292D20EE4FFFE209205C20EC293A5
:0CBE3700220FBF00010EBE02F0BF8AED1A
:01BE430022DC
:06C02D00D29300C2932231
:10BD9F00E4FEEEC39408748094805015EF25E0FF05
:10BDAF0030D704D2928002C292D29312C02D0E804D
:01BDBF00E1A2
:01BDC0002260
:08BF3300ECFD7C00C293C292F8
:0ABF3B00D292D29300C292C2932268
:0ABFD800C293C29200D293D29222CB
:10B29000E4FBEBFDC39408748094805038C2933073
:10B2A0009216900213E04401F0ED940674809480AD
:10B2B0005006E025E0F0D293209217900213E0545C
:10B2C000FEF0EBD39406748094805006E025E0F005
:0CB2D000D2930B80BDC293900213E0FFEC
:01B2DC00224F
:10B19E0090005DE0FCA3E0FDA3E0FBA3E0FAA3E0DA
:07B1AE00F9121B4CFB7FA806
:02B1B500AA07E7
:10B1B700AF05A90712BF33AF0212BE04AF0512BE17
:10B1C70004AF0112BD9F12BE07AF0312BD9F12BE8F
:10B1D7000712BFD87F0D7E0012BE81D293D2927F15
:0DB1E700627E0012BF217F627E0002BF2148
:04B93B007C027FA863
:02B93F00AB0754
:10B94100AF05AA0712BF33AF0312BE24AF0512BE63
:10B9510024AF0212BD9F12BE2712BF3BEB04FF12A0
:10B96100BD9F12BE07C29312B29012BFD8D293D21A
:06B9710092900213E0FFBA
:01B9770022AD
:0B8E1E00900011EBF0A3EAF0A3E9F0D4
:108E2900E4900015F0900011E0FBA3E0FAA3E0F94B
:108E390090000AE4121BA4E4900014F0900014E0DE
:108E4900FFD39409748094805057900011E0FBA3DC
:108E5900E0FAA3E0F98F82758300121B65FF7E009B
:108E6900C3943074809480400AD3EF943974809409
:108E79008040269000157401F07BFF7AB6797F1245
:108E8900B3CB900011E0FBA3E0FAA3E0F912B3CB56
:108E99007BFF7AB6798F12B3CB900014E004F0808F
:108EA9009B900015E0700E900011E0FBA3E0FAA37F
:108EB900E0F90281F5E4FBFD7C027FA812B1B5E47B
:108EC900FB7D017C027FA812B1B5E4FB7402FDFCB5
:108ED9007FA812B1B5E4FB7D037C027FA812B1B56E
:018EE9002266
:0B81F500900016EBF0A3EAF0A3E9F005
:108200007F007E007D007C007BFF7AB6799212B3FE
:10821000CB900016E0FBA3E0FAA3E0F912B3CB7B0E
:10822000FF7AB6798F12B3CB900016E0FBA3E0FA89
:10823000A3E0F912780990001D121C757BFF7AB635
:1082400079A412B3CB90001DE0FCA3E0FDA3E0FEF7
:10825000A3E0FF7818121C23900019EFF012B4511C
:1082600090001DE0FCA3E0FDA3E0FEA3E0FF78107A
:10827000121C2390001AEFF012B45190001DE0FC84
:10828000A3E0FDA3E0FEA3E0FF7808121C2390000A
:108290001BEFF012B45190001DA3A3A3E0FF9000C8
:1082A0001CF012B4517BFF7AB6798F12B3CB9000D9
:1082B00019E0FB7D007C027FA812B1B590001AE0A6
:1082C000FB7D017C027FA812B1B590001BE0FB741E
:1082D00002FDFC7FA812B1B590001CE0FB7D037C81
:0682E000027FA802B1B507
:10B2DD00128EEA90007A74FFF0A374B6F0A374B6E0
:10B2ED00F0A3121C757B017A007959123F2C7B015A
:10B2FD007A00795912000E74592FF582E43400F555
:10B30D0083E4F07B017A00795912B3CB7BFF7AB6D7
:0BB31D00798F12B3CB7B017A007959C5
:01B328002202
:108EEA00900067121C81000000007D0012B93BA9A6
:108EFA00077D0112B93B900064EFF07402FDFC7F1C
:108F0A00A812B93F900065EFF07D0312B93B9000BB
:108F1A0066EFF0AF01A3E0F8A3E0F9A3E0FAA3E05B
:108F2A004FFFEAFEE9FDE8FC7808121C369000675C
:108F3A00121C75900064E0FF900067E0F8A3E0F966
:108F4A00A3E0FAA3E04FFFEAFEE9FDE8FC78081285
:108F5A001C36900067121C75900065E0FF90006750
:108F6A00E0F8A3E0F9A3E0FAA3E04FFFEAFEE9FD87
:108F7A00E8FC7808121C36900067121C759000668F
:108F8A00E0FFA3E0F8A3E0F9A3E0FAA3E04FFFEAC9
:108F9A00FEE9FDE8FC900067121C75900067E0FC92
:098FAA00A3E0FDA3E0FEA3E0FF3B
:018FB300229B
:10BBB700128EEAEF2401FFE43EFEE43DFDE43CFC87
:10BBC70090007A74FFF0A374B6F0A374B6F0A312D2
:10BBD7001C757B017A007909123F2C7B017A007969
:04BBE700090281F5D9
:10AEB00090009CEEF0A3EFF0A3EBF0A3EAF0A3E97F
:01AEC000F0A1
:10AEC10090009CE0FCA3E0FD7FA812B93F90009E9A
:10AED100E0FBA3E0FAA3E0F9EF121B9290009EE0E1
:10AEE100FBA3E0FAA3E0F9121B4CFF90009DE004E4
:10AEF100F0700690009CE004F090009FE475F00172
:10AF0100121BD8EF70BA90009EE0FBA3E0FAA3E019
:05AF1100F9E4021B92AF
:10AD6A0090005DEEF0A3EFF0A3EBF0A3EAF0A3E905
:10AD7A00F090005FE0FBA3E0FAA3E0F9121B4C603D
:10AD8A0024B40D04E4121B9212B19E90005EE004FA
:10AD9A00F0700690005DE004F0900060E475F00148
:10ADAA00121BD880CC12B19E90005EE004F07006AF
:10ADBA0090005DE004F0900060E475F001121BD889
:0FADCA0090005DE0FCA3E0FDE4FB7FA802B1B5C3
:10B1470090001174FFF0E4A3F0A3F0900012E0FC6C
:10B15700A3E0FDC39450EC9403501A900011E0FB58
:10B167007FA812B1B5900013E004F070DE900012D2
:10B17700E004F080D6E4FBFD7C087FA812B1B57827
:10B18700147C007D017BFF7AB679BA121F5F7B01C1
:07B197007A007914028682A0
:1082E60050756C7361646F722041637469766F0DAB
:1082F6000A0053656E736F726573204175746F2043
:10830600792073656E736F72312061637469766F5D
:10831600732E0A0D0053656E736F72206163746964
:10832600766F2073656E736F72312E0A0D00446589
:108336007465637461646F2E2053656E736F72206B
:108346004175746F2E0A0D0053656E736F726573F7
:10835600206E6F2064657465637461646F732E0AA2
:108366000D005665686963756C6F2045737065729C
:10837600616E646F2053616C69722E0A0D0056653A
:10838600686963756C6F2053616C69656E646F2EE6
:1083960020556E206D6F6D656E746F2E0A0D006D23
:1083A600736A5F6C63645F696E666F726D61746930
:1083B600766F2072656C6F6A006D736A5F6C6364BA
:1083C6005F696E666F726D617469766F20494400ED
:0A894A00C10F41021B0041021C0096
:07BFFC00C2B5C2B6C2B722B4
:07C00300C2B5D2B6C2B7229C
:07C00A00D2B5D2B6C2B72285
:07C01100C2B5C2B6D2B7228E
:07C01800D2B5C2B6D2B72277
:07C01F00C2B5D2B6D2B72270
:07C02600D2B5D2B6D2B72259
:10BF450012C00A20910B7BFF7A8279E612B3CBD21D
:02BF55000F22B9
:10BE4400E4FF7DF47C01309115EFFB3395E04B70FA
:0EBE54000DED1D70011CED4C70EC7F0180E8BF
:01BE620022BD
:10BDC1007F017DF47C01209118EFFB3395E0FAEBC4
:10BDD10064014A700CED1D70011CED4C70E8FF8090
:01BDE100E57C
:01BDE200223E
:10B63C009000337401F012C01F309103E004F0123B
:10B64C00C026309107900033E02402F0900033E0E4
:10B65C00640170177D12FC7FA812B93FEF600CF4E7
:10B66C00900033700404F08002EFF0900033E0247B
:02B67C0030FF9D
:01B67E0022A9
:10BECD007D127C007FA812B93FEF6005F470027FF0
:05BEDD0001EF2430FF1D
:01BEE200223D
:10B0EC0012C01820912312C0037BFF20910D7A828D
:10B0FC0079F812B3CBE49001AE80227A83791B12DB
:10B10C00B3CB9001AE7401801412C0037BFF20916D
:10B11C00187A83793412B3CB9001AE7401F090009D
:10B12C001274FFF012BF45800C7A83794E12B3CBA8
:0AB13C00E4900012F0900012E0FF12
:01B1460022E6
:10BADB0012C01130912012BE44EF3395E0FEEF649B
:10BAEB00014E700A12B0EC900011EFF080147BFF46
:10BAFB007A83796880067BFF7A83798412B3CB7F54
:07BB0B000022900011E0FF91
:01BB12002210
:10989400E4900001F090021BE004F0E0C394327401
:1098A4008094805003029942E4F012BFFC3091038B
:1098B400029937900001E0707A12BDC1EF3395E050
:1098C4004F70707BFF7A8379A512B3CB900001E0CF
:1098D400FF12B45190021CE0FF12B45190021CE03C
:1098E400702A900001E0702430B30B04F012B32905
:1098F40090021C7401F012BE44EF3395E0FEEF6455
:10990400014E702F7F0AFE12BA68802790021CE075
:109914006401701F900001E070197BFF7A8379BFA6
:1099240012B3CB30B30DE4900001F0126DA6E490B5
:0E993400021CF012BFFC309105E4900001F01F
:019942002202
:10272800494E4752455345205441524A4554412049
:10273800005441524A4554412053494E20494E477E
:102748005245534F20005441524A455441204E4F60
:10275800205245474953545241205041474F200089
:10276800455843454445205449454D504F2044451C
:102778002047524143494120004D454E5355414C55
:10278800204E4F204553544120454E205041525130
:102798005545414445524F2000444952494A415306
:1027A8004520412043414A41200047524143494185
:1027B800532E2E2E2000475241434941532E2E2E90
:1027C800004D454E5355414C494441442056454ED1
:1027D8004349444120004D454E5355414C494441DD
:1027E800442045584345444520484F524152494F9B
:1027F8002041434552515545534520412043414AC4
:102808004120004E4F204553204D454E5355414CD5
:1028180049444144204E49205052455041474F00B9
:102828004D454E5355414C204E4F205041474F2067
:102838004C4F434143494F4E20484F590053494E4E
:102848002050524553454E43494120564548494337
:10285800554C415220005441524A455441204E4F54
:102868002045532044454C20504152515545414440
:1028780045524F20004249454E56454E49444F2E39
:102888002050554C534520454C20424F544F4E2024
:10289800005441524A4554412053494E20464F5214
:1028A8004D41544F20004655455241204445204C47
:1028B800494E45412000554E204D4F4D454E544FF1
:1028C80020504F52204641564F5220004E4F20452F
:1028D80053205441524A455441204D454E53554189
:1028E8004C20005441524A45544120494E56414CCF
:1028F80049444120005441524A4554412053494ECD
:102908002053414C494441200052454749535452B1
:102918004120494E475245534F20454E2050415281
:10292800515545414445524F20004D454E53554160
:102938004C20465545524120444520484F5241526B
:10294800494F2000484F524152494F204E4F205086
:10295800524F4752414D41444F200053494E205455
:1029680041524A4554415320004249454E56454E2E
:1029780049444F20004E4956454C2042414A4F2079
:102988004445205441524A455441532000613B3844
:10299800353B494E4752455345205441524A4554C8
:1029A800410A0000613B38363B5441524A45544184
:1029B8002053494E20494E475245534F0A00006163
:1029C8003B38373B5441524A455441204E4F2052E0
:1029D80045474953545241205041474F0A0000612E
:1029E8003B38383B455843454445205449454D50AC
:1029F8004F204445204752414349410A0000613B6A
:102A080038393B4D454E5355414C204E4F20455388
:102A1800544120454E20504152515545414445525C
:102A28004F0A0000613B39303B444952494A4153FF
:102A38004520412043414A410A0000613B39313B6E
:102A4800475241434941532E2E2E200A0000613B34
:102A580039333B4D454E5355414C204E4F2045533D
:102A6800544120454E20504152515545414445520C
:102A78004F0A0000613B39333B4D454E5355414C9D
:102A8800204553544120454E20504152515545410F
:102A98004445524F0A0000613B39343B4D454E5383
:102AA80055414C494441442056454E434944410A06
:102AB8000000613B39353B4D454E5355414C494427
:102AC80041442045584345444520484F52415249C6
:102AD8004F204143455251554553452041204341DC
:102AE8004A410A0000613B39363B4E4F204553208E
:102AF8004D454E5355414C49444144204E49205080
:102B080052455041474F0A0000613B39373B4D451C
:102B18004E5355414C204E4F205041474F204C4F6B
:102B2800434143494F4E20484F590A0000613B3901
:102B3800383B53494E2050524553454E4349412056
:102B48005645484943554C41520A0000613B3938C3
:102B58003B5441524A455441204E4F20455320444E
:102B6800454C20504152515545414445524F0A0069
:102B780000613B30303B4249454E56454E49444F33
:102B88002E2050554C534520454C20424F544F4E13
:102B98000A0000613B39383B5441524A45544120B0
:102BA80053494E20464F524D41544F0A0000613B55
:102BB80039383B4655455241204445204C494E45FD
:102BC800410A0000613B39383B554E204D4F4D4579
:102BD8004E544F20504F52204641564F520A000043
:102BE800613B30383B4E4F204553205441524A45B3
:102BF8005441204D454E5355414C0A0000613B3924
:102C0800383B5441524A45544120494E56414C495B
:102C180044410A0000613B39383B5441524A45540B
:102C2800412053494E2053414C4944410A00006118
:102C38003B39383B524547495354524120494E4746
:102C48005245534F20454E2050415251554541441D
:102C580045524F0A0000613B30373BA1204D454E9D
:102C68005355414C494441442056454E43494441FB
:102C780020210A0000613B30363B4D454E535541FB
:102C88004C20465545524120444520484F52415218
:102C9800494F0A0000613B39383B53494E205441A3
:102CA800524A455441530A0000613B39383B4E496A
:102CB80056454C2042414A4F204445205441524AEF
:102CC800455441530A0000613B39383B484F524153
:102CD80052494F204E4F2050524F4752414D414488
:102CE8004F0A0000613B39383B4143455251554535
:102CF800205355205441524A455441204445204EC2
:102D08005545564F0A0000613B30313B5245544906
:102D18005245205355205441524A4554410A000017
:102D2800613B30333B4249454E56454E49444F0A74
:102D38000000613B39393B4C4F54452041534947CA
:102D48004E41444F2045535441204C4C454E4F0A68
:102D5800000057494547414E4420004752414349E6
:102D680041532000613B39323B57494547414E4466
:102D780020000A0000613B39313B47524143494139
:102D8800532000613B30333B4249454E56454E493E
:102D9800444F200020504C414341000A00613B3021
:102DA800373B20A1204D454E5355414C49444144A1
:102DB8002056454E4349444120212056454E43491B
:102DC8004F20323000633B39303B00643B00AA801F
:102DD80018010200AA80180102000000000000008B
:102DE80000000000000000000000000000000000DB
:102DF80000000000000000000000000000000000CB
:0F2E08000000AA8028072000000000001400002E
:051FE100900018EFF074
:101FE60078197C007D017BFF7A2D79D67E007F06ED
:101FF600121B26E4900020F0A3F0C2879001ABE00C
:1020060060030223AD7B017A007919FD12B60090B8
:102016000018E0121CD22388012071552091562009
:10202600B15720D15820F15921115A21315B20F1A5
:102036005D21515E21715F21916021B16121D1AA9B
:1020460021F1AB2211AC2231AD2251AE2271AF2269
:1020560091B022B1B122D1B222F1B32311B523310D
:10206600B6234AFA2369FE000023AA7BFF7A277962
:102076002812000E90001FEFF0E4FDFF12BD5B1268
:10208600BD527BFF7A2779280223A57BFF7A277921
:102096003912000E90001FEFF0E4FDFF12BD5B1237
:1020A600BD527BFF7A2779390223A57BFF7A2779F0
:1020B6004E12000E90001FEFF0E4FDFF12BD5B1202
:1020C600BD527BFF7A27794E0223A57BFF7A2779BB
:1020D6006812000E90001FEFF0E4FDFF12BD5B12C8
:1020E600BD527BFF7A2779680223A57BFF7A277981
:1020F6008112000E90001FEFF0E4FDFF12BD5B128F
:10210600BD527BFF7A2779810223A57BFF7A277947
:10211600A112000E90001FEFF0E4FDFF12BD5B124E
:10212600BD527BFF7A2779A10223A57BFF7A277907
:10213600B212000E90001FEFF0E4FDFF12BD5B121D
:10214600BD527BFF7A2779BE0223A57BFF7A2779CA
:10215600C912000E90001FEFF0E4FDFF12BD5B12E6
:10216600BD527BFF7A2779C90223A57BFF7A27799F
:10217600DE12000E90001FEFF0E4FDFF12BD5B12B1
:10218600BD527BFF7A2779DE0223A57BFF7A287969
:102196000B12000E90001FEFF0E4FDFF12BD5B1264
:1021A600BD527BFF7A28790B0223A57BFF7A28791B
:1021B6002812000E90001FEFF0E4FDFF12BD5B1227
:1021C600BD527BFF7A2879280223A57BFF7A2879DE
:1021D6004512000E90001FEFF0E4FDFF12BD5B12EA
:1021E600BD527BFF7A2879450223A57BFF7A2879A1
:1021F6005E12000E90001FEFF0E4FDFF12BD5B12B1
:10220600BD527BFF7A28795E0223A57BFF7A287967
:102216007D12000E90001FEFF0E4FDFF12BD5B1271
:10222600BD527BFF7A28797D0223A57BFF7A287928
:102236009912000E90001FEFF0E4FDFF12BD5B1235
:10224600BD527BFF7A2879990223A57BFF7A2879EC
:10225600AE12000E90001FEFF0E4FDFF12BD5B1200
:10226600BD527BFF7A2879AE0223A57BFF7A2879B7
:10227600BE12000E90001FEFF0E4FDFF12BD5B12D0
:10228600BD527BFF7A2879BE0223A57BFF7A287987
:10229600D412000E90001FEFF0E4FDFF12BD5B129A
:1022A600BD527BFF7A2879D40223A57BFF7A287951
:1022B600EB12000E90001FEFF0E4FDFF12BD5B1263
:1022C600BD527BFF7A2879EB0223A57BFF7A28791A
:1022D600FD12000E90001FEFF0E4FDFF12BD5B1231
:1022E600BD527BFF7A2879FD0223A57BFF7A2979E7
:1022F6001112000E90001FEFF0E4FDFF12BD5B12FD
:10230600BD527BFF7A2979110223A57BFF7A2979B1
:102316003212000E90001FEFF0E4FDFF12BD5B12BB
:10232600BD527BFF7A2979320223A57BFF7A297970
:102336004C12000E90001FEFF012BD567BFF7A295B
:10234600794C805B7BFF7A29796312000E90001F1F
:10235600EFF0E4FDFF12BD5B12BD527BFF7A2979D7
:1023660063803C7BFF7A29797112000E90001FEF83
:10237600F0E4FDFF12BD5B12BD527BFF7A29797135
:10238600801D7BFF7A29797D12000E90001FEFF0E9
:10239600E4FDFF12BD5B12BD527BFF7A29797D7D7C
:1023A6000112B600D28722C287900018E0121CD212
:1023B600267301241D55243456244B572462582471
:1023C600795924905A24A75B24BE5D24EC5E25032C
:1023D6005F251A6025316124D56326F89A26E29C8A
:1023E60026A09E26B6A12548AA255FAB2576AC2554
:1023F6008DAD25A4AE25BBAF25D2B025E9B126000B
:10240600B22617B3262EB42645B5268AB6265CFA1A
:1024160026CCFE0000271E900020E0FEA3E0AA06C0
:10242600F8AC027D017BFF7A29799502270C900092
:1024360020E0FEA3E0AA06F8AC027D017BFF7A2924
:1024460079AC02270C900020E0FEA3E0AA06F8ACC7
:10245600027D017BFF7A2979C702270C900020E0D4
:10246600FEA3E0AA06F8AC027D017BFF7A2979E794
:1024760002270C900020E0FEA3E0AA06F8AC027D3D
:10248600017BFF7A2A790602270C900020E0FEA342
:10249600E0AA06F8AC027D017BFF7A2A792C022796
:1024A6000C900020E0FEA3E0AA06F8AC027D017BBA
:1024B600FF7A2A794302270C900020E0FEA3E0AAC7
:1024C60006F8AC027D017BFF7A2A795602270C902A
:1024D6000020E0FEA3E0AA06F8AC027D017BFF7AAD
:1024E6002A797C02270C900020E0FEA3E0AA06F8D9
:1024F600AC027D017BFF7A2A799F02270C9000208F
:10250600E0FEA3E0AA06F8AC027D017BFF7A2A79F9
:10251600BA02270C900020E0FEA3E0AA06F8AC025F
:102526007D017BFF7A2A79ED02270C900020E0FEE0
:10253600A3E0AA06F8AC027D017BFF7A2B79110293
:10254600270C900020E0FEA3E0AA06F8AC027D016D
:102556007BFF7A2B793502270C900020E0FEA3E062
:10256600AA06F8AC027D017BFF7A2B795402270C70
:10257600900020E0FEA3E0AA06F8AC027D017BFFF6
:102586007A2B797902270C900020E0FEA3E0AA06B8
:10259600F8AC027D017BFF7A2B799B02270C900019
:1025A60020E0FEA3E0AA06F8AC027D017BFF7A2BB1
:1025B60079B602270C900020E0FEA3E0AA06F8AC4C
:1025C600027D017BFF7A2B79CC02270C900020E05C
:1025D600FEA3E0AA06F8AC027D017BFF7A2B79E820
:1025E60002270C900020E0FEA3E0AA06F8AC027DCC
:1025F600017BFF7A2C790502270C900020E0FEA3D0
:10260600E0AA06F8AC027D017BFF7A2C791D022731
:102616000C900020E0FEA3E0AA06F8AC027D017B48
:10262600FF7A2C793702270C900020E0FEA3E0AA5F
:1026360006F8AC027D017BFF7A2C795E02270C90AE
:102646000020E0FEA3E0AA06F8AC027D017BFF7A3B
:102656002C797D02270C900020E0FEA3E0AA06F864
:10266600AC027D017BFF7A2C799D02270C9000201D
:10267600E0FEA3E0AA06F8AC027D017BFF7A2C7986
:10268600B102270C900020E0FEA3E0AA06F8AC02F7
:102696007D017BFF7A2C79CF806C900020E0FEA331
:1026A600E0AA06F8AC027D017BFF7A2C79EC805615
:1026B600900020E0FEA3E0AA06F8AC027D017BFFB5
:1026C6007A2D790F8040900020E0FEA3E0AA06F85C
:1026D600AC027D017BFF7A2D7928802A900020E0CC
:1026E600FEA3E0AA06F8AC027D017BFF7A2D793ABB
:1026F6008014900020E0FEA3E0AA06F8AC027D015B
:102706007BFF7A2C797D121F5F900020E0FEA3E00C
:10271600AA06F97B0112A883E4900020F0A3F0D268
:01272600872B
:01272700228F
:0E4C9900900011EFF0A3EBF0A3EAF0A3E9F016
:104CA70078157C007D017BFF7A2D79DC7E007F06FD
:104CB700121B26781C7C007D017BFF7A2D79E27E12
:104CC700007F28121B26C2879001ABE06003024DCC
:104CD70070900011E024A56040146003024D6D122E
:104CE700B5F87BFF7A2D795A12000E90001BEFF072
:104CF700900012E0FBA3E0FAA3E0F912000E900087
:104D07001BE02F04F0E4FDFF12BD5B90001B12BDFA
:104D1700557BFF7A2D795A803812B5F87BFF7A2DAB
:104D2700796312000E90001BEFF0900012E0FBA3D6
:104D3700E0FAA3E0F912000E90001BE02F04F0E464
:104D4700FDFF12BD5B90001B12BD557BFF7A2D79CD
:104D5700637D0112B600900012E0FBA3E0FAA3E026
:104D6700F97D0112B600D28722C287900011E02494
:104D7700A5602F24C07003024E3524FE7003024E37
:104D8700EF24E97003024E7C24B6602524A2600359
:104D9700024F36781C7C007D017BFF7A2D796C02EF
:104DA7004E41781C7C007D017BFF7A2D797D024E78
:104DB70088781C7C007D017BFF7A2D798B12A87A7D
:104DC70020100B12B2DD781C7C007D018011781C4D
:104DD7007C007D01900012E0FBA3E0FAA3E0F9124A
:104DE700A87A781C7C007D017BFF300B377A2D7900
:104DF7009C121F5F900049E4F0A37400F0A37411A4
:104E0700F07B017A00791C12AE4590004974FFF0DF
:104E1700A3742DF0A3747AF07B017A00791C12AE8B
:104E270045024F337A2D79A3121F5F024F33781C47
:104E37007C007D017BFF7A2D798B121F5F9000121A
:104E4700E0F9A3E0FAA3E0900049C9F0A3EAF0A3D0
:104E5700E9F07B017A00791C12AE4590004974FF96
:104E6700F0A3742DF0A3747AF07B017A00791C12F9
:104E7700AE45024F33781C7C007D017BFF7A2D798C
:104E8700A5121F5F900012E0FBA3E0FAA3E0F9125E
:104E9700000E90001BEFF024FFFFE434FFFE9000AC
:104EA70012E0FBA3E0FAA3E0F98F828E83E4121BE2
:104EB700A4900012E0F9A3E0FAA3E0900049C9F03A
:104EC700A3EAF0A3E9F07B017A00791C12AE4590C2
:104ED700004974FFF0A3742DF0A3747AF07B017A74
:104EE70000791C12AE458044781C7C007D017BFF55
:104EF7007A2D79CD121F5F900012E0F9A3E0FAA393
:104F0700E0900049C9F0A3EAF0A3E9F07B017A0039
:104F1700791C12AE4590004974FFF0A3742DF0A3DD
:104F2700747AF07B017A00791C12AE4512A87DE4F1
:064F370090001CF0D2877F
:014F3D002251
:09BD520090001FE025E0FFE4FD74
:05BD5B00900049EDF02D
:10BD600012B84490004AEFF0900049E0600AE4FF06
:08BD700012B84490004AEFF004
:01BD780022A8
:08B5F8007B017A007915E4FDE6
:0EB60000900044EBF0A3EAF0A3E9F0A3EDF014
:10B60E00E4A3F0900044E0FBA3E0FAA3E0F990007D
:10B61E0048E0F582758300121B65FF6010900047AD
:0DB62E00E0FD12BD5B900048E004F080D606
:01B63B0022EC
:0EB56C0090001EEBF0A3EAF0A3E9F0A3EDF0CF
:10B57A00E4900023F0900021E0FF900023E0FEC356
:10B58A009F502490001EE0FBA3E0FAA3E0F98E820C
:10B59A00758300121B65FF900022E0FD12BD5B90CF
:07B5AA000023E004F080CE55
:01B5B1002277
:09A87A00121F5F7B017A00791CBA
:0BA88300900044EBF0A3EAF0A3E9F022
:10A88E0012000E900048EFF0E4900047F090004860
:10A89E00E0FF900047E0C39F503DE4900049F090E8
:10A8AE000049E0C39464748094805005E004F08005
:10A8BE00EE900044E0FBA3E0FAA3E0F9A3E0F582FA
:10A8CE00758300121B65FF12B844900049EFF0909B
:10A8DE000047E004F080B6E4900049F0900049E0B3
:0EA8EE00C39464748094805005E004F080EE02
:01A8FC002239
:10AC010078117C007D017BFF7A2E790A7E007F0D11
:10AC1100121B269001ABE07022C2877B017A00797A
:10AC21001612907DC29C7B017A007911E49000227A
:10AC3100F07D0D12B56CD29CD28722C287E49000C0
:10AC410011F078117C007D017BFF7A2D79D3121FE1
:10AC51005F7B017A00791312623F90004974FFF023
:10AC6100A3742DF0A3747AF07B017A00791112AEEE
:0CAC7100457B017A00791112A883D2877C
:01AC7D0022B4
:10002600402321246046625E262A003A5B3C253F37
:1000360058545D3D29000D0A0A25733E20002563AC
:10004600002564000D0A0A2041435455414C2049BD
:10005600445F434C49454E54453D25730D0A0A00FD
:100066000D0A0A20444947495445205355204E5508
:1000760045564F2049445F434C49454E54453D0043
:100086000D0A0A204441544F204D4F4449464943E6
:1000960041444F2049445F434C49454E54453D2514
:1000A600730D0A0A000D0A0A2041435455414C209B
:1000B600434F445F5041524B3D25730D0A0A000DD4
:1000C6000A0A20444947495445205355204E554570
:1000D600564F20434F445F5041524B3D000D0A0A94
:1000E600204441544F204D4F444946494341444FD3
:1000F60020434F445F5041524B3D25730D0A0A0081
:100106000D0A0A2041435455414C205449454D504F
:100116004F5F4752414349413D25730D0A0A000D81
:100126000A0A20444947495445205355204E55450F
:10013600564F205449454D504F5F47524143494120
:100146003D000D0A0A204441544F204D4F44494674
:10015600494341444F205449454D504F5F47524112
:100166004349413D25730D0A0A000D0A0A20414301
:100176005455414C2053494E5F434F42524F2049FC
:100186004E484142494C495441444F3D25730D0A5E
:100196000A000D0A0A2041435455414C2053494E4A
:1001A6005F434F42524F204752415449533D2573B6
:1001B6000D0A0A000D0A0A2041435455414C2053AA
:1001C600494E5F434F42524F2047524154495320B4
:1001D600592053414C49444120454C204D49534DEB
:1001E6004F204449413D25730D0A0A000D0A0A2095
:1001F600444947495445205355204E5545564F20AE
:1002060053494E5F434F42524F3D000D0A0A20416B
:10021600435455414C20444542554720494E484198
:1002260042494C495441444F3D25730D0A0A000D7D
:100236000A0A2041435455414C2044454255472023
:10024600484142494C495441444F3D25730D0A0AE1
:10025600000D0A0A2044494749544520454C204E82
:100266005545564F2045535441444F20444520445C
:10027600454255473D000D0A0A2041435455414C1D
:10028600205553455F4C505220494E484142494CF7
:10029600495441444F3D25730D0A0A000D0A0A20B0
:1002A60041435455414C205553455F4C50522048CC
:1002B6004142494C495441444F3D25730D0A0A00B9
:1002C6000D0A0A2044494749544520454C204E55BD
:1002D60045564F2045535441444F204445205553DD
:1002E600455F4C50523D000D0A0A2050414E544184
:1002F6004C4C41204C434420484142494C495441CE
:1003060044413D25730D0A0A000D0A0A2050414E4C
:1003160054414C4C4120524153504245525259206F
:1003260020484142494C49544144413D25730D0AF8
:100336000A000D0A0A2044494749544520454C20E5
:100346004E5545564F2045535441444F2044452071
:100356004C412050414E54414C4C41203D000D0A29
:100366000A2041435455414C20434F4D5041524180
:1003760043494F4E2041435449564120204841426B
:10038600494C49544144413D25730D0A0A000D0A62
:100396000A20455850494445205441524A45544143
:1003A6002050554C53414E444F20424F544F4E0D12
:1003B6000A0A000D0A0A204558504944452054416E
:1003C600524A455441204155544F4D4154494341A9
:1003D6000D0A0A000D0A0A2044494749544520459A
:1003E6004C204E5545564F2045535441444F2044CA
:1003F600454C20455850454449444F523D000D0A4E
:100406000A2041435455414C20414E5449504153D2
:10041600534241434B20494E484142494C4954417D
:10042600444F3D25730D0A0A000D0A0A2041435424
:1004360055414C20414E5449504153534241434B40
:1004460020484142494C495441444F3D25730D0AC9
:100456000A000D0A0A2044494749544520454C20C4
:100466004E5545564F2045535441444F2044452050
:10047600414E5449504153534241434B3D000D0AAE
:100486000A2041435455414C20504C414341204998
:100496004E484142494C495441444F3D25730D0A4B
:1004A6000A000D0A0A2041435455414C20504C4144
:1004B600434120484142494C495441444F3D2573EC
:1004C6000D0A0A000D0A0A204449474954452045A9
:1004D6004C204E5545564F2045535441444F2044D9
:1004E6004520504C4143413D000D0A0A20414354EA
:1004F60055414C20414444524553535F484947486F
:100506005F424F4152443D25730D0A0A000D0A0A07
:1005160020444947495445204C41204E55455641B3
:1005260020414444524553535F484947485F424F30
:100536004152443D000D0A0A2041435455414C2086
:10054600484F524152494F20494E484142494C4931
:100556005441444F3D25730D0A0A000D0A0A2041F5
:10056600435455414C20484F524152494F2048412F
:1005760042494C495441444F3D25730D0A0A000D2A
:100586000A0A2044494749544520454C204E5545C2
:10059600564F2045535441444F20444520484F521E
:1005A6004152494F3D000D0A0A2044696769746546
:1005B60020486F72612030383A3030204D696E75B0
:1005C600746F732044657364653A20000D0A0A202F
:1005D600486F72612050726F6772616D616461204D
:1005E60044657364653A200025633A000D0A0A20C3
:1005F60044696769746520486F72613A4D696E7522
:10060600746F732048617374613A20000D0A0A20E2
:10061600486F72612050726F6772616D616461200C
:1006260048617374613A20000D0A2044657364655D
:10063600202048617374610D0A002025630025633C
:10064600202020000D0A0A20446967697465206C21
:100656006F73206469617320612070726F677261C5
:100666006D6172204C756E6573203D20322C200022
:100676004D6172746573203D20332C204D6965727F
:10068600636F6C6573203D20342C204A7565766552
:1006960073203D20352C2000566965726E657320E7
:1006A6003D20362C2053616261646F203D20372C3B
:1006B60020446F6D696E676F203D2031203A20001F
:1006C6000D0A0A20446961732050726F6772616D6A
:1006D60061646F73203A2000204C756E6573003D8F
:1006E6002025632C00204D617274657300204D69CE
:1006F6006572636F6C657300204A75657665730075
:1007060020566965726E6573002053616261646F7D
:100716000020446F6D696E676F003D2025630020E1
:100726004C756E6573203D2050726F6772616D6106
:10073600646F0D0A00204C756E6573203D204E6F68
:100746002070726F6772616D61646F0D0A00204DD3
:100756006172746573203D2050726F6772616D61BE
:10076600646F0D0A00204D6172746573203D204E42
:100776006F2070726F6772616D61646F0D0A002081
:100786004D696572636F6C6573203D2050726F67AB
:1007960072616D61646F0D0A00204D696572636F49
:1007A6006C6573203D204E6F2070726F6772616DAD
:1007B60061646F0D0A00204A7565766573203D20D9
:1007C60050726F6772616D61646F0D0A00204A7521
:1007D60065766573203D204E6F2070726F6772617B
:1007E6006D61646F0D0A0020566965726E6573202F
:1007F6003D2050726F6772616D61646F0D0A002053
:10080600566965726E6573203D204E6F2070726F5B
:100816006772616D61646F0D0A00205361626164E5
:100826006F203D2050726F6772616D61646F0D0AB3
:10083600002053616261646F203D204E6F2070720C
:100846006F6772616D61646F0D0A0020446F6D6998
:100856006E676F203D2050726F6772616D61646FC5
:100866000D0A0020446F6D696E676F203D204E6F44
:100876002070726F6772616D61646F0D0A000D0AF8
:100886000A2044696769746520656C206E756D651C
:10089600726F2064656C20486F726172696F2061A7
:1008A6002070726F6772616D6172203D20000D0AC3
:1008B6000A2050726F6772616D6172207365677589
:1008C6006E646F20486F726172696F2073693D288C
:1008D6003129206E6F3D2830293D20000D0A0A205F
:1008E60041435455414C205449504F5F5645484961
:1008F60043554C4F204D454E5355414C20494E488B
:100906004142494C495441444F3D25730D0A0A0062
:100916000D0A0A2041435455414C205449504F5F1B
:100926005645484943554C4F204D454E5355414C2D
:1009360020484142494C495441444F3D25730D0AD4
:100946000A000D0A0A2044494749544520454C20CF
:100956004E5545564F2045535441444F204445205B
:100966005449504F5F5645484943554C4F204D45D5
:100976004E5355414C3D000D0A0A20414354554102
:100986004C205449504F5F5645484943554C4F20DB
:10099600204D454E5355414C20484142494C4954FF
:1009A60041444F3D25730D0A0A000D0A0A204143B2
:1009B6005455414C20414E544950415353424143B2
:1009C6004B204D454E5355414C20494E48414249D6
:1009D6004C495441444F3D25730D0A0A000D0A0A3D
:1009E6002041435455414C20414E544950415353A4
:1009F6004241434B204D454E5355414C20484142C0
:100A0600494C495441444F3D25730D0A0A000D0ACD
:100A16000A2044494749544520454C204E554556E1
:100A26004F2045535441444F20444520414E54499C
:100A3600504153534241434B204D454E5355414C33
:100A46003D000D0A0A2041435455414C20414E5465
:100A560049504153534241434B20204D454E535537
:100A6600414C20484142494C495441444F3D25732D
:100A76000D0A0A000D0A0A2041435455414C2046EE
:100A8600454348412056454E43494D49454E544FEE
:100A96002050415353574F52443A25730D0A0A00CA
:100AA6000D0A0A2F3E496420526567697374726F96
:100AB6003A002573000D0A0A2F3E50617373776F53
:100AC60072643A000D0A0A20444947495445204CAD
:100AD60041204E5545564120464543484120444510
:100AE6002056454E43494D49454E544F3D000D0A4B
:100AF6000A2025730D0A0A000D0A0A202558000D42
:100B06000A0A2041435455414C204645434841205A
:100B160044452056454E43494D49454E544F205075
:100B2600524F4752414D414441203D25730D0A0A1B
:100B3600000D0A206E756D65726F2064656C204825
:100B46006F726172696F202070726F6772616D617A
:100B5600646F203D2025630D0A000D0A2020484FB2
:100B6600524152494F20484142494C495441444F11
:100B760020203D204F4E0D0A000D0A204469617366
:100B86002050726F6772616D61646F730D0A000D9C
:100B96000A2020534547554E444F20484F52415254
:100BA600494F20484142494C495441444F20203D39
:100BB600204F4E0D0A000D0A20534547554E444F0F
:100BC60020484F524152494F20484142494C4954CE
:100BD60041444F20203D204F46460D0A000D0A2075
:100BE60020484F524152494F20484142494C4954AE
:100BF60041444F20203D204F46460D0A000D0A0A6B
:100C06002041435455414C204D454E5355414C20AF
:100C1600504F5220424F434120494E484142494C91
:100C2600495441444F3D25730D0A0A000D0A0A2016
:100C360041435455414C204D454E5355414C20504F
:100C46004F5220424F434120484142494C4954416A
:100C5600444F3D25730D0A0A000D0A0A20444947F0
:100C660049544520454C204E5545564F2045535432
:100C760041444F2044454C204D454E5355414C3D33
:100C8600000D0A2049445F434C49454E54455F5088
:100C9600524F4752414D41444F203D2025730D0A86
:100CA600000D0A20434F445F5041524B5F50524F54
:100CB6004752414D41444F203D2025730D0A000DFA
:100CC6000A2050524F4752414D41444F204445421D
:100CD6005547203D204F4E0D0A000D0A2050524F19
:100CE6004752414D41444F204445425547203D20FF
:100CF6004F46460D0A000D0A205553455F4C50528B
:100D0600203D204F46460D0A000D0A205553455FEB
:100D16004C5052203D204F4E0D0A000D0A205041E6
:100D26004E54414C4C41204C43442050524F475264
:100D3600414D4144410D0A000D0A2050414E544197
:100D46004C4C41205241535042455252592020505A
:100D5600524F4752414D4144410D0A000D0A20456C
:100D66005850494445205441524A45544120505513
:100D76004C53414E444F20424F544F4E0D0A000DE6
:100D86000A20455850494445205441524A45544149
:100D9600204155544F4D41544943410D0A000D0A17
:100DA6002020414E5449504153534241434B203D2C
:100DB600204F46460D0A000D0A20414E5449504127
:100DC60053534241434B203D204F4E0D0A000D0A1E
:100DD60020504C414341203D204F46460D0A000D10
:100DE6000A20504C414341203D204F4E0D0A000D34
:100DF6000A2041435455414C2041444452455353E3
:100E06005F484947485F424F415244203D20257381
:100E16000D0A000D0A205449504F5F564548494374
:100E2600554C4F204D454E5355414C203D204F4685
:100E3600460D0A000D0A205449504F5F5645484951
:100E460043554C4F204D454E5355414C203D204F68
:100E56004E0D0A000D0A20414E544950415353424B
:100E660041434B204D454E5355414C203D204F4666
:100E7600460D0A000D0A2020414E54495041535355
:100E86004241434B204D454E5355414C203D204F4A
:100E96004E0D0A000D0A4D454E5355414C20504FFC
:100EA6005220424F4341203D204F46460D0A000D39
:100EB6000A20204D454E5355414C20504F5220425A
:100EC6004F4341203D204F4E0D0A000D0A2041435D
:100ED6005455414C204645434841204445205645FB
:100EE6004E43494D49454E544F2050524F4752416B
:100EF6004D414441203D25730D0A000D0A204E75D3
:100F06006D65726F206465207469636B6574203D3E
:100F160025730D0A000D0A2049445F434C49454E8E
:100F260054452020202020202020202D2D2D204318
:100F36004D442030204964656E7469666963616456
:100F46006F722064656C20636C69656E7465206DD4
:100F56006178696D6F20323535000D0A20434F44A4
:100F66005F5041524B20202020202020202020208E
:100F76002D2D2D20434D44203120456C206E756D5E
:100F860065726F2064656C2070617271756561644D
:100F960065726F206D6178696D6F20323535000D91
:100FA6000A20545F475241434941202020202020F7
:100FB60020202020202D2D2D20434D44203220544A
:100FC60069656D706F2073696E20636F62726F2042
:100FD60030302C20206D6178696D6F2032353500F8
:100FE6000D0A2053494E5F434F42524F2020202086
:100FF6002020202020202D2D2D20434D442033203D
:10100600496E686162696C697461646F3D20302C59
:10101600204772617469733D2031202C204772612C
:1010260074697320792073616C69646120656C2032
:101036006D69736D6F206469613D2032000D0A2071
:1010460044454255472020202020202020202020D3
:101056002020202D2D2D20434D4420342048616230
:10106600696C69746172203D20312C20496E68617B
:1010760062696C69746172203D2030000D0A20554A
:1010860053455F4C50522020202020202020202035
:1010960020202D2D2D20434D4420352048616269A6
:1010A6006C69746172203D20312C20496E68616242
:1010B600696C69746172203D2030000D0A20544924
:1010C600504F5F50414E54414C4C4120202020202F
:1010D600202D2D2D20434D4420362050414E544185
:1010E6004C4C41204C4344203D302050414E54410D
:1010F6004C4C41205241535042455252493D3100D9
:101106000D0A20434152445F4155544F4D415449C5
:101116004341202020202D2D2D20434D44203720D3
:10112600424F54544F4E3D30204155544F4D41543B
:101136004943413D31000D0A20414E544950415327
:10114600534241434B202020202020202D2D2D20AE
:10115600434D44203820486162696C69746172208D
:101166003D20312C20496E686162696C6974617238
:10117600203D2030000D0A20504C414341202020C4
:1011860020202020202020202020202D2D2D20430F
:101196004D44203920486162696C69746172203D52
:1011A60020312C20496E686162696C697461722015
:1011B6003D2030000D0A20414444524553535F48B8
:1011C6004947485F424F415244202D2D2D20434D23
:1011D60044203130204C6120646972656363696F15
:1011E6006E20616C74612064656C20626F6172644C
:1011F6002064656C206E756D65726F203520616C9C
:1012060020392073696E6F207365207573612064C1
:1012160065626520697220656E2030000D0A2048DF
:101226004F524152494F20202020202020202020AC
:1012360020202D2D2D20434D442031312050726F1A
:1012460067616D6120313020686F726172696F73FA
:101256002064656C203120616C203130000D0A203D
:1012660056414C4944415F564548495F4D454E53AA
:1012760055414C2D2D2D20434D44203132204861BF
:1012860062696C69746172203D20312C20496E6858
:101296006162696C69746172203D2030000D0A201C
:1012A6005553455F4150425F4D454E5355414C2085
:1012B6002020202D2D2D20434D4420313320486100
:1012C60062696C69746172203D20312C20496E6818
:1012D6006162696C69746172203D2030000D0A20DC
:1012E6004D454E5355414C455309090920202020B0
:1012F600202D2D2D20434D44203134204861626934
:101306006C69746172203D20312C20496E686162DF
:10131600696C69746172203D2030000D0A205645C3
:10132600525F50524F4752414D4143494F4E202044
:10133600202D2D2D20434D44203135204D756573CC
:10134600747261206C612070726F6772616D616387
:10135600696F6E000D0A2041595544412020202016
:10136600202020202020202020202D2D2D20434D00
:1013760044203136204D756573747261206C6F732D
:1013860020636F6D616E646F73000D0A2053414CCC
:1013960049522020202020202020202020202020EC
:1013A6002D2D2D20434D442031372053616C697219
:1013B6002064652070726F6772616D6163696F6E1C
:1013C600000D0A0A53697374656D612064652050C7
:1013D600726F6772616D6163696F6E2045787065C3
:1013E6006469646F72200D0A0D0A000D0A56616C5D
:1013F6006964616E646F20436F6D616E646F730024
:101406000D0A436F6D616E646F206E6F206578699B
:101416007374652027257327003A5B3C253F585493
:101426005D3D2900232A594A41494D4563616D694D
:101436006C744B0077727A32357136382D393166D5
:10144600532E4000200D0A00200D0A00220D0A002E
:108954005401C52F000000000000000000000000CA
:10896400000000000000004B01BA61646D696E00F4
:108974000000000000603901D930000031000032ED
:1089840000003300003400003500003600003700DA
:10899400003800003900003130003131003132003C
:1089A4003133003134003135003136003137003194
:0289B400380089
:0B568B0090005DEBF0A3EAF0A3E9F053
:1056960078627C007D017BFF7A14791F7E007F0B88
:1056A600121B26786D7C007D017BFF7A14792A7E99
:1056B600007F10121B26787D7C007D017BFF7A140B
:1056C600793A7E007F10121B267B017A0079987F3B
:1056D600507E0312AEB07B017A007998128FB4EF38
:1056E6003395E0FEEF64014E78627C007D017BFF1E
:1056F60060067A00792680047A007931121F5F905D
:10570600005DE0FBA3E0FAA3E0F912000E90006052
:10571600EFF0E4A3F0900061E0FFC3940A74809474
:1057260080400302587D90005DE0FBA3E0FAA3E011
:10573600F98F82758300121B65FD7C0074622FF55C
:1057460082E43400F583E02DFFEC339001B6F0A33C
:10575600EFF07E00540FFFA3EEF0A3EFF0700BE026
:1057660004F070069001B8E004F09001B8E0FEA3E2
:10577600E0246CF58274003EF583E07E002DFFEE9A
:105786003C9001B6F0A3EFF07E00540FFFA3EEF0BD
:10579600A3EFF0700BE004F070069001B8E004F09F
:1057A6009001B8E0FEA3E0247CF58274003EF58308
:1057B600E0FF9001B6E0FEA3E06FFF9001B6EEF0C9
:1057C600FEA3EFF0D394FFEE940040059001B6E4FB
:1057D600F09001B6E0FEA3E0FFC3947AEE94004099
:1057E60015D3EF94FFEE9400500CEF547AFF90011E
:1057F600B6E4F0A3EFF0C39001B7E094309001B6A1
:10580600E09400500CA3E02440F09001B6E0340090
:10581600F09001B6E0FEA3E0FFC3945BEE94004077
:1058260014D3EF9460EE9400500BE02407F090013F
:10583600B6E03400F09001B6E0FEA3E0FFC3943A70
:10584600EE94004014D3EF9440EE9400500BE02405
:10585600F9F09001B6E034FFF09001B6A3E0FF90B6
:105866000061E0248DF582E43400F583EFF09000CA
:1058760061E004F002571B900061E0248DF582E49C
:0C5886003400F583E4F07B017A00798D9A
:0158920022F3
:0BAF1600900046EBF0A3EAF0A3E9F086
:10AF2100E490004CF090004CE0FFC39413748094C3
:10AF3100805041EF75F003A424D9F9740135F0FA7A
:10AF41007B0178497C007D01121F5F78497C007D7F
:10AF510001900046E0FBA3E0FAA3E0F9121E76EFB0
:10AF61003395E04F700690004CE0FF2290004CE0DA
:06AF710004F080B17FFF37
:01AF770022B7
:08B6C100E0FBA3E0FAA3E0F9AD
:0BB6C90090005DEBF0A3EAF0A3E9F0B5
:10B6D40078607C007D017B017A0179BA121F5F7862
:10B6E400607C007D0190005DE0FBA3E0FAA3E0F93B
:0EB6F400121E76EF3395E04F7002FF227FFFAB
:01B702002224
:06B785007B017A0079321D
:0BB78B0090005DEBF0A3EAF0A3E9F0F2
:10B7960078607C007D017BFF7A14794A7E007F0405
:10B7A600121B269000677401F0A37400F0A3746066
:0FB7B600F090005DE0FBA3E0FAA3E0F90284C08D
:10A31B00E0FBA3E0FAA3E02FF9EA3EFAE92401F906
:03A32B00E43AFA17
:0BA32E00900046EBF0A3EAF0A3E9F07A
:10A3390078497C007D017BFF7A14794E7E007F0489
:10A34900121B26784D7C007D017BFF7A1479527EA1
:10A35900007F04121B26900046E0FBA3E0FAA3E06D
:10A36900F9121B4CFFB4200C900047E475F0011260
:10A379001BD880E2EF900067B4220D7401F0A3743A
:10A3890000F0A3744DF080167401F0A37400F0A3DB
:10A399007449F0900046E0FBA3E0FAA3E0F91284C7
:01A3A900C0F3
:01A3AA002290
:10BEB60090007A7401F0A37401F0A374C5F07BFFBF
:07BEC6007A00793C023F32D3
:08AA81007A0079637B01E4FD1A
:0EAA8900900071EBF0A3EAF0A3E9F0A3EDF06A
:10AA970012BFCC900071E0FBA3E0FAA3E0F9EF123C
:10AAA7001B92900074E0701D900071E0FBA3E0FA28
:10AAB700A3E0F9121B4C90007AF07BFF7A007944EF
:10AAC700123F3280057F2A12B844900071E0FBA341
:10AAD700E0FAA3E0F9121B4CFF7E00900072E475C8
:10AAE700F001121BD8900071E0FBA3E0FAA3E0F994
:09AAF700E4121B92EF640D70974C
:01AB00002232
:10972C00E4FDFC7FA812B93F7E00900050EEF0A340
:10973C00EFF090007A74FFF0A37400F0A37447F07C
:10974C00A3EEF0A3EFF07B017A007946123F2C9048
:10975C00007A7401F0A37400F0A37446F07BFF7AD6
:10976C0000794A123F327BFF7A007966123F327AD7
:10977C0000794612AA857B017A00794612883C90C2
:10978C000050EEF0A3EFF0FBE4FDFC7FA812B1B5A6
:10979C00E4FDFC7FA812B93F7E00900050EEF0A3D0
:1097AC00EFF090007A74FFF0A37400F0A37447F00C
:1097BC00A3EEF0A3EFF07B017A007946123F2C90D8
:1097CC00007A7401F0A37400F0A37446F07BFF7A66
:0697DC00007986023F3215
:109384007D027C007FA812B93F7E00900050EEF071
:10939400A3EFF090007A74FFF0A37400F0A3744775
:1093A400F0A3EEF0A3EFF07B017A007946123F2C94
:1093B40090007A7401F0A37400F0A37446F07BFF6C
:1093C4007A0079AB123F327BFF7A0079C5123F32C3
:1093D4007B017A007946E4FD12AA897B017A00793F
:1093E4004612883C900050EEF0A3EFF0FB7D027C27
:1093F400007FA812B1B57D027C007FA812B93F7E20
:1094040000900050EEF0A3EFF090007A74FFF0A308
:109414007400F0A37447F0A3EEF0A3EFF07B017A9D
:10942400007946123F2C90007A7401F0A37400F086
:0D943400A37446F07BFF7A0079E3023F321B
:109441007D047C007FA812B93F7E00900050EEF0B1
:10945100A3EFF090007A74FFF0A37400F0A37447B7
:10946100F0A3EEF0A3EFF07B017A007946123F2CD6
:1094710090007A7401F0A37400F0A37446F07BFFAE
:109481007A017906123F327BFF7A017925123F3248
:109491007B017A007946E4FD12AA897B017A007981
:1094A1004612883C900050EEF0A3EFF0FB7D047C67
:1094B100007FA812B1B57D047C007FA812B93F7E60
:1094C10000900050EEF0A3EFF090007A74FFF0A34B
:1094D1007400F0A37447F0A3EEF0A3EFF07B017AE0
:1094E100007946123F2C90007A7401F0A37400F0C9
:0D94F100A37446F07BFF7A017948023F32F8
:106B2A007D067C007FA812B93F7E00900050EEF0EF
:106B3A00A3EFF090007A74FFF0A37400F0A37447F7
:106B4A00F0A3EEF0A3EFF07B017A007946123F2C16
:106B5A00900050E07002A3E0701590007A04F0A350
:106B6A007400F0A37446F07BFF7A01797080359047
:106B7A000050E07004A3E06401701590007A04F0FC
:106B8A00A37400F0A37446F07BFF7A01799880140D
:106B9A0090007A7401F0A37400F0A37446F07BFFAE
:106BAA007A0179BA123F327BFF7A0179F2123F32C7
:106BBA007B017A007946E4FD12AA897B017A007981
:106BCA004612883C900050EEF0A3EFF0FB7D067C65
:106BDA00007FA812B1B57D067C007FA812B93F7E5E
:106BEA0000900050EEF0A3EFF090007A74FFF0A34B
:106BFA007400F0A37447F0A3EEF0A3EFF07B017AE0
:106C0A00007946123F2C900050E07002A3E0701504
:106C1A0090007A04F0A37400F0A37446F07BFF7A24
:106C2A000179708035900050E07004A3E06401702F
:106C3A001590007A04F0A37400F0A37446F07BFF69
:106C4A007A017998801490007A7401F0A37400F0A4
:0D6C5A00A37446F07BFF7A0179BA123F3235
:016C6700220A
:107A15007D087C007FA812B93F7E00900050EEF0F3
:107A2500A3EFF090007A74FFF0A37400F0A37447FD
:107A3500F0A3EEF0A3EFF07B017A007946123F2C1C
:107A4500900050E07002A3E0701590007A04F0A356
:107A55007400F0A37446F07BFF7A027911801490CC
:107A6500007A7401F0A37400F0A37446F07BFF7AEA
:107A7500027935123F327BFF7A027957123F327B0A
:107A8500017A007946E4FD12AA897B017A007946DC
:107A950012883C900050EEF0A3EFF0FB7D087C00CF
:107AA5007FA812B1B57D087C007FA812B93F7E0082
:107AB500900050EEF0A3EFF090007A74FFF0A374FD
:107AC50000F0A37447F0A3EEF0A3EFF07B017A007A
:107AD5007946123F2C900050E07002A3E07015909B
:107AE500007A04F0A37400F0A37446F07BFF7A02D9
:107AF5007911801490007A7401F0A37400F0A374D6
:0B7B050046F07BFF7A027935123F3218
:017B10002252
:107B11007D0A7C007FA812B93F7E00900050EEF0F4
:107B2100A3EFF090007A74FFF0A37400F0A3744700
:107B3100F0A3EEF0A3EFF07B017A007946123F2C1F
:107B4100900050E07002A3E0701590007A04F0A359
:107B51007400F0A37446F07BFF7A02797C80149064
:107B6100007A7401F0A37400F0A37446F07BFF7AED
:107B71000279A2123F327BFF7A0279C6123F327B31
:107B8100017A007946E4FD12AA897B017A007946DF
:107B910012883C900050EEF0A3EFF0FB7D0A7C00D0
:107BA1007FA812B1B57D0A7C007FA812B93F7E0083
:107BB100900050EEF0A3EFF090007A74FFF0A37400
:107BC10000F0A37447F0A3EEF0A3EFF07B017A007D
:107BD1007946123F2C900050E07002A3E07015909E
:107BE100007A04F0A37400F0A37446F07BFF7A02DC
:107BF100797C801490007A7401F0A37400F0A3746E
:0B7C010046F07BFF7A0279A2123F32AE
:017C0C002255
:107C0D007D0E7C007FA812B93F7E00900050EEF0F3
:107C1D00A3EFF090007A74FFF0A37400F0A3744703
:107C2D00F0A3EEF0A3EFF07B017A007946123F2C22
:107C3D00900050E07002A3E0701590007A04F0A35C
:107C4D007400F0A37446F07BFF7A0279ED801490F6
:107C5D00007A7401F0A37400F0A37446F07BFF7AF0
:107C6D0003790F123F327BFF7A037938123F327B53
:107C7D00017A007946E4FD12AA897B017A007946E2
:107C8D0012883C900050EEF0A3EFF0FB7D0E7C00CF
:107C9D007FA812B1B57D0E7C007FA812B93F7E0082
:107CAD00900050EEF0A3EFF090007A74FFF0A37403
:107CBD0000F0A37447F0A3EEF0A3EFF07B017A0080
:107CCD007946123F2C900050E07002A3E0701590A1
:107CDD00007A04F0A37400F0A37446F07BFF7A02DF
:107CED0079ED801490007A7401F0A37400F0A37400
:0B7CFD0046F07BFF7A037964123F32EF
:017D08002258
:109204007D0F7C007FA812B93F7E00900050EEF0E5
:10921400A3EFF090007A74FFF0A37400F0A37447F6
:10922400F0A3EEF0A3EFF07B017A007946123F2C15
:10923400900050E07002A3E07BFF70067A037994FB
:1092440080047A0379B9123F327BFF7A0379DA1208
:109254003F327B017A007946E4FD12AA897B017AC8
:1092640000794612883C900050EEF0A3EFF0FB7DAD
:109274000F7C007FA812B1B57D0F7C007FA812B9C6
:109284003F7E00900050EEF0A3EFF090007A74FF60
:10929400F0A37400F0A37447F0A3EEF0A3EFF07B07
:1092A400017A007946123F2C900050E07002A3E04E
:1092B4007BFF70067A03799480047A0379B9123FAC
:0192C4003277
:0192C5002286
:107D09007D107C007FA812B93F7E00900050EEF0F4
:107D1900A3EFF090007A74FFF0A37400F0A3744706
:107D2900F0A3EEF0A3EFF07B017A007946123F2C25
:107D3900900050E07002A3E0701590007A04F0A35F
:107D49007400F0A37446F07BFF7A047904801490E0
:107D5900007A7401F0A37400F0A37446F07BFF7AF3
:107D690004792F123F327BFF7A047958123F327B14
:107D7900017A007946E4FD12AA897B017A007946E5
:107D890012883C900050EEF0A3EFF0FB7D107C00D0
:107D99007FA812B1B57D107C007FA812B93F7E0083
:107DA900900050EEF0A3EFF090007A74FFF0A37406
:107DB90000F0A37447F0A3EEF0A3EFF07B017A0083
:107DC9007946123F2C900050E07002A3E0701590A4
:107DD900007A04F0A37400F0A37446F07BFF7A04E0
:107DE9007904801490007A7401F0A37400F0A374EC
:0B7DF90046F07BFF7A04792F123F3226
:017E0400225B
:107E05007D117C007FA812B93F7E00900050EEF0F6
:107E1500A3EFF090007A74FFF0A37400F0A3744709
:107E2500F0A3EEF0A3EFF07B017A007946123F2C28
:107E3500900050E07002A3E0701590007A04F0A362
:107E45007400F0A37446F07BFF7A04798480149063
:107E5500007A7401F0A37400F0A37446F07BFF7AF6
:107E65000479A8123F327BFF7A0479CA123F327B2C
:107E7500017A007946E4FD12AA897B017A007946E8
:107E850012883C900050EEF0A3EFF0FB7D117C00D2
:107E95007FA812B1B57D117C007FA812B93F7E0085
:107EA500900050EEF0A3EFF090007A74FFF0A37409
:107EB50000F0A37447F0A3EEF0A3EFF07B017A0086
:107EC5007946123F2C900050E07002A3E0701590A7
:107ED500007A04F0A37400F0A37446F07BFF7A04E3
:107EE5007984801490007A7401F0A37400F0A3746F
:0B7EF50046F07BFF7A0479A8123F32B0
:017F0000225E
:1085A4007D127C007FA812B93F7E00900050EEF04F
:1085B400A3EFF090007A74FFF0A37400F0A3744763
:1085C400F0A3EEF0A3EFF07B017A007946123F2C82
:1085D400900050E07002A3E0700690007A048005D9
:1085E40090007A7401F0A37400F0A37446F07BFF4A
:1085F4007A0479EF123F327BFF7A057913123F3206
:108604007B017A007946E4FD12AA897B017A00791C
:108614004612883C900050EEF0A3EFF0FB7D127CF4
:10862400007FA812B1B57D127C007FA812B93F7EED
:1086340000900050EEF0A3EFF090007A74FFF0A3E6
:108644007400F0A37447F0A3EEF0A3EFF07B017A7B
:10865400007946123F2C900050E07002A3E07006AF
:1086640090007A04800590007A7401F0A37400F0FD
:0D867400A37446F07BFF7A0479EF123F32C9
:0186810022D6
:10BBEB009000747419F0A37432F0A3744BF0A37427
:10BBFB0064F0A3747DF0A37496F0A374AFF0A374F8
:10BC0B00C8F0A374E1F0A374FAF0E4A3F07B017A1B
:03BC1B0000797439
:01BC1E002203
:0A74C100900061EEF0FCA3EFF0FD77
:1074CB007FA812B93F7E0090006DEEF0A3EFF09015
:1074DB00007A74FFF0A37400F0A37447F0A3EEF0EE
:1074EB00A3EFF07B017A007963123F2C90006DE0E3
:1074FB007002A3E0701590007A04F0A37400F0A35F
:10750B007463F07BFF7A05793B801490007A7401E9
:10751B00F0A37400F0A37463F07BFF7A057961121A
:10752B003F327BFF7A057985123F327B017A0079F6
:10753B0063E4FD12AA897B017A00796312883C907F
:10754B00006DEEF0A3EFF0900061E0FCA3E0FDAB6B
:10755B00077FA812B1B5900061E0FCA3E0FD7FA806
:10756B0012B93F7E0090006DEEF0A3EFF090007A21
:10757B0074FFF0A37400F0A37447F0A3EEF0A3EF35
:10758B00F07B017A007963123F2C90006DE0700262
:10759B00A3E090006F7018F0A3F090007A04F0A3B2
:1075AB007400F0A37463F07BFF7A05793B8017E4DA
:1075BB00F0A304F090007AF0A37400F0A37463F0CE
:0F75CB007BFF7A057961123F3290006FA3E0FFDA
:0175DA00228E
:08589300900061EEF0A3EFF0BC
:10589B007BFF7A0579AC123F3212AA817BFF7A0526
:1058AB0079D2123F32900062E02407FD900061E054
:1058BB003400FC900063E0FB7FA812B1B59000624E
:1058CB00E02407FD900061E03400FC7FA812B93F93
:1058DB007BFF7A00794490007AEFF0123F32900010
:1058EB0062E02408FD900061E03400FC900064E06D
:1058FB00FB7FA812B1B5900062E02408FD90006117
:10590B00E03400FC7FA812B93F7BFF7A0579EE905B
:10591B00007AEFF0123F32900062E02409FD900014
:10592B0061E03400FC900066E0FB7FA812B1B590FB
:10593B000062E02409FD900061E03400FC7FA812B6
:10594B00B93F7BFF7A00794490007AEFF0123F3237
:10595B00900062E0240AFD900061E03400FC9000AE
:10596B0067E0FB7FA812B1B5900062E0240AFD90BE
:10597B000061E03400FC7FA812B93F7BFF7A00790D
:10598B004490007AEFF0123F327BFF7A0579F212E6
:10599B003F3212AA817BFF7A067912123F329000B6
:1059AB0062E0240BFD900061E03400FC900063E0AA
:1059BB00FB7FA812B1B5900062E0240BFD90006153
:1059CB00E03400FC7FA812B93F7BFF7A007944904A
:1059DB00007AEFF0123F32900062E0240CFD900051
:1059EB0061E03400FC900064E0FB7FA812B1B5903D
:1059FB000062E0240CFD900061E03400FC7FA812F3
:105A0B00B93F7BFF7A0579EE90007AEFF0123F32C7
:105A1B00900062E0240DFD900061E03400FC9000EA
:105A2B0066E0FB7FA812B1B5900062E0240DFD90FB
:105A3B000061E03400FC7FA812B93F7BFF7A00794C
:105A4B004490007AEFF0123F32900062E0240EFD9A
:105A5B00900061E03400FC900067E0FB7FA812B17E
:105A6B00B5900062E0240EFD900061E03400FC7FF5
:105A7B00A812B93F7BFF7A00794490007AEFF002CD
:025A8B003F32A8
:0875DB00900074EEF0A3EFF044
:1075E3007BFF7A06792E123F32900075E02407FD67
:1075F300900074E03400FC7FA812B93F7BFF7A0649
:10760300794090007AEFF0123F32900075E0240841
:10761300FD900074E03400FC7FA812B93F7BFF7A31
:107623000579EE90007AEFF0123F32900075E02476
:1076330009FD900074E03400FC7FA812B93F7BFF82
:107643007A00794490007AEFF0123F32900075E0AF
:10765300240AFD900074E03400FC7FA812B93F7B3C
:10766300FF7A06794490007AEFF0123F329000756A
:10767300E0240BFD900074E03400FC7FA812B93FB6
:107683007BFF7A00794490007AEFF0123F3290004A
:1076930075E0240CFD900074E03400FC7FA812B95F
:1076A3003F7BFF7A0579EE90007AEFF0123F32903C
:1076B3000075E0240DFD900074E03400FC7FA812F7
:1076C300B93F7BFF7A00794490007AEFF0123F32A2
:1076D300900075E0240EFD900074E03400FC7FA858
:1076E30012B93F7BFF7A00794490007AEFF0023FB2
:0176F3003264
:0849E200900061EEF0A3EFF07C
:1049EA007BFF7A06794A123F327BFF7A0679761282
:1049FA003F327BFF7A06799E123F327B017A007939
:104A0A0063E4FD12AA897BFF7A0679C6123F32E473
:104A1A0090006EF090006EE0FFC39408748094805A
:104A2A004003024C9874632FF582E43400F583E066
